:020000040000FA
:100000000C9462000C948A000C948A000C948A0070
:100010000C948A000C948A000C948A000C948A0038
:100020000C948A000C948A000C948A000C948A0028
:100030000C948A000C948A000C948A000C948A0018
:100040000C94DB1A0C948A000C944B1B0C94251B0B
:100050000C948A000C948A000C948A000C948A00F8
:100060000C948A000C948A00000000080002010031
:100070000003040700000000000000000000000072
:1000800023002600290000000000250028002B0086
:1000900000000000240027002A00040404040404D3
:1000A0000404020202020202030303030303010227
:1000B00004081020408001020408102001020408F6
:1000C00010207D1B11241FBECFEFD8E0DEBFCDBFB7
:1000D00013E0A0E0B1E0ECE9F6E402C005900D9277
:1000E000AE31B107D9F724E0AEE1B3E001C01D9213
:1000F000A63BB207E1F710E0C2E6D0E004C02197CA
:10010000FE010E940622C136D107C9F70E94341CA5
:100110000C944C230C9400008CBD9DBD089520E3ED
:10012000FC0120833296862F82958F706F706A3023
:1001300030F4605D6293682F8111F5CF0895695C9A
:10014000F9CFCF92DF92EF92FF92CF93DF93B091EE
:10015000A004A0E08111AB2F8091A10490E0880F52
:10016000991FAC0144585F4FC090A604D090A704DB
:10017000E090A804F090A90430E020E0FA01C591D5
:10018000D491E881B90190E080E0EB23EA130AC042
:100190002F5F3F4F6C157D058E059F0578F36FEF40
:1001A0007FEFCB01DF91CF91FF90EF90DF90CF9069
:1001B0000895FC01818D928D0895089590E0FC01D1
:1001C000E859FF4F2491FC01E255FF4F3491FC01A7
:1001D000E656FF4FE491EE23C9F0222339F0233095
:1001E00001F1A8F4213019F1223029F1F0E0EE0FED
:1001F000FF1FEA57FF4FA591B4918FB7F894EC9188
:10020000611126C030953E233C938FBF089527305F
:10021000A9F02830C9F0243049F7809180008F7D03
:1002200003C0809180008F7780938000DFCF84B5FA
:100230008F7784BDDBCF84B58F7DFBCF8091B000FD
:100240008F778093B000D2CF8091B0008F7DF9CFAF
:100250003E2BDACFCF93DF9390E0FC01E255FF4FC6
:10026000249186569F4FFC0184918823D1F090E021
:10027000880F991FFC01E057FF4FA591B491FC0135
:10028000EA57FF4FC591D491623071F49FB7F8944B
:100290003C91822F809583238C93E8812E2B288399
:1002A0009FBFDF91CF9108958FB7F894EC912E2BDB
:1002B0002C938FBFF6CF3FB7F89480912303909192
:1002C0002403A0912503B091260326B5A89B05C061
:1002D0002F3F19F00196A11DB11D3FBFBA2FA92FC5
:1002E000982F8827BC01CD01620F711D811D911DC2
:1002F00042E0660F771F881F991F4A95D1F708952E
:100300008F929F92AF92BF92CF92DF92EF92FF9225
:100310004B015C010E945B016B017C010E945B014F
:100320006C197D098E099F09683E7340810591050E
:10033000A8F321E0821A9108A108B10888EEC80E3E
:1003400083E0D81EE11CF11C81149104A104B104C6
:1003500029F7FF90EF90DF90CF90BF90AF909F90E4
:100360008F9008952FB7F89460911F037091200328
:1003700080912103909122032FBF0895CF92DF92A5
:10038000EF92FF920F931F93CF93DF93CDB7DEB71A
:10039000C054D1400FB6F894DEBF0FBECDBF0E944F
:1003A000B2010091A2041091A3042091A404309101
:1003B000A5046B017C01C01AD10AE20AF30A970175
:1003C0008601003D17402105310590F48091AA0473
:1003D000C05CDE4F0FB6F894DEBF0FBECDBFDF911D
:1003E000CF911F910F91FF90EF90DF90CF900895E4
:1003F0006093A2047093A3048093A4049093A50433
:1004000010929D0410929C0410929B0410929A04E6
:100410001092990462E080919E040E942A0161E09A
:1004200070E080E090E00E94800161E080919E0495
:100430000E942A0160E080919E040E94DE0080916B
:100440009F048551823020F58BE291E10197F1F70D
:1004500062E080919E040E942A018091AB0490E0AA
:100460008230910538F0880F991F880F991F0597E2
:100470000197F1F7F89480E00E94A1006F3F7F4F51
:100480008F4F9F4F61F41092AA04789480E0A0CF20
:1004900064E170E080E090E00E948001D9CF81E0CB
:1004A0000E94A1006F3F7F4F8F4F9F4F61F38E01DE
:1004B0000F5F1F4F6E012FEBC21A2EEFD20A780189
:1004C00080E00E94A100F70160837183828393839F
:1004D00081E00E94A100F70164837583868397837E
:1004E000F8E0EF0EF11CEC14FD0451F7789430E0C5
:1004F00020E0F801C080D180E280F3804481558102
:1005000066817781FFEFCF16DF06EF06FF0631F039
:100510004F3F8FEF58076807780719F41092AA0425
:10052000B5CFF90183E0F595E7958A95E1F7E756B0
:10053000FB4F8081880FC416D506E606F70610F13A
:1005400080832F5F3F4F085F1F4F2832310589F6A8
:1005500040919D042091990480919A04280F33279B
:10056000331F80919B04280F311D80919C04820FC2
:10057000932F911D99274817190681F681E08093E2
:10058000AA0426CF8160DCCFAF92BF92CF92DF92D8
:10059000EF92FF920F931F93CF93DF936C017B0138
:1005A0008B01040F151FEB015E01AE18BF08C017C9
:1005B000D10759F06991D601ED91FC910190F0813C
:1005C000E02DC6010995892B79F7C501DF91CF91FF
:1005D0001F910F91FF90EF90DF90CF90BF90AF9061
:1005E0000895FC01538D448D252F30E0842F90E039
:1005F000821B930B541710F0CF960895019708951E
:10060000FC01918D828D981761F0A28DAE0FBF2FE6
:10061000B11D5D968C91928D9F5F9F73928F90E03C
:1006200008958FEF9FEF0895FC01918D828D9817AB
:1006300031F0828DE80FF11D858D90E008958FEFE8
:100640009FEF0895FC01918D228D892F90E0805CB1
:100650009F4F821B91098F73992708958AEB93E02E
:100660000E94220321E0892B09F420E0822F0895C3
:1006700080E090E0892B29F00E942E0381110C94D8
:1006800000000895FC01A48DA80FB92FB11DA35A35
:10069000BF4F2C91848D90E001968F739927848FA2
:1006A000A689B7892C93A089B1898C9183708064C5
:1006B0008C93938D848D981306C00288F389E02D66
:1006C00080818F7D80830895EF92FF920F931F9317
:1006D000CF93DF93EC0181E0888F9B8D8C8D9813F5
:1006E0001AC0E889F989808185FF15C09FB7F89401
:1006F000EE89FF896083E889F9898081837080644D
:1007000080839FBF81E090E0DF91CF911F910F9197
:10071000FF90EF900895F62E0B8D10E00F5F1F4FA6
:100720000F731127E02E8C8D8E110CC00FB607FCB5
:10073000FACFE889F989808185FFF5CFCE010E9443
:100740004203F1CFEB8DEC0FFD2FF11DE35AFF4F6C
:10075000F0829FB7F8940B8FEA89FB8980818062D1
:10076000CFCFCF93DF93EC01888D8823B9F0AA898E
:10077000BB89E889F9898C9185FD03C0808186FD5C
:100780000DC00FB607FCF7CF8C9185FFF2CF8081AB
:1007900085FFEDCFCE010E944203E9CFDF91CF91DB
:1007A0000895FC0120812EBD9B012150310941F0AB
:1007B00051810DB407FEFDCF4EB55EBD4193F5CF1F
:1007C00061507109860F971F0DB407FEFDCF2EB53E
:1007D000FC0120830895E0914C03F0914D0380814A
:1007E00090914B03892B80830895E0914C03F09105
:1007F0004D03908180914B038095892380830895D8
:100800008EBD00000DB407FEFDCF8EB50895AF92EA
:10081000BF92CF92DF92EF92FF920F931F93CF93ED
:10082000DF93CDB7DEB728970FB6F894DEBF0FBEC3
:10083000CDBF8C017B016A0180914F038333E1F4CA
:100840005801A40EB51EA016B10609F46FC00E948F
:10085000F50380EF0E940004812F0E940004802F86
:100860000E9400040F5F1F4FF70181917F010E94DA
:1008700000040E94EB03E7CF5B01A40EB51E843396
:10088000C1F40E94F50319830A838D2D80688B8340
:10089000CC8264E070E0CE0101960E94D103AE14D8
:1008A000BF0409F441C0F70181917F010E94000457
:1008B000F6CF0E94F5030F3F110509F028F41982C5
:1008C0000A8384E08B830CC017FD17C019820A834A
:1008D00033E0169507953A95E1F7007E0C600B839F
:1008E00086E0C816D104A0F5F701DE011496EA15DA
:1008F000FB0599F081918D93FACFC80126E096957A
:1009000087952A95E1F7807E19830A830115104C9B
:1009100010F48461D7CF8C61D5CFB6016D5F7F4F66
:10092000CE0101960E94D1030E94EB03C6012896D6
:100930000FB6F894DEBF0FBECDBFDF91CF911F91F0
:100940000F91FF90EF90DF90CF90BF90AF90089500
:1009500063E070E0CE0101960E94D103F70181911E
:100960007F010E940004AE14BF04C1F7DDCFCF9316
:10097000DF931F92CDB7DEB7898341E050E0BE011F
:100980006F5F7F4F90E080E00E9407040F90DF913F
:10099000CF91089590E020914F03233339F40C96C2
:1009A000982F990F990F990F80E008954896F8CFE6
:1009B000DA01E0915003F0E0FE2FEE27E60FF71F7B
:1009C00090E0982F8827A901BD018E0F9F1F0C94DE
:1009D0000704CF93DF9300D0CDB7DEB779836A8366
:1009E00022E030E0AE014F5F5F4F60E170E00E94B7
:1009F000D8040F900F90DF91CF910895CF93DF939C
:100A000000D0CDB7DEB779836A8322E030E0AE0153
:100A10004F5F5F4F64E070E00E94D8040F900F902A
:100A2000DF91CF910895CF93DF931F92CDB7DEB7BB
:100A30002091500330E0322F2227260F371F90E0FD
:100A4000982F8827498341E050E0BE016F5F7F4FB8
:100A5000820F931F0E9407040F90DF91CF9108959A
:100A6000CF93DF931F92CDB7DEB76983DC01ED91A1
:100A7000FC910280F381E02D41E050E0BE016F5F08
:100A80007F4F09950F90DF91CF910895CF93DF931A
:100A90001F92CDB7DEB76983DC01ED91FC91028036
:100AA000F381E02D41E050E0BE016F5F7F4F09957B
:100AB0000F90DF91CF910895FC019485FB0184850F
:100AC000981303C081E0943008F080E00895CF933C
:100AD000DF931F92CDB7DEB76983DC01ED91FC9106
:100AE0000280F381E02D41E050E0BE016F5F7F4F57
:100AF00009950F90DF91CF910895FC017687658766
:100B00000895DC01ED91FC9102A0F3A1E02D09957F
:100B100091E089270895862F089581E0862708951A
:100B200021E0FC018485843008F020E0822F0895C4
:100B300008950895FF920F931F93CF93DF93EB01D6
:100B4000FC01178A168A2A81211109C02B812111E3
:100B500006C02C81211103C02D81222301F14115F2
:100B60005105E9F08A01FC01F08C80E591E00E94DA
:100B70008C00AE014E5F5F4F24E030E06CE070E02F
:100B80008F2D0E94D804B8018F2D0E94E90481E0C6
:100B900090E0DF91CF911F910F91FF90089580E039
:100BA000F7CFFC01848595850895FC01848995899A
:100BB00008952AE831E0FC0131832083FB0140895C
:100BC000518962897389FC014283538364837583ED
:100BD0000895DC01ED91FC91048CF58DE02D0994D4
:100BE000089590E080E00895AF92BF92CF92DF9297
:100BF000EF92FF920F931F93CF93DF9300D000D01B
:100C0000CDB7DEB78C016B017A0180914F0383333E
:100C1000E9F45B016801C40ED51EC016D106A9F126
:100C20000E94F5038FE00E940004812F0E940004BF
:100C3000802F0E9400040F5F1F4F80E00E9400047D
:100C4000F50181935F010E94EB03E7CF843369F5DF
:100C50000E94F50319830A838F2D8F778B83EC8293
:100C600064E070E0CE0101960E94D103A70170E01C
:100C700060E0C6010E943E23E114F10421F0B701B7
:100C8000C6010E94D1030E94EB03C7010F900F9091
:100C90000F900F90DF91CF911F910F91FF90EF90E8
:100CA000DF90CF90BF90AF9008950E94F5030F3F63
:100CB000110509F030F419820A831B8263E070E0A9
:100CC000D1CF17FD0BC019820A8333E01695079523
:100CD0003A95E1F7007E08600B83F0CFC80126E06B
:100CE000969587952A95E1F7807E19830A830115E9
:100CF000104C18F480618B83E1CF8861FCCFCF93D7
:100D0000DF931F92CDB7DEB72091500330E0322F32
:100D10002227260F371F90E0982F882741E050E0C8
:100D2000BE016F5F7F4F820F931F0E94F405898180
:100D30000F90DF91CF910895CF93C82F462F61E098
:100D400070E00E94130561E070E08C2F0E947F0626
:100D50008111F9CFCF910895CF93C82F80E591E00D
:100D60000E948C0068E070E08C2FCF910C949C0660
:100D7000CF93C82F80E591E00E948C0060E170E085
:100D80008C2FCF910C949C06CF93DF93EC01888D30
:100D9000843020F40E94B80684E0888FDF91CF91E0
:100DA000089563E070E00C947F06CF93C82F80E530
:100DB00091E00E948C008C2FCF910C94D106EF9281
:100DC000FF920F931F93CF937C0103E413E0C0E0E5
:100DD000F801219131918F01F701848195812817C4
:100DE000390729F0CF5FC43099F780E006C08C2F17
:100DF0000E94D5068431B1F781E0CF911F910F9108
:100E0000FF90EF900895CF93DF93EC018C858430B1
:100E1000D0F40E94D506843189F0882379F0883196
:100E200069F021E08C3159F4E881F9810084F18581
:100E3000E02DCE01099521E0892B09F420E0822FD5
:100E4000DF91CF91089580E0FBCFCF92DF92EF92B8
:100E5000FF92CF93DF93EC018C85843068F40E947D
:100E6000AC060E94B2016B017C018C850E94D50604
:100E7000811109C084E08C87DF91CF91FF90EF90C2
:100E8000DF90CF90089561E070E080E090E00E94F4
:100E900080010E94B201AB01BC014C195D096E09D1
:100EA0007F098D859E85B0E0A0E0481759076A0745
:100EB0007B07D8F28C850E94B806DCCFCF93FC016B
:100EC000C08D80E591E00E948C0060E270E08C2F84
:100ED0000E949C0662E070E08C2F0E947F0684FDD9
:100EE00016C062E070E08C2F0E947F0683FF0AC06C
:100EF00048E162E070E08C2F0E94130580E090E0F2
:100F0000CF91089580E591E00E948C00E3CF40E10D
:100F100062E070E08C2F0E94130581E0F0CFCF9348
:100F2000DF931F92CDB7DEB741E050E0BE016F5FA7
:100F30007F4F90E080E00E94F40589810F90DF915F
:100F4000CF910895CF93DF93C4E1D0E00E948F0743
:100F5000882361F061E070E080E090E00E94800111
:100F60002197A1F780E0DF91CF91089581E0FBCF39
:100F70001F93CF93DF931F92CDB7DEB7182F80E575
:100F800091E00E948C00812F0E94CA0427E0129FEA
:100F9000F0011124E95DFC4F22813381377041E07B
:100FA00050E0BE016F5F7F4F820F931F0E94F405D8
:100FB00089810F90DF91CF911F910895FC01808D61
:100FC000843040F4218D328D232B21F00E94B8070C
:100FD00090E008958FEF9FEF0895CF93DF93FC018A
:100FE0002485243028F08FEF9FEFDF91CF91089573
:100FF000EC010190F081E02D0084F185E02D099550
:10100000892B89F38C850E94B80790E0EECFDA0136
:10101000E0915003F0E0FE2FEE27E60FF71F90E07F
:10102000982F8827A901BD018E0F9F1F0C94F405EE
:101030008F929F92AF92BF92CF92DF92EF92FF92E8
:101040001F93CF93DF93CDB7DEB72C970FB6F894ED
:10105000DEBF0FBECDBF20914F0314E0222329F144
:101060006B017C0180E591E00E948C005E0127E02D
:10107000A20EB11C450110E0812F0E94D106F4019F
:1010800081934F01882349F11F5F1430A9F710E0C5
:10109000F50181915F018D31D9F08831C9F08A5114
:1010A0008230B0F01F5F143099F7812F2C960FB665
:1010B000F894DEBF0FBECDBFDF91CF911F91FF909F
:1010C000EF90DF90CF90BF90AF909F908F9008955A
:1010D00060E170E0812F0E949C06A12EB12CF501E9
:1010E000EE0FFF1FED5BFC4F1182108283EE93E049
:1010F0000197F1F742E870E060E0812F0E9413054C
:101100004FEF62E070E0812F0E941305B601C11419
:10111000D10491F480910001909101010196811513
:10112000F0EC9F0708F45CC09093010180930001EC
:101130006091000170910101812F0E94FE0486E000
:10114000E2E1F1E0DE01119601900D928A95E1F75E
:10115000F70183818F778C8384818D8385818E8352
:10116000A7014E5F5F4F24E030E06CE070E0812F1C
:101170000E94D804B601812F0E94E90426E030E0E5
:10118000AE014F5F5F4F66E070E0812F0E94D80490
:1011900061E070E0812F0E949C0627E02A9DC0013B
:1011A0002B9D900D11249C01295D3C4F7901F90183
:1011B0001182108222E030E0AE01455F5F4F68E2AD
:1011C00070E0812F0E9407088B859C8598278927CE
:1011D0009827F7019383828316821582148265CF44
:1011E00080E090ECA1CFCF92DF92EF92FF920F932D
:1011F0001F93CF93DF9300D000D000D0CDB7DEB7E0
:101200008C016B017A01FC01808D843010F40E9406
:10121000B8068AE891E09A838983F60182819381F6
:10122000A481B5818B839C83AD83BE83B701CE013E
:1012300001960E941808F801808F8430A0F4F5868A
:10124000E486128E118E81E026960FB6F894DEBFEA
:101250000FBECDBFDF91CF911F910F91FF90EF9007
:10126000DF90CF90089580E0EFCFAF92BF92CF9202
:10127000DF92EF92FF920F931F93CF93DF9300D0F3
:1012800000D000D0CDB7DEB7082F6B0180E591E02C
:101290000E948C009E012F5F3F4F7901590110E0A1
:1012A000812F0E94D106F50181935F01882341F1CE
:1012B0001F5F1430A9F710E0F70181917F018D3194
:1012C000D1F08831C1F08A518230A8F01F5F14300C
:1012D00099F7812F26960FB6F894DEBF0FBECDBFCB
:1012E000DF91CF911F910F91FF90EF90DF90CF9002
:1012F000BF90AF90089560E170E0812F0E949C063E
:10130000E12EF12CF701EE0FFF1FED5BFC4F118278
:10131000108283EE93E00197F1F7402F70E060E0D8
:10132000812F0E9413054FEF62E070E0812F0E9431
:101330001305B601CD2889F4809100019091010137
:1013400001968115F0EC9F0798F19093010180932D
:1013500000016091000170910101812F0E94FE0443
:1013600061E070E0812F0E949C0627E02E9DC00165
:101370002F9D900D11249C01295D3C4F7901F901AD
:101380001182108222E030E0AE014B5F5F4F68E2D5
:1013900070E0812F0E9407088D819E819827892700
:1013A0009827F7019383828316821582148291CF46
:1013B00080E090ECCACFCF92DF92EF92FF921F9322
:1013C000CF93DF93EC017B016A018C85843048F474
:1013D0000E94D506882319F08C850E94AC0684E013
:1013E0008C87F70182819381A481B5810097A10543
:1013F000B10551F490E080E0DF91CF911F91FF9013
:10140000EF90DF90CF9008958F3F9F4FAF4FBF4F2A
:1014100089F380914F03811103C084E08C87EACF68
:1014200070E060E081E20E943509182F8C878430DB
:1014300008F780E591E00E948C00A7014E5F5F4FA6
:1014400024E030E06CE070E0812F0E94D804B60107
:10145000812F0E94E90464E070E0812F0E949C06C5
:101460000E94B2016B017C018C850E94D5068731F8
:1014700009F18C31F9F0882309F4BCCF0E94B20144
:10148000AB01BC014C195D096E097F098D859E85F4
:10149000B0E0A0E084179507A607B70738F061E031
:1014A00070E080E090E00E948001DECF8C850E9499
:1014B000B806B3CF81E090E09FCF0F931F93CF93F7
:1014C000DF93EC018B01888D843010F40E94B80604
:1014D00080914F03811107C094E0988FDF91CF91E5
:1014E0001F910F910895B80182E00E943509888FFD
:1014F000843030F41D870C871A8E198E81E0EECF70
:1015000080E0ECCF0F931F93CF9320914F032223C2
:1015100049F18C01FC016481758181E20E943509E9
:10152000C82F8430F8F480E591E00E948C008C2F65
:101530000E94D106833131F08C2FCF911F910F91F2
:101540000C94AC0662E070E08C2F0E949C06F801BF
:1015500084819581EC2FF0E0EE0FFF1FED5BFC4FD7
:1015600091838083CF911F910F9108957F928F92E5
:101570009F92AF92BF92CF92DF92EF92FF920F9322
:101580001F93CF93DF9300D0CDB7DEB7782E8B01BA
:101590004A01590122E030E0AE014F5F5F4F64E243
:1015A00070E00E940708E980FA80FE24EF24FE2400
:1015B000E00EF11E9701377040914F03072D10E0A8
:1015C000433309F042C0085F1F4F102F0027110F4F
:1015D000110F110FC901800F911F4733C9F1A901E4
:1015E0004A0D5B1D4130584098F160E078E06B0196
:1015F000C21AD30AA601B4010E940704A5014C191E
:101600005D09B4016C0D7D1DC8010E940704EA0C40
:10161000FB1CF982EA8222E030E0AE014F5F5F4FAF
:1016200064E270E0872D0E94D8040F900F90DF9144
:10163000CF911F910F91FF90EF90DF90CF90BF90CF
:10164000AF909F908F907F900895005F1F4FBDCF08
:10165000A501B401DACFEF92FF921F93CF93DF93EE
:1016600000D0CDB7DEB7182F22E030E0AE014F5FDB
:101670005F4F60E270E00E940708E980FA80FE2474
:10168000EF24FE2422E030E0AE014F5F5F4F60E2C6
:1016900070E0812F0E94070889819A819827892705
:1016A0009827E816F90689F487E0189FF0011124BD
:1016B000E95DFC4FF582E482C7010F900F90DF9146
:1016C000CF911F91FF90EF9008957C01DBCF1F9386
:1016D000CF93DF93182F80E591E00E948C00812F3B
:1016E0000E942B0BEC01812F0E94D106873121F043
:1016F0008C3111F0D0E0C0E0CE01DF91CF911F918D
:101700000895CF93DF93EC018C85843060F40E94C0
:10171000D506873111F08C3131F48C850E94670B2E
:101720008115984088F3DF91CF910895FC0184855D
:10173000843010F40C94670B90E080E00895CF9211
:10174000DF92EF92FF921F93CF93DF93182F7B01CD
:10175000EA014130584010F0C0E0D8E080E591E067
:101760000E948C00812F0E942B0B6C01812F0E9404
:10177000D106873111F08C3121F5CC16DD0670F3DE
:1017800080E591E00E948C009E01A70170E060E07E
:10179000812F0E94B60A60E270E0812F0E949C06B1
:1017A00062E070E0812F0E947F0684FD0DC0812FD2
:1017B0000E94D1068823B9F080E591E00E948C0058
:1017C000EFCFD0E0C0E0DCCF40E162E070E0812FFD
:1017D0000E941305CE01DF91CF911F91FF90EF90F2
:1017E000DF90CF900895D0E0C0E0F4CF0F931F9327
:1017F000CF93DF938C01EA01FC018485843048F4A7
:101800000E949F0B892B39F481E090E0F8019383CB
:101810008283D0E0C0E0CE01DF91CF911F910F9184
:1018200008959F92AF92BF92CF92DF92EF92FF9274
:101830000F931F93CF93DF938C015B01942EE52EC2
:10184000FC01C688D788F08C80E591E00E948C006E
:101850008F2D0E942B0BC92DDE2D8C179D0708F4B0
:10186000EC019E01A501B6018F2D0E94B60AF80178
:10187000868997898C0F9D1F978B868BCE01DF9170
:10188000CF911F910F91FF90EF90DF90CF90BF907D
:10189000AF909F900895FF920F931F93CF93DF9384
:1018A00000D0CDB7DEB7F82E22E030E0AE014F5FBA
:1018B0005F4F66E270E00E94070809811A811027D5
:1018C0000127102722E030E0AE014F5F5F4F66E254
:1018D00070E08F2D0E94070889819A8198278927B7
:1018E00098270817190749F4C8010F900F90DF9146
:1018F000CF911F910F91FF9008958C01E3CF1F931B
:10190000CF93DF93182F87E0189FE0011124C95D62
:10191000DC4F88819981009761F480E591E00E9415
:101920008C00812F0E944B0C2E81821B9109998380
:101930008883DF91CF911F910895AF92BF92CF928C
:10194000DF92EF92FF920F931F93CF93DF93EC01FF
:101950007B0180914F03811120C01B821A8288EE87
:1019600093E0A0E0B0E08C839D83AE83BF838CE1E5
:1019700091E09983888384E08C8788EE93E09E874A
:101980008D87CE01DF91CF911F910F91FF90EF9046
:10199000DF90CF90BF90AF90089583E4C82E83E08E
:1019A000D82E10E094E0B92EA12CD6012D913D91B6
:1019B0006D01F701848195812817390791F4812FF2
:1019C0000E94D506082F873111F08C3139F5812F0F
:1019D0000E947F0C892B59F50C3119F4812F0E943C
:1019E000AC061F5F143009F7A11008C0D701ED91B4
:1019F000FC910084F185E02DC70109951B821A82B4
:101A000088EE93E0A0E0B0E08C839D83AE83BF833B
:101A10008CE191E099838883BC86AFCF843149F013
:101A20008111DFCFF601329711821082DACFB12E09
:101A3000D8CFAA24A394D5CF8F929F92AF92BF9272
:101A4000CF92DF92EF92FF921F93CF93DF93CDB7A8
:101A5000DEB72F970FB6F894DEBF0FBECDBF5C0187
:101A60004B017A0180914F038823A1F1B501CE018A
:101A700001960E949D0C83E4C82E83E0D82E10E0CE
:101A8000F601219131916F01F5018481958128172B
:101A9000390751F4812F0E94D506873129F4A70117
:101AA000B401812F0E949F0B1F5F143049F7C701BB
:101AB0002F960FB6F894DEBF0FBECDBFDF91CF914A
:101AC0001F91FF90EF90DF90CF90BF90AF909F90CD
:101AD0008F900895F12CE12CEACFFC0184858430AD
:101AE00010F40C947F0C90E080E008954F925F9288
:101AF0007F928F929F92AF92BF92CF92DF92EF929E
:101B0000FF920F931F93CF93DF9300D0CDB7DEB733
:101B1000782E6B014A01A82EB12C27E0829FC001CC
:101B20001124FC01E95DFC4F7F010081118180E5FA
:101B300091E00E948C000815190554F4872D0E942D
:101B40004B0CF70126818C01021B110911830083C4
:101B50000115110519F5872D0E94D106843159F020
:101B6000882349F001E010E08C3111F410E000E02E
:101B7000119501951109C8010F900F90DF91CF9138
:101B80001F910F91FF90EF90DF90CF90BF90AF909B
:101B90009F908F907F905F904F9008958016910650
:101BA0000CF4840187E08A9DF0018B9DF00D1124D7
:101BB000E95DFC4FE280F380C114D10451F12701AB
:101BC000F7E05F22872D0E94CA04840D951D2091A5
:101BD0004F03273309F453C09801240D351D2130DC
:101BE000384008F44CC020E038E0490184189508DA
:101BF000A401B6010E94F4052601480C591C680195
:101C0000C818D908872D0E94CA04A601B2010E94F3
:101C1000F405E00EF11E87E08A9DF0018B9DF00D2A
:101C20001124E95DFC4FF382E28220813181201B87
:101C3000310B318320838681800F912F911D8A3F44
:101C4000910510F4232BF1F487E08A9DF0018B9D20
:101C5000F00D1124E95DFC4F1682F982EA8222E040
:101C600030E0AE014F5F5F4F68E270E0872D0E9469
:101C7000D80460E470E0872D0E949C067CCFA80108
:101C8000B601C5CF868377CFCF93DF93FC01218D3B
:101C9000328D2115310529F48FEF9FEFDF91CF9120
:101CA0000895EC01808D4217530708F0A9010E94A6
:101CB000760D1816190684F7298D3A8D281B390BD5
:101CC0003A8F298FEBCF0F931F93CF93DF931F9200
:101CD000CDB7DEB7FC01218D328D232B41F48FEF80
:101CE0009FEF0F90DF91CF911F910F9108958C017D
:101CF00041E050E0BE016F5F7F4FFC01808D0E948C
:101D0000760D181619065CF7F801818D928D0197F2
:101D1000928F818F898190E0E4CFCF93DF931F92E0
:101D2000CDB7DEB741E050E0BE016F5F7F4FFC01F1
:101D300084850E94760D1816190634F4898190E086
:101D40000F90DF91CF9108958FEF9FEFF9CFFC01B6
:101D50008485843010F40C94760D90E080E0089532
:101D60000F931F93CF93DF9300D0CDB7DEB7FC0165
:101D700024852430E0F48C0180E591E00E948C0001
:101D800022E030E0AE014F5F5F4F60E170E0F801AC
:101D900084850E94070889819A8198278927982736
:101DA0000F900F90DF91CF911F910F91089590E0C8
:101DB00080E0F6CF0F931F93CF93DF9300D0CDB782
:101DC000DEB7FC0124852430E0F48C0180E591E04D
:101DD0000E948C0022E030E0AE014F5F5F4F64E074
:101DE00070E0F80184850E94070889819A8198270C
:101DF000892798270F900F90DF91CF911F910F9116
:101E0000089590E080E0F6CFDC018AE891E08D93C0
:101E10009D9384E0FB0101900D928A95E1F708956E
:101E2000EF92FF920F931F93CF93DF9300D000D0D8
:101E3000CDB7DEB78C017B01FB0184858430A8F02F
:101E40008AE891E0F80191838083128213821482E0
:101E50001582C8010F900F900F900F90DF91CF91D6
:101E60001F910F91FF90EF90089580E591E00E94FF
:101E70008C0024E030E0AE014F5F5F4F6CE070E01B
:101E8000F70184850E940708BE016F5F7F4FC8017C
:101E90000E94040FDECF0F931F93CF93DF93CDB734
:101EA000DEB728970FB6F894DEBF0FBECDBF8C010A
:101EB000D80159964D915C915A974115510551F0B1
:101EC000ED91FC91048CF58DE02D70E060E0C8018F
:101ED0000995EECFF801808D0E947F0C892BB1F11E
:101EE00048E050E0BE016F5F7F4FD80158968C915B
:101EF0000E94760D18161906F4F4D801509684E065
:101F0000FE01319601900D928A95E1F78D8190E066
:101F1000982F88272E81820F911DF801958B848B35
:101F20008F81282F30E0322F22278885820F932F30
:101F3000911D928F818F28960FB6F894DEBF0FBE49
:101F4000CDBFDF91CF911F910F91089590E080E078
:101F5000F2CF4F925F926F927F928F929F92AF9249
:101F6000BF92CF92DF92EF92FF920F931F93CF9386
:101F7000DF93CDB7DEB763970FB6F894DEBF0FBE21
:101F8000CDBF7C016B013A01FB0120E090E080E0D5
:101F90006AE03191332309F461C040ED430F4A30C8
:101FA00008F04DC0689FA001699F500D1124CA011F
:101FB000C097830F911D37FD9A958F3F910549F387
:101FC00040F3F701428153816481758180918304DC
:101FD00090918404A0918504B09186044817590714
:101FE0006A077B0709F40DC28701085F1F4F0E9433
:101FF000B2016F7077277C5FC8010E945D0A813053
:1020000009F004C28AE891E09A838983F70182810A
:102010009381A481B5818B839C83AD83BE8345E38B
:1020200050E0BE016F5F7F4FC8010E949A05892B67
:10203000A9F5D12CC12CC8010E94C40617C03E329C
:1020400009F0BFCF233009F4BCCFD301A20FB11DDB
:1020500012968C932F5F90E080E09BCF233009F0A5
:10206000B0CFF3018583CC24C394D12CC6016396F1
:102070000FB6F894DEBF0FBECDBFDF91CF911F9199
:102080000F91FF90EF90DF90CF90BF90AF909F9017
:102090008F907F906F905F904F9008950E94B20153
:1020A000F7017783668342E050E0B7016A5F7F4FB4
:1020B000C8010E94110C81E090E09A83898342E07C
:1020C00050E0BE016F5F7F4FC8010E94110C80E09D
:1020D00091E09A83898342E050E0BE016F5F7F4FB9
:1020E000C8010E94110C1A82198242E050E0BE0120
:1020F0006F5F7F4FC8010E94110C42E050E0BE01AB
:102100006F5F7F4FC8010E94110C42E050E0BE019A
:102110006F5F7F4FC8010E94110C5601F60180814C
:10212000882301F16501F60181912F01882311F0C7
:102130008E32B1F446018A189B081814190474F4FD
:102140008D8641E050E0BE01635F7F4FC8010E9471
:10215000110CA401B501C8010E94110C5201DECF7F
:102160006201E1CF1D8641E050E0BE01635F7F4F19
:10217000C8010E94110CC12CDD24D394DA82C982DB
:1021800042E050E0BE016F5F7F4FC8010E94110C1A
:10219000DA82C98242E050E0BE016F5F7F4FC80122
:1021A0000E94110CC8010E945E07892B09F441CFDF
:1021B000F3E0AF2EB12C230122E0420E511CD4C01B
:1021C000F7014281538164817581808D918DA28D4B
:1021D000B38D481759076A077B0709F008C1848D3A
:1021E000958DC59709F003C181A192A15DEFC52E20
:1021F000DD24DA940C970CF4ADC04CE050E0BE0145
:102200006F5F7F4FC8010E94440E8B819C8198278D
:10221000892798279A8B898BF701468157812981D5
:102220003A814217530709F0E7C097FFE5C08F7066
:1022300092703BEFC32EDD24DA94892B09F08AC01B
:102240006F8078847624672476242AEFC22EDD24DA
:10225000DA946114710409F47DC0D12CC12C8D81F4
:102260009E81982789279827C816D906F8F441E057
:1022700050E0BE01635F7F4FC8010E94440E4D8550
:10228000442331F050E070E060E0C8010E94440E49
:102290008D858111ECCF44E050E070E060E0C80132
:1022A0000E94440EFFEFCF1ADF0AD9CF912C812C68
:1022B00041E050E0BE016D5E7F4FC8010E94440EB8
:1022C0004B89842F807C09F06CC0442331F050E0AE
:1022D00070E060E0C8010E94440E8B898111E8CF54
:1022E00042E050E0BE01615F7F4FC8010E94440E92
:1022F00042E050E0BE01635F7F4FC8010E94440E80
:1023000044E050E070E060E0C8010E94440E42E00A
:1023100050E0BE016F5E7F4FC8010E94440E8F8562
:10232000988949895A898115914009F043C0CD8423
:10233000DE84DC24CD24DC2481E0C816D104D1F570
:102340004115544009F04AC044E050E0B201C801D0
:102350000E94440E21E0A21AB10809F46CCEFFEFEE
:10236000CF16DF0609F067CE0E94B2013B014C0197
:10237000C8010E944B0F181619060CF421CF0E94B9
:10238000B20166197709880999096938734181058D
:10239000910548F562E370E080E090E00E948001E2
:1023A000E7CF41E050E070E060E0C8010E94440ED9
:1023B0001B8A93CF54274527542770E060E0C8015B
:1023C0000E94440EFFEF8F1A9F0A6814790409F0E7
:1023D0006FCF96EFC92EDD24DA94BCCFE7EFCE2E77
:1023E000DD24DA94B7CFCC24CA94DC2CB3CF6EEFC3
:1023F000C62EDD24DA94AECF4CEFC42EDD24DA9461
:10240000A9CF8EEFC82EDD24DA9430CED12CC12C8A
:102410002DCECF92DF92EF92FF920F931F93CF9327
:10242000DF93CDB7DEB7AF970FB6F894DEBF0FBE20
:10243000CDBF7C016A010AE811E01A8309831C867A
:102440001B8688EE93E0A0E0B0E08D879E87AF8783
:10245000B88B8EE491E09A878987188F0F8B198E3D
:102460001A8E1B8E1C8E84E089A31BA70AA71CA6AC
:102470001DA61EA61FA68091770490917804A091B6
:102480007904B0917A048EA39FA3A8A7B9A78B83E0
:102490009C83AD83BE8318861F82AE01465D5F4F6D
:1024A000CE0101960E94A90F81309105B1F4D701A8
:1024B000ED91FC910488F589E02D1DA30CA38CA55A
:1024C0009DA5AEA5BFA58EA39FA3A8A7B9A7A6014A
:1024D000BE016C5D7F4FC7010995AF960FB6F894AA
:1024E000DEBF0FBECDBFDF91CF911F910F91FF9047
:1024F000EF90DF90CF900895CF92DF92EF92FF920E
:102500000F931F93CF93DF93CDB7DEB7AF970FB67F
:10251000F894DEBF0FBECDBF8C016B017A018AE853
:1025200091E09A8389831B821C821D821E821C86F5
:102530001B8648EE53E060E070E04D875E876F8752
:10254000788B2EE431E03A872987988F8F8B198E0C
:102550001A8E1B8E1C8E24E029A39BA78AA71CA67B
:102560001DA61EA61FA6D8011C968C91843060F46F
:102570000E94D506882321F0F80184850E94AC06CC
:1025800084E0D8011C968C93809177049091780414
:10259000A0917904B0917A048EA39FA3A8A7B9A7AC
:1025A0008B839C83AD83BE8318861F82AE01465DFC
:1025B0005F4FB601CE0101960E94A90F0097C1F0AE
:1025C000D801ED91FC910684F785E02D8AE891E031
:1025D0009DA38CA38CA59DA5AEA5BFA58EA39FA3EF
:1025E000A8A7B9A7A701BE016C5D7F4FC8010995D7
:1025F000AF960FB6F894DEBF0FBECDBFDF91CF917F
:102600001F910F91FF90EF90DF90CF900895FB0105
:1026100001900020E9F73197AF01461B570BDC0111
:10262000ED91FC910280F381E02D09948F929F92AD
:10263000AF92BF92EF92FF920F931F93CF93DF93CE
:10264000CDB7DEB7A1970FB6F894DEBF0FBECDBFF2
:102650007C01FA01CB0119A2223008F42AE08E0194
:102660000F5D1F4F822E912CB12CA12CBF01A50113
:1026700094010E94921FF901CA016A300CF5605D55
:10268000D8016E938D01232B242B252B79F790E015
:1026900080E0109721F0BD01C7010E940713A196A9
:1026A0000FB6F894DEBF0FBECDBFDF91CF911F9163
:1026B0000F91FF90EF90BF90AF909F908F900895F3
:1026C000695CDECF8F929F92AF92BF92CF92DF92E2
:1026D000EF92FF920F931F93CF93DF937C01EB0157
:1026E0006C0182E0C80ED11C4701E5E08E0E911C02
:1026F00010E000E0F60141916F0150E070E060E011
:102700002AE0CE010E9416135C01E881F981019054
:10271000F081E02D6EE2CE0109958A0D9B1D080F18
:10272000191FC814D90431F7F701458150E070E052
:1027300060E02AE0CE010E941613800F911FDF9106
:10274000CF911F910F91FF90EF90DF90CF90BF90AE
:10275000AF909F908F9008952F923F924F925F92EB
:102760006F927F928F929F92AF92BF92CF92DF92A1
:10277000EF92FF921F93CF93DF93EC016A017B01ED
:10278000722EAB019601CB01B6010E94FA216CE9D1
:1027900071E0811126C046015701E894B7F82FEF88
:1027A0003FEF4FE75FE7C501B4010E94FA218111B5
:1027B0000CC02FEF3FEF4FE75FE7C501B4010E9468
:1027C000302060EA71E0181664F02FEF3FEF4FE71A
:1027D0005FE4C701B6010E9488211816B4F464EAC8
:1027E00071E0CE01DF91CF911F91FF90EF90DF90CC
:1027F000CF90BF90AF909F908F907F906F905F90A1
:102800004F903F902F900C9407132FEF3FEF4FE71F
:102810005FECC701B6010E94302087FDE0CF20E0C9
:1028200030E0A901C701B6010E943020312C212CD3
:1028300087FF09C06DE2CE010E9467051C01F7FA0F
:10284000F094F7F8F09410E060E070E080E09FE32F
:10285000711641F020E030E040E251E40E94352062
:102860001F5FF6CFA70196010E94C41F2B013C01F8
:102870000E94A7204B015C012AE0BC01A401CE010B
:102880000E9416137C01E20CF31C1123C1F1C50157
:10289000B4010E94D6209B01AC01C301B2010E9489
:1028A000C31F4B015C016EE2CE010E946705E80E7A
:1028B000F91E115020F120E030E040E251E4C50162
:1028C000B4010E948D212B013C010E94A7204B01E5
:1028D000B12CA12C2AE0B501A401CE010E9416134F
:1028E000E80EF91EC501B4010E94D6209B01AC017F
:1028F000C301B2010E94C31F4B015C01DACFC701C3
:10290000DF91CF911F91FF90EF90DF90CF90BF901C
:10291000AF909F908F907F906F905F904F903F907F
:102920002F9008950F931F93CF93DF93EC010E9494
:1029300007138C0168EA71E0CE010E940713800F33
:10294000911FDF91CF911F910F9108950C94A822B0
:102950003F924F925F926F927F928F929F92AF922F
:10296000BF92CF92DF92EF92FF920F931F93CF937C
:10297000DF93CDB7DEB7EA970FB6F894DEBF0FBE90
:10298000CDBF7C012A013B0169010E94B2014B01CC
:102990005C0187010D5B1F4FC8010E944B0F181689
:1029A00019069CF00E94B201681979098A099B09ED
:1029B000461657066806790608F466C162E370E0B9
:1029C00080E090E00E948001E7CF42E250E0BE014B
:1029D0006F5F7F4FC8010E94440E89818230D1F021
:1029E000312C832DEA960FB6F894DEBF0FBECDBF13
:1029F000DF91CF911F910F91FF90EF90DF90CF90DB
:102A0000BF90AF909F908F907F906F905F904F900E
:102A10003F900895F801848995898334910501F7E1
:102A20006D817E818F8198850E94FF214B015C0121
:102A3000F60180829182A282B38246E050E0B70123
:102A4000685F7F4FCE014D960E943123892B41F65E
:102A5000F70180819181A281B38188169906AA0627
:102A6000BB0608F4BDCF84819581A681B781881506
:102A70009905AA05BB0508F4B3CF89899A89AB8962
:102A8000BC8986879787A08BB18B4EEC50E070E0B5
:102A900060E0C8010E94440E312CC701829698ABB9
:102AA0008FA7F701B696FAABE9AB08969CAB8BAB58
:102AB00067019AE1C90ED11CBD96FEABEDABC70113
:102AC000429698AF8FABFD97FAAFE9AF4701FEE1B1
:102AD0008F0E911CF801818D928D181619060CF03D
:102AE00080CFC8010E94630E8333910509F4B2C000
:102AF00014F58130910509F464C044F4892B51F335
:102B0000C8010E94630EAC01552775C08330910542
:102B100009F462C00697A1F7C8010E94630EB82E9F
:102B200044E050E0B401C8010E94440EEB2DE45093
:102B3000FF0BAF0160C08A33910509F45FC084F5D3
:102B400085339105B1F1C697D9F6C8010E94630E8D
:102B50005C01B601CE0189960E94040F8BA59CA54D
:102B6000ADA5BEA5892B8A2B8B2BB1F0EDA9FEA9B3
:102B70004080518062807380B601CE0183960E94AE
:102B8000040F8DA19EA1AFA1B8A5A50148165906B5
:102B90006A067B0609F0B8CF44E050E0B60118C0E1
:102BA0008B33910509F440C08F3F910509F492CF12
:102BB000A7CFC8010E94630EC8010E94630E382E81
:102BC00089CFC8010E94630E44E050E06FA978AD40
:102BD000C8010E94440E7ECFC8010E94630EB82E29
:102BE00044E050E069AD7AADC8010E94440E8B2DDF
:102BF0008450990BAC0170E060E0EACFC8010E94FC
:102C0000630E44E050E069A97AA9C8010E94440E0D
:102C1000F70166A177A180A591A50E94FF2166A377
:102C200077A380A791A756CFC8010E94630E44E006
:102C300050E06BA97CA9C8010E94440EF70162A56F
:102C400073A584A595A50E94FF2162A773A784A7F9
:102C500095A740CFC8010E94630E44E050E06FA5E5
:102C600078A9C8010E94440EF70162A173A184A152
:102C700095A10E94FF2162A373A384A395A366A7D5
:102C800077A780AB91AB26CF33243A94AACE7F921C
:102C90008F929F92AF92BF92CF92DF92EF92FF926C
:102CA0000F931F93CF93DF93CDB7DEB7A6970FB6E1
:102CB000F894DEBF0FBECDBF8C01762E942E852EEC
:102CC00020E2A22ECE0101967C01DC01EA2D1D92AC
:102CD000EA95E9F76801F3E4CF0ED11C8AE891E0A8
:102CE0009AA389A38FEF8BA38CA38DA38EA343E418
:102CF00050E0BE016F5D7F4FC6010E949A050196AC
:102D000009F4BFC081E089838A8386E0B82EBB8244
:102D10001C82D80114966D917D918D919C9117978D
:102D20000E94FF216D837E838F83988789869A8690
:102D300080E890E09C878B874CE150E0B701C601AA
:102D40000E94110CFE0137968AE1DF011D928A95DF
:102D5000E9F74801B8E08B0E911CF401D70101900E
:102D60000D92BA94E1F740E150E0B701C6010E942C
:102D7000110CF7011192AA94E9F796E0A92EB12C53
:102D800040E250E0B701C6010E94110CF1E0AF1A19
:102D9000B108B1F783E6898392E89A8393E59B8330
:102DA0008C8385E38D8381E08E837F829DE398878A
:102DB00097E099878A8786E0F401DE011B960190EF
:102DC0000D928A95E1F78CE0898B8A8B6BEA71E032
:102DD000CE0143960E944523D8011B966C91CE01EB
:102DE00049960E948F00F8016485CE014B960E949F
:102DF0008F00D8011D966C91CE014D960E948F00D8
:102E00004EE150E0B701C6010E94110CB3E07B1205
:102E10001EC082E3898384E08A83F80196859B83C0
:102E200097859C8390899D8391899E8396E39F8358
:102E30008887828D8987838D8A87848D8B87858D0E
:102E40008C874CE050E0B701C6010E94110C87E36B
:102E5000898386E08A8391E09B8393E09C838D83C2
:102E60008FE08E838AE38F838BE388878FEF898758
:102E700049E050E0B701C6010E94110CC6010E9452
:102E80005E07A6960FB6F894DEBF0FBECDBFDF91EA
:102E9000CF911F910F91FF90EF90DF90CF90BF9057
:102EA000AF909F908F907F9008952F923F924F9276
:102EB0005F926F927F928F929F92AF92BF92CF92CA
:102EC000DF92EF92FF920F931F93CF93DF93CDB7D3
:102ED000DEB72A970FB6F894DEBF0FBECDBF809144
:102EE000B20381112AC010929A031092990388EEBE
:102EF00093E0A0E0B0E080939B0390939C03A093A9
:102F00009D03B0939E038EE491E090939803809389
:102F100097038AE891E09093A6038093A50310920B
:102F2000A7031092A8031092A9031092AA0384E0A9
:102F30008093AF0381E08093B20384E593E09093A4
:102F4000530380935203809151038111ADC060E31C
:102F500072E080E090E00E948001DFB6F89404EA1D
:102F600010E0E8EBEE2EE0E0FE2E80914E038111A2
:102F700025C0F8018491F7019491E82FF0E0EE0F5D
:102F8000FF1FE057FF4FA591B4918C91982321F436
:102F900061E08AE00E94DE0061E08AE00E942A018E
:102FA0008CB580618CBD8CB580648CBD61E08DE09A
:102FB0000E942A0161E08BE00E942A0180914E0369
:102FC0008F5F80934E03DFBEF8010491E02FF0E0A5
:102FD000EE0FFF1FEA57FF4F8591949190934D0399
:102FE00080934C03F701E490E0924B0361E08AE0A8
:102FF0000E942A010E94EB0380E591E00E948C0070
:1030000084E380934F0380E80E94B7040E94A207E4
:10301000882309F485C188E00E94B7040E948F07C5
:10302000883009F07DC180E10E94B7040E948F07BB
:10303000803109F075C180E00E94B7040E948F07BB
:10304000182F81116DC141E050E0BE016F5F7F4FCD
:103050008FE190E00E94F4058981833009F060C11E
:1030600080E48093500342E06EE170E0812F0E9483
:10307000130542E06FE170E0812F0E9413051F5F8E
:10308000143089F740E06EE170E0812F0E94130553
:1030900040E06FE170E0812F0E9413051F5F183040
:1030A00089F781E08093510380E591E00E948C00D4
:1030B00046E050E062E071E089E090E00E940704A1
:1030C0008AE891E09A8389831B821C821D821E827A
:1030D00044E050E0BE016D5F7F4F8FE090E00E94C2
:1030E00007040091520310915303D80192961D9248
:1030F0001D921D921C929597F80116A217A210A678
:1031000011A69A961D921D921D921C929D9780E683
:103110009AEEA0E0B0E086AB97ABA0AFB1AF80EA8B
:103120009FE0A0E0B0E082AF93AFA4AFB5AF3E9612
:1031300084E1DF011D928A95E9F786E0E2E0F1E0A3
:10314000D801189601900D928A95E1F74801B2E4F2
:103150008B0E911CF40110820E94081F2FEC37E0A7
:1031600040E050E00E94601FDC01CB010196A11DF0
:10317000B11DF80184839583A683B78380839183EF
:10318000A283B383C8018D5B9F4F9A8789870E9472
:10319000C40664E470E089859A850E945D0A8823EC
:1031A00009F427C10E94B2012B013C0148EEA42E74
:1031B00043E0B42EC12CD12C52E0252EF12CE12C71
:1031C000D4018C918330B1F181112FC1F801848138
:1031D0009581A681B7810196A11DB11D8483958338
:1031E000A683B7830E94B2016419750986099709FD
:1031F000A60195010E94921FA90161E0C8010E94E9
:10320000471681E0D4018C93F1E0EF16F104C1F28E
:103210000E94B2016419750986099709D801D696EA
:103220002D913D914D915C91D9972617370748070D
:10323000590720F689859A850E94C406F801848181
:103240009581A681B7810196A11DB11D84839583C7
:10325000A683B7830E94B201F801FE966083718352
:1032600082839383F1E0EF16F10409F0C2C080E598
:1032700091E00E948C000091520310915303B80119
:10328000625F7F4FCE0101960E94040F44E050E040
:10329000BE016D5F7F4F8FE090E00E940704B80190
:1032A0006A5E7F4FCE0101960E94040F44E050E019
:1032B000BE016D5F7F4F81E090E00E940704B8017E
:1032C0006E5E7F4FCE0101960E94040F44E050E0F5
:1032D000BE016D5F7F4F85E090E00E940704B8015A
:1032E000625E7F4FCE0101960E94040F8B819C810C
:1032F000AD81BE818093770490937804A093790484
:10330000B0937A040E945B017F73809100019091D9
:1033100001016827792770930101609300016BC058
:1033200087E380934F0380E80E94B7040E94A207BE
:10333000882329F188E00E94B7040E948F07883013
:10334000F1F480E10E94B7040E948F07182F8031AA
:10335000B1F480E00E94B7040E948F0781110FC072
:1033600041E050E0BE016F5F7F4F89E390E00E9433
:10337000F4058981843019F41093500392CE83E3CD
:1033800080934F0380E80E94B7040E94A20788231D
:1033900071F180E10E94B7040E948F07803139F5F6
:1033A00082E10E94B7040E948F07823101F580E01C
:1033B0000E94B7040E948F07811119C084E0809396
:1033C000500315E5188741E050E0BE01685F7F4F6C
:1033D0008BE190E00E9407041F8341E050E0BE01B2
:1033E000695F7F4F8AE190E00E9407045ACE1092F5
:1033F0004F03F12CE12CC7012A960FB6F894DEBFDB
:103400000FBECDBFDF91CF911F910F91FF90EF9035
:10341000DF90CF90BF90AF909F908F907F906F90F4
:103420005F904F903F902F9008958430F1F4F80111
:1034300084819581A681B7810196A11DB11D8483E8
:103440009583A683B7830E94B20164197509860922
:103450009709A60195010E94921FA90163E0C80186
:103460000E944716D4012C92CFCE813051F5F8013D
:1034700042AD53AD64AD75AD9E012F5F3F4FC801A6
:103480000E94A814382EF2E08F138FC089819A8190
:10349000AB81BC81F80184839583A683B7830E94A6
:1034A000B2016419750986099709A60195010E9460
:1034B000921FA90163E0C8010E944716D4013C9203
:1034C000A3CE823009F0A0CEF80142AD53AD64AD79
:1034D00075AD9E012F5F3F4FC8010E94A814382E82
:1034E000F5E08F135CC0E3E0D401EC93F80182A116
:1034F00093A1A4A1B5A1892B8A2B8B2B41F484E83D
:1035000093E0A0E0B0E082A393A3A4A3B5A3F80145
:1035100086A197A1A0A5B1A5892B8A2B8B2B61F43D
:1035200082A193A1A4A1B5A1B695A79597958795DA
:1035300086A397A3A0A7B1A7F80182A593A5A4A5E8
:10354000B5A5892B8A2B8B2BA9F482A193A1A4A1C9
:10355000B5A1AC01BD0123E07695679557954795D8
:103560002A95D1F7841B950BA60BB70B82A793A7BF
:10357000A4A7B5A7F80186A197A1A0A5B1A586A784
:1035800097A7A0ABB1AB82A593A5A4A5B5A582AB27
:1035900093ABA4ABB5ABEE24E394F12C35CEF6E0BF
:1035A0008F1303C0D4011C922FCEBFEF3B122CCE41
:1035B000F401108229CE1F920F920FB60F921124A0
:1035C0002F933F938F939F93AF93BF9380911F034C
:1035D00090912003A0912103B091220330911E030A
:1035E00023E0230F2D3758F50196A11DB11D20931F
:1035F0001E0380931F0390932003A0932103B09395
:1036000022038091230390912403A0912503B0917C
:1036100026030196A11DB11D8093230390932403DB
:10362000A0932503B0932603BF91AF919F918F91F3
:103630003F912F910F900FBE0F901F90189526E885
:10364000230F0296A11DB11DD2CF1F920F920FB66C
:103650000F9211242F933F934F935F936F937F9318
:103660008F939F93AF93BF93EF93FF938AEB93E076
:103670000E944203FF91EF91BF91AF919F918F9173
:103680007F916F915F914F913F912F910F900FBE5E
:103690000F901F9018951F920F920FB60F92112442
:1036A0002F938F939F93EF93FF93E091CA03F09131
:1036B000CB038081E091D003F091D10382FD1BC048
:1036C00090818091D3038F5F8F732091D4038217F1
:1036D00041F0E091D303F0E0E654FC4F958F8093E6
:1036E000D303FF91EF919F918F912F910F900FBE78
:1036F0000F901F9018958081F4CFEAEBF3E01382CE
:10370000128288EE93E0A0E0B0E084839583A683E4
:10371000B78388E791E09183808385EC90E095877B
:10372000848784EC90E09787868780EC90E0918B8B
:10373000808B81EC90E0938B828B82EC90E0958B78
:10374000848B86EC90E0978B868B118E128E138E75
:10375000148EE7E5F4E08AE891E091838083128299
:10376000138214821582EDE5F4E091838083128246
:10377000138214821582E3E6F4E09183808312823F
:10378000138214821582E9E6F4E091838083128229
:10379000138214821582EFE6F4E091838083128213
:1037A000138214821582EBE7F4E091838083128206
:1037B000138214821582E5E7F4E0918380831282FC
:1037C000138214821582E1E8F4E0918380831282EF
:1037D000138214821582E7E8F4E0918380831282D9
:1037E000138214821582ECEAF4E0918380831282C2
:1037F000138214821582A9E9B4E022E015962C9375
:1038000015972BE016962C931697E0EBF0E0E491D9
:103810001796EC931797ECE9F0E0E4911896EC9387
:10382000189740E85EE360E070E01D964D935D936D
:103830006D937C935097E3E9F4E09183808380EC6F
:10384000828388EA838381E0848381EB8583EDE84A
:10385000F4E01382128280E991E09183808380E515
:1038600090E0958384830895CF93DF93CDB7DEB73F
:103870002F970FB6F894DEBF0FBECDBF789484B5F6
:10388000826084BD84B5816084BD85B5826085BD5C
:1038900085B5816085BD80916E00816080936E00EA
:1038A00010928100809181008260809381008091DC
:1038B000810081608093810080918000816080938D
:1038C00080008091B10084608093B1008091B0004D
:1038D00081608093B00080917A00846080937A0048
:1038E00080917A00826080937A0080917A00816072
:1038F00080937A0080917A00806880937A00109299
:10390000C100E091CA03F091CB0382E08083E09193
:10391000C603F091C7031082E091C803F091C90378
:103920008FEC80831092D203E091CE03F091CF030D
:1039300086E08083E091CC03F091CD0380818061AB
:103940008083E091CC03F091CD03808188608083F7
:10395000E091CC03F091CD03808180688083E09179
:10396000CC03F091CD0380818F7D808362E08091D4
:103970009E040E942A010E94B201605D7740810985
:1039800091096093A2047093A3048093A40490937C
:10399000A50487E38093AB040E945517892B41F45B
:1039A00062EB71E08AEB93E00E9492140E9455173B
:1039B0008DE894E00E94820A6AED71E08AEB93E060
:1039C0000E9407138AE891E09A8389831B821C82F4
:1039D0001D821E8280E591E00E948C0044E050E050
:1039E000BE016D5F7F4F8FE090E00E94F4056AEBAF
:1039F00073E0CE0101960E94621368EA71E08AEBDF
:103A000093E00E94071330E4A32E00E010E06DE87D
:103A100074E0CE0101960E949D0C8D85843008F0E3
:103A200064C168EE71E08AEB93E00E949214FF2477
:103A3000F394CE0101960E940307882309F445C13F
:103A4000CE0101960E946D0D892B99F3CE0101964E
:103A50000E948D0EE82E682F8AEB93E00E9464038B
:103A60008AE0E81283C1FF2011F30E94BE0188237F
:103A700041F080919F048C3009F462C048F48B308F
:103A800001F1C12CD12C90ECE92E9FE7F92E43C017
:103A900085518230B0F7B0909B046B2D70E0762F8B
:103AA000662766277F7780919C04682B90E080E0F2
:103AB0000E94D6202DEC3CEC4CEC5DE30E948D2165
:103AC0005BC060919B0470E090E080E00E94D62093
:103AD0002B013C01F0909C04F7FE0AC0AC019B0155
:103AE00060E070E080E89FEB0E94C31F2B013C0167
:103AF0006F2D6F7070E090E080E00E94D8202DEC78
:103B00003CEC4CEC5DE30E948D21A30192010E94EC
:103B1000C41F6B017C010E94BE01882351F080917B
:103B20009F048B3030F08D3080F18551823008F465
:103B3000E8C0412C512C80EC682E8FE7782E43C0D2
:103B4000B0909B046B2D70E090E080E00E94D62046
:103B50006B017C0160919C046F7070E090E080E0EC
:103B60000E94D8202DEC3CEC4CEC5DE30E948D21B2
:103B7000A70196010E94C41F6B017C01B7FECBCF49
:103B8000F7FAF094F7F8F094C6CF60919A0470E0D9
:103B900090E080E00E94D8202DEC3CEC4CEC5DE302
:103BA0000E948D212B013C016091990470E090E00E
:103BB00080E00E94D8209B01AC01C301B2010E94A9
:103BC000C41F2B013C01A0927C0080917A0080648C
:103BD00080937A0080917A0086FDFCCF80907800F7
:103BE0009090790063EF71E0CE0101960E949214EB
:103BF00063E072E0CE0101960E9492146BE172E0E4
:103C0000CE0101960E94921468EA71E0CE010196FD
:103C10000E9407136DE272E0CE0101960E94921499
:103C200064E372E0CE0101960E94921461E672E0B4
:103C3000CE0101960E94921468E672E0CE010196D0
:103C40000E949214A7019601C701B6010E94FA21B1
:103C5000811109C0A3019201C301B2010E94FA219E
:103C6000882309F460C062E872E0CE0101960E94E8
:103C7000921469ED72E0CE0101960E94071364016F
:103C8000990CEE08FF082AE0B701A601F7FE0DC067
:103C90006DE2CE0101960E94670544275527BA01BF
:103CA0004C195D096E097F092AE0CE0101960E9438
:103CB000161364ED72E0CE0101960E9492146AEF31
:103CC00072E0CE0101960E94921461E070E080E003
:103CD00090E00E948001CE0101960E94250769E0D4
:103CE00073E08AEB93E00E9492140115110509F428
:103CF0008ECE0E942E03882309F489CE0E940000F4
:103D000086CE6091990470919A047627672776276A
:103D100090E080E00E94D6202DEC3CEC4CEC5DE382
:103D20000E948D214ECF67EA72E0CE0101960E947B
:103D3000071322E0B701A601CE0101960E94AC1341
:103D400068EB72E0CE0101960E94921464EC72E07E
:103D5000CE0101960E94071322E0B301A201CE0119
:103D600001960E94AC1362ED72E07FCF8DE0E81601
:103D700009F45FCEF12C5DCE8F929F92AF92BF92ED
:103D8000CF92DF92EF92FF92CF93DF93EC016881A5
:103D900079818A819B81611571058105910521F4E5
:103DA00064E279ED8BE597E02DE133EF41E050E0FF
:103DB0000E94601F49015A019B01AC01A7EAB1E4CE
:103DC0000E947F1F6B017C01ACEEB4EFA501940152
:103DD0000E948D1FC60ED71EE81EF91EF7FE06C0F4
:103DE00081E0C81AD108E10880E8F80AC882D982BF
:103DF000EA82FB82C701B6019F77DF91CF91FF90E6
:103E0000EF90DF90CF90BF90AF909F908F900895EC
:103E10008F929F92AF92BF92CF92DF92EF92FF92DA
:103E2000609108017091090180910A0190910B0144
:103E3000611571058105910521F464E279ED8BE549
:103E400097E02DE133EF41E050E00E94601F49010F
:103E50005A019B01AC01A7EAB1E40E947F1F6B01EC
:103E60007C01ACEEB4EFA50194010E948D1FC60E3B
:103E7000D71EE81EF91EF7FE06C081E0C81AD10859
:103E8000E10880E8F80AC0920801D0920901E092A6
:103E90000A01F0920B01C701B6019F77FF90EF90E6
:103EA000DF90CF90BF90AF909F908F9008956093D8
:103EB00008017093090180930A0190930B01089502
:103EC000052E97FB1EF400940E94771F57FD07D024
:103ED0000E94921F07FC03D04EF40C94771F50955C
:103EE0004095309521953F4F4F4F5F4F08959095E6
:103EF0008095709561957F4F8F4F9F4F08950E94D9
:103F0000B41FA59F900DB49F900DA49F800D911D8F
:103F100011240895B7FF0C947F1F0E947F1F821BFE
:103F2000930B0895A1E21A2EAA1BBB1BFD010DC025
:103F3000AA1FBB1FEE1FFF1FA217B307E407F50759
:103F400020F0A21BB30BE40BF50B661F771F881F35
:103F5000991F1A9469F760957095809590959B01CB
:103F6000AC01BD01CF010895A29FB001B39FC00174
:103F7000A39F700D811D1124911DB29F700D811D95
:103F80001124911D08955058BB27AA270E94DB1FBA
:103F90000C944E210E94402138F00E94472120F0CD
:103FA00039F49F3F19F426F40C943D210EF4E0956A
:103FB000E7FB0C943721E92F0E945F2158F3BA17D1
:103FC000620773078407950720F079F4A6F50C942F
:103FD00081210EF4E0950B2EBA2FA02D0B01B90113
:103FE00090010C01CA01A0011124FF27591B99F06F
:103FF000593F50F4503E68F11A16F040A22F232F7B
:10400000342F4427585FF3CF469537952795A795CA
:10401000F0405395C9F77EF41F16BA0B620B730B71
:10402000840BBAF09150A1F0FF0FBB1F661F771FE2
:10403000881FC2F70EC0BA0F621F731F841F48F497
:10404000879577956795B795F7959E3F08F0B0CF20
:104050009395880F08F09927EE0F97958795089507
:104060000E94132108F481E008950E9449200C94D5
:104070004E210E94472158F00E94402140F029F42F
:104080005F3F29F00C94372151110C9482210C943C
:104090003D210E945F2168F39923B1F3552391F3E9
:1040A000951B550BBB27AA2762177307840738F0A7
:1040B0009F5F5F4F220F331F441FAA1FA9F335D004
:1040C0000E2E3AF0E0E832D091505040E695001CB8
:1040D000CAF72BD0FE2F29D0660F771F881FBB1F72
:1040E000261737074807AB07B0E809F0BB0B802D50
:1040F000BF01FF2793585F4F3AF09E3F510578F07C
:104100000C9437210C9482215F3FE4F3983ED4F362
:10411000869577956795B795F7959F5FC9F7880F4F
:10412000911D9695879597F90895E1E0660F771FA1
:10413000881FBB1F621773078407BA0720F0621B32
:10414000730B840BBA0BEE1F88F7E09508950E945D
:10415000672188F09F5798F0B92F9927B751B0F091
:10416000E1F0660F771F881F991F1AF0BA95C9F7FB
:1041700014C0B13091F00E948121B1E008950C94F7
:104180008121672F782F8827B85F39F0B93FCCF3AA
:10419000869577956795B395D9F73EF49095809578
:1041A000709561957F4F8F4F9F4F0895E89409C098
:1041B00097FB3EF490958095709561957F4F8F4F5A
:1041C0009F4F9923A9F0F92F96E9BB279395F69570
:1041D000879577956795B795F111F8CFFAF4BB0FEE
:1041E00011F460FF1BC06F5F7F4F8F4F9F4F16C052
:1041F000882311F096E911C0772321F09EE8872FDC
:10420000762F05C0662371F096E8862F70E060E097
:104210002AF09A95660F771F881FDAF7880F969510
:10422000879597F90895990F0008550FAA0BE0E8B4
:10423000FEEF16161706E807F907C0F01216130668
:10424000E407F50798F0621B730B840B950B39F4A8
:104250000A2661F0232B242B252B21F408950A260E
:1042600009F4A140A6958FEF811D811D089597F94E
:104270009F6780E870E060E008959FEF80EC08950C
:1042800000240A9416161706180609060895002435
:104290000A9412161306140605060895092E0394AF
:1042A000000C11F4882352F0BB0F40F4BF2B11F423
:1042B00060FF04C06F5F7F4F8F4F9F4F089557FD82
:1042C0009058440F551F59F05F3F71F04795880F84
:1042D00097FB991F61F09F3F79F08795089512161B
:1042E00013061406551FF2CF4695F1DF08C01616C7
:1042F00017061806991FF1CF869571056105089478
:104300000895E894BB2766277727CB0197F908958E
:104310000E94132108F48FEF08950E94A0210C94AD
:104320004E210E94402138F00E94472120F0952321
:1043300011F00C9437210C943D2111240C9482210E
:104340000E945F2170F3959FC1F3950F50E0551FB8
:10435000629FF001729FBB27F00DB11D639FAA27DA
:10436000F00DB11DAA1F649F6627B00DA11D661F29
:10437000829F2227B00DA11D621F739FB00DA11D4A
:10438000621F839FA00D611D221F749F3327A00D04
:10439000611D231F849F600D211D822F762F6A2FA0
:1043A00011249F5750409AF0F1F088234AF0EE0F05
:1043B000FF1FBB1F661F771F881F91505040A9F732
:1043C0009E3F510580F00C9437210C9482215F3F71
:1043D000E4F3983ED4F3869577956795B795F7956E
:1043E000E7959F5FC1F7FE2B880F911D96958795E6
:1043F00097F908950E941321880B990B0895692756
:10440000962769277827872778270895EE0FFF1FBB
:104410000590F491E02D09940F931F93CF93DF93B0
:104420008230910510F482E090E0E091B404F091C4
:10443000B50430E020E0B0E0A0E0309799F4211519
:10444000310509F44AC0281B390B24303105D8F551
:104450008A819B816115710589F1FB0193838283B8
:10446000FE0111C040815181028113814817590713
:10447000E0F04817590799F4109761F012960C93E1
:10448000129713961C933296CF01DF91CF911F9113
:104490000F9108950093B4041093B504F4CF21153F
:1044A000310551F04217530738F0A901DB019A0199
:1044B000BD01DF01F801C1CFEF01F9CF9093B50441
:1044C0008093B404CDCFFE01E20FF31F819391934B
:1044D0002250310939832883D7CF2091B2043091FB
:1044E000B304232B41F420910E0130910F0130933E
:1044F000B3042093B20420910C0130910D012115D9
:10450000310541F42DB73EB7409110015091110192
:10451000241B350BE091B204F091B304E217F307CA
:10452000A0F42E1B3F0B2817390778F0AC014E5F23
:104530005F4F2417350748F04E0F5F1F5093B304A9
:104540004093B204819391939FCFF0E0E0E09CCF41
:10455000CF93DF930097E9F0FC0132971382128228
:10456000A091B404B091B504ED0130E020E01097C3
:10457000A1F420813181820F931F2091B2043091E8
:10458000B3042817390709F061C0F093B304E0932E
:10459000B204DF91CF910895EA01CE17DF07E8F565
:1045A0004A815B819E0141155105B1F7E901FB8309
:1045B000EA8349915991C40FD51FEC17FD0761F4A7
:1045C000808191810296840F951FE90199838883E8
:1045D000828193819B838A83F0E0E0E012968D9143
:1045E0009C9113970097B9F52D913C911197CD01AE
:1045F0000296820F931F2091B2043091B3042817C2
:10460000390739F6309751F51092B5041092B40479
:10461000B093B304A093B204BCCFD383C2834081D0
:104620005181840F951FC817D90761F44E5F5F4F02
:1046300088819981480F591F518340838A819B81CA
:10464000938382832115310509F0B0CFF093B5042F
:10465000E093B4049ECFFD01DC01C0CF138212822F
:10466000D7CFFB01DC0104C08D910190801921F4AA
:1046700041505040C8F7881B990B0895DC0101C0D8
:104680006D9341505040E0F70895FB01DC0101902B
:104690000D920020E1F70895F894FFCF00C0DEAD41
:1046A000BEEFFEED010000000000B6048000010036
:1046B0005E000000000000006705F60B960B810B02
:1046C0006D0D8D0EED07DB097C12A70E2507030784
:1046D00090059805A6148D058B055C058105DA0EFD
:1046E000100FB00E7D05000000003005110CF10523
:1046F000DD00D900630EDE075D0AF308C4069A05E3
:1047000009125E074B0F440EE905D905D505D10501
:10471000000000006403C402F102B103220300039D
:1047200014030000000062130000000046051C0D89
:10473000F105F005820ADF066E616E00696E6600A3
:104740006F7666000D0A0057495A6E65740046611F
:10475000696C656420746F20636F6E66696775723B
:10476000652045746865726E6574207573696E673F
:104770002044484350005365727665722069732067
:10478000617420004E657720636C69656E74004823
:104790005454502F312E3120323030204F4B0043B3
:1047A0006F6E74656E742D547970653A20746578F7
:1047B000742F68746D6C00436F6E6E656374696FFF
:1047C0006E3A20636C6F7365003C68746D6C3E00DC
:1047D0003C686561643E3C7469746C653E53656E0B
:1047E000736F722044617368626F6172643C2F74EE
:1047F00069746C653E3C2F686561643E003C626F85
:1048000064793E003C68313E53656E736F7220449C
:10481000617368626F6172643C2F68313E003C7066
:104820003E4572726F722072656164696E672066C0
:10483000726F6D204448542073656E736F723C2F05
:10484000703E003C703E54656D70657261747572A7
:10485000653A200020266465673B433C2F703E008C
:104860003C703E48756D69646974793A2000202572
:104870003C2F703E003C703E4E6F697365204C6566
:1048800076656C2028506F74656E74696F6D657401
:104890006572293A20003C2F626F64793E3C2F6894
:1048A000746D6C3E00436C69656E7420646973635B
:0A48B0006F6E6E65637465640000AE
:107E0000112484B714BE81FFF0D085E080938100F7
:107E100082E08093C00088E18093C10086E0809377
:107E2000C20080E18093C4008EE0C9D0259A86E02C
:107E300020E33CEF91E0309385002093840096BBD3
:107E4000B09BFECF1D9AA8958150A9F7CC24DD24C4
:107E500088248394B5E0AB2EA1E19A2EF3E0BF2EE7
:107E6000A2D0813461F49FD0082FAFD0023811F036
:107E7000013811F484E001C083E08DD089C08234E0
:107E800011F484E103C0853419F485E0A6D080C0E4
:107E9000853579F488D0E82EFF2485D0082F10E0AE
:107EA000102F00270E291F29000F111F8ED06801E7
:107EB0006FC0863521F484E090D080E0DECF843638
:107EC00009F040C070D06FD0082F6DD080E0C81688
:107ED00080E7D80618F4F601B7BEE895C0E0D1E017
:107EE00062D089930C17E1F7F0E0CF16F0E7DF06D8
:107EF00018F0F601B7BEE89568D007B600FCFDCFD4
:107F0000A601A0E0B1E02C9130E011968C91119780
:107F100090E0982F8827822B932B1296FA010C0160
:107F200087BEE89511244E5F5F4FF1E0A038BF0790
:107F300051F7F601A7BEE89507B600FCFDCF97BE46
:107F4000E89526C08437B1F42ED02DD0F82E2BD052
:107F50003CD0F601EF2C8F010F5F1F4F84911BD097
:107F6000EA94F801C1F70894C11CD11CFA94CF0C13
:107F7000D11C0EC0853739F428D08EE10CD085E9AC
:107F80000AD08FE07ACF813511F488E018D01DD067
:107F900080E101D065CF982F8091C00085FFFCCF94
:107FA0009093C60008958091C00087FFFCCF809118
:107FB000C00084FD01C0A8958091C6000895E0E648
:107FC000F0E098E1908380830895EDDF803219F02E
:107FD00088E0F5DFFFCF84E1DECF1F93182FE3DFCA
:107FE0001150E9F7F2DF1F91089580E0E8DFEE27F6
:047FF000FF270994CA
:027FFE00040479
:00000001FF
