:100000000C9495010C94C6010C94C6010C94C60185
:100010000C94C6010C94C6010C94C6010C94C60144
:100020000C94C6010C94C6010C94C6010C94C60134
:100030000C94C6010C94C6010C94C6010C94C60124
:100040000C94C6010C94C6010C94C6010C94C60114
:100050000C94C6010C94C6010C94C6010C948C1C23
:100060000C94C6010C94001D0C94D61C0C94C60173
:100070000C94C6010C94C6010C94C6010C94C601E4
:100080000C94C6010C94C6010C94C6010C94C601D4
:100090000C94C6010C94C6010C94C6010C94C601C4
:1000A0000C94C6010C94C6010C94C6010C94C601B4
:1000B0000C94C6010C94C6010C94C6010C94C601A4
:1000C0000C94C6010C94C6010C94C6010C94C60194
:1000D0000C94C6010C94C6010C94C6010C94C60184
:1000E0000C94C6010C949E040C947A020C946B162A
:1000F0000C94CE130C94361D0C946D040C941211B8
:100100000C94C90B0C94D00E0C9480020C944004F7
:100110000C9476020C9467080C9470020C94AB0F4C
:100120000C943D070C9488020C94D0080C9474072E
:100130000C9489090C9409090C94A60E0C94B40B28
:100140000C9484020C9430070C9420070C942E0716
:100150000C9494070C94D6040C9490040C94870E81
:100160000C94D7100C94FF060C947C070C94C90FC8
:100170000C94A0100C948C070C94AE080C94EA0E0E
:100180000C9475100C94A0020C9478070C949602B1
:100190000C947C040C9482080C949C020C94440CE7
:1001A0000C9427150C943B070C9441140C944A02B0
:1001B0000C9492020C94580D0C94AF0D0C944F02B9
:1001C0000C94A60A0C9415020C9465020C946D0212
:1001D0000C9469020C94E9060C94D3060C948E02DC
:1001E0000C9493070C940A070C9461020C94240756
:1001F0000C9419020C9433070C9498090C94230561
:100200000C94F90F0C94290C00000A0B02090C0D38
:100210000E080703040100000000000000000000B9
:1002200000000000000000000000000000000000CE
:10023000000000001211100000000000000000008B
:1002400000000000000000000000000000000000AE
:1002500020002300260029002C002F00320000017E
:10026000000003010601090100002200250028000A
:100270002B002E00310034000201000005010801AE
:100280000B0100002100240027002A002D0030006F
:10029000330001010000040107010A0105050505FD
:1002A000070508080808020202020A0A08080404EE
:1002B000040401010101010101010303030303031C
:1002C0000303040707070C0C0C0C0C0C0C0C0202AB
:1002D000020206060606060606060B0B0B0B0B0BA8
:1002E0000B0B010210202008081020401020408035
:1002F00002010201080402010102040810204080EA
:100300008040201008040201800402018040201077
:1003100008040201080402010102040810204080C0
:100320000102040810204080361D11241FBECFEFAB
:10033000D1E2DEBFCDBF00E00CBF14E0A0E0B2E030
:10034000ECE5FAE400E00BBF02C007900D92AE317D
:10035000B107D9F725E0AEE1B4E001C01D92AA3D96
:10036000B207E1F711E0C5E9D1E000E006C021974E
:100370000109802FFE010E94DD23C439D10780E0EE
:100380000807A9F70E94ED1D0C942C250C94000081
:100390008CBD9DBD089520E3FC0120833296862FFD
:1003A00082958F706F706A3030F4605D6293682F51
:1003B0008111F5CF0895695CF9CFCF92DF92EF926A
:1003C000FF92CF93DF93B091C405A0E08111AB2FD2
:1003D0008091C50590E0880F991FAC01425B5D4F8D
:1003E000C090CA05D090CB05E090CC05F090CD052B
:1003F00030E020E0FA01C591D491E881B90190E0A4
:1004000080E0EB23EA130AC02F5F3F4F6C157D0598
:100410008E059F0578F36FEF7FEFCB01DF91CF91D2
:10042000FF90EF90DF90CF900895FC01818D928D29
:1004300008950895282F30E0F901E85FFD4F949169
:10044000F901EE51FD4F449124563D4FF90124919D
:10045000222309F435C0992311F191509231F8F417
:10046000E92FF0E08827E85CFD4F8F4F0C94DD23E7
:1004700069026D024A02610265024F027002760251
:100480007A028002840288028E0292024F02960251
:100490009C02A002809180008F7780938000E22FE1
:1004A000F0E0EE0FFF1FE859FD4FA591B4918FB713
:1004B000F894EC91611148C040954E234C938FBF46
:1004C0000895809180008F7DE8CF80918000877FA4
:1004D000E4CF84B58F7784BDE2CF84B58F7DFBCF29
:1004E0008091B0008F778093B000D9CF8091B00019
:1004F0008F7DF9CF809190008F7780939000CFCF40
:10050000809190008F7DF9CF80919000877FF5CF0B
:100510008091A0008F778093A000C1CF8091A00030
:100520008F7DF9CF8091A000877FF5CF809120014A
:100530008F7780932001B3CF809120018F7DF9CFF9
:1005400080912001877FF5CF4E2BB8CFCF93DF93DB
:1005500090E0FC01EE51FD4F249184569D4FFC012B
:1005600084918823D1F090E0880F991FFC01EE5709
:10057000FD4FA591B491FC01E859FD4FC591D4916F
:10058000623071F49FB7F8943C91822F8095832359
:100590008C93E8812E2B28839FBFDF91CF91089504
:1005A0008FB7F894EC912E2B2C938FBFF6CF3FB7DB
:1005B000F8948091230490912404A0912504B09193
:1005C000260426B5A89B05C02F3F19F00196A11D52
:1005D000B11D3FBFBA2FA92F982F8827BC01CD018D
:1005E000620F711D811D911D42E0660F771F881FEC
:1005F000991F4A95D1F708958F929F92AF92BF921B
:10060000CF92DF92EF92FF924B015C010E94D702E2
:100610006B017C010E94D7026C197D098E099F092C
:10062000683E734081059105A8F321E0821A910884
:10063000A108B10888EEC80E83E0D81EE11CF11CA9
:1006400081149104A104B10429F7FF90EF90DF9089
:10065000CF90BF90AF909F908F9008952FB7F89450
:1006600060911F04709120048091210490912204D4
:100670002FBF0895CF92DF92EF92FF920F931F93B7
:10068000CF93DF93CDB7DEB7C054D1400FB6F89407
:10069000DEBF0FBECDBF0E942E030091C605109194
:1006A000C7052091C8053091C9056B017C01C01AAE
:1006B000D10AE20AF30A97018601003D174021059D
:1006C000310590F48091CE05C05CDE4F0FB6F894F2
:1006D000DEBF0FBECDBFDF91CF911F910F91FF9075
:1006E000EF90DF90CF9008956093C6057093C70593
:1006F0008093C8059093C9051092C1051092C0055A
:100700001092BF051092BE051092BD0562E0809167
:10071000C2050E94A60261E070E080E090E00E94C5
:10072000FC0261E08091C2050E94A60260E0809117
:10073000C2050E941A028091C3058551823020F5BE
:100740008BE291E10197F1F762E08091C2050E948E
:10075000A6028091CF0590E08230910538F0880F95
:10076000991F880F991F05970197F1F7F89480E07A
:100770000E94DD016F3F7F4F8F4F9F4F61F41092BA
:10078000CE05789480E0A0CF64E170E080E090E056
:100790000E94FC02D9CF81E00E94DD016F3F7F4FB4
:1007A0008F4F9F4F61F38E010F5F1F4F6E012FEB35
:1007B000C21A2EEFD20A780180E00E94DD01F70113
:1007C000608371838283938381E00E94DD01F7015E
:1007D0006483758386839783F8E0EF0EF11CEC1435
:1007E000FD0451F7789430E020E0F801C080D1801A
:1007F000E280F3804481558166817781FFEFCF16D7
:10080000DF06EF06FF0631F04F3F8FEF580768070E
:10081000780719F41092CE05B5CFF90183E0F5956C
:10082000E7958A95E1F7E354FA4F8081880FC41663
:10083000D506E606F70610F180832F5F3F4F085F6D
:100840001F4F2832310589F64091C1052091BD0521
:100850008091BE05280F3327331F8091BF05280FD5
:10086000311D8091C005820F932F911D9927481744
:10087000190681F681E08093CE0526CF8160DCCF1A
:10088000AF92BF92CF92DF92EF92FF920F931F939E
:10089000CF93DF936C017B018B01040F151FEB01DC
:1008A0005E01AE18BF08C017D10759F06991D60193
:1008B000ED91FC910190F081E02DC6011995892BF5
:1008C00079F7C501DF91CF911F910F91FF90EF90C4
:1008D000DF90CF90BF90AF900895FC01538D448D71
:1008E000252F30E0842F90E0821B930B541710F0DB
:1008F000CF96089501970895FC01918D828D9817E8
:1009000061F0A28DAE0FBF2FB11D5D968C91928DBF
:100910009F5F9F73928F90E008958FEF9FEF0895F0
:10092000FC01918D828D981731F0828DE80FF11DB9
:10093000858D90E008958FEF9FEF0895FC01918DD4
:10094000228D892F90E0805C9F4F821B91098F73CD
:10095000992708958EED94E00E949E0421E0892B52
:1009600009F420E0822F0895FC01A48DA80FB92F6F
:10097000B11DA35ABF4F2C91848D90E001968F73C7
:100980009927848FA689B7892C93A089B1898C91E6
:10099000837080648C93938D848D981306C0028835
:1009A000F389E02D80818F7D80830895EF92FF92FF
:1009B0000F931F93CF93DF93EC0181E0888F9B8D82
:1009C0008C8D98131AC0E889F989808185FF15C03C
:1009D0009FB7F894EE89FF896083E889F98980815F
:1009E0008370806480839FBF81E090E0DF91CF912E
:1009F0001F910F91FF90EF900895F62E0B8D10E050
:100A00000F5F1F4F0F731127E02E8C8D8E110CC0BE
:100A10000FB607FCFACFE889F989808185FFF5CF09
:100A2000CE010E94B404F1CFEB8DEC0FFD2FF11D30
:100A3000E35AFF4FF0829FB7F8940B8FEA89FB8946
:100A400080818062CFCFCF93DF93EC01888D8823A4
:100A5000B9F0AA89BB89E889F9898C9185FD03C021
:100A6000808186FD0DC00FB607FCF7CF8C9185FF06
:100A7000F2CF808185FFEDCFCE010E94B404E9CF93
:100A8000DF91CF91089580E090E0892B29F00E94BA
:100A9000AA0481110E94000080E090E0892B49F0B7
:100AA00080E090E0892B29F00E94000081110E94D3
:100AB000000080E090E0892B49F080E090E0892BF5
:100AC00029F00E94000081110E94000080E090E067
:100AD000892B49F080E090E0892B29F00E940000EA
:100AE00081110C9400000895FC0120812EBD9B0112
:100AF0002150310941F051810DB407FEFDCF4EB5B3
:100B00005EBD4193F5CF61507109860F971F0DB4FB
:100B100007FEFDCF2EB5FC0120830895E0917004FF
:100B2000F0917104808190916F04892B80830895E6
:100B3000E0917004F0917104908180916F04809530
:100B40008923808308958EBD00000DB407FEFDCF7C
:100B50008EB50895AF92BF92CF92DF92EF92FF923F
:100B60000F931F93CF93DF9300D000D01F921F925B
:100B7000CDB7DEB78C017B016A01809173048333AA
:100B8000E1F45801A40EB51EA016B10609F46FC019
:100B90000E94980580EF0E94A305812F0E94A30563
:100BA000802F0E94A3050F5F1F4FF70181917F01E6
:100BB0000E94A3050E948E05E7CF5B01A40EB51E1F
:100BC0008433C1F40E94980519830A838D2D8068AF
:100BD0008B83CC8264E070E0CE0101960E947405A4
:100BE000AE14BF0409F441C0F70181917F010E9456
:100BF000A305F6CF0E9498050F3F110509F028F4D0
:100C000019820A8384E08B830CC017FD17C01982F8
:100C10000A8333E0169507953A95E1F7007E0C605C
:100C20000B8386E0C816D104A0F5F701DE01149607
:100C3000EA15FB0599F081918D93FACFC80126E062
:100C4000969587952A95E1F7807E19830A83011589
:100C5000104C10F48461D7CF8C61D5CFB6016D5F95
:100C60007F4FCE0101960E9474050E948E05C60139
:100C700028960FB6F894DEBF0FBECDBFDF91CF919F
:100C80001F910F91FF90EF90DF90CF90BF90AF90AA
:100C9000089563E070E0CE0101960E947405F701AB
:100CA00081917F010E94A305AE14BF04C1F7DDCF7F
:100CB000CF93DF931F92CDB7DEB7898341E050E039
:100CC000BE016F5F7F4F90E080E00E94AA050F9009
:100CD000DF91CF91089590E020917304233339F48C
:100CE0000C96982F990F990F990F80E008954896C8
:100CF000F8CFDA01E0917404F0E0FE2FEE27E60F62
:100D0000F71F90E0982F8827A901BD018E0F9F1F24
:100D10000C94AA05CF93DF931F921F92CDB7DEB735
:100D200079836A8322E030E0AE014F5F5F4F60E17C
:100D300070E00E9479060F900F90DF91CF91089597
:100D4000CF93DF931F921F92CDB7DEB779836A836B
:100D500022E030E0AE014F5F5F4F64E070E00E9440
:100D600079060F900F90DF91CF910895CF93DF9385
:100D70001F92CDB7DEB72091740430E0322F2227C6
:100D8000260F371F90E0982F8827498341E050E0D5
:100D9000BE016F5F7F4F820F931F0E94AA050F90C5
:100DA000DF91CF910895CF93DF931F92CDB7DEB738
:100DB0006983DC01ED91FC910280F381E02D41E03B
:100DC00050E0BE016F5F7F4F19950F90DF91CF917B
:100DD0000895CF93DF931F92CDB7DEB76983DC010F
:100DE000ED91FC910280F381E02D41E050E0BE01E5
:100DF0006F5F7F4F19950F90DF91CF910895FC01A0
:100E00009485FB018485981303C081E0983008F035
:100E100080E00895CF93DF931F92CDB7DEB769834B
:100E2000DC01ED91FC910280F381E02D41E050E086
:100E3000BE016F5F7F4F19950F90DF91CF9108959D
:100E4000FC01768765870895DC01ED91FC9102A095
:100E5000F3A1E02D199591E089270895862F089533
:100E600081E08627089521E0FC018485883008F020
:100E700020E0822F089508950895FF920F931F9305
:100E8000CF93DF93EB01FC01178A168A2A81211187
:100E900009C02B81211106C02C81211103C02D8195
:100EA000222301F141155105E9F08A01FC01F08C82
:100EB00080E591E00E94C801AE014E5F5F4F24E0E3
:100EC00030E06CE070E08F2D0E947906B8018F2D24
:100ED0000E948A0681E090E0DF91CF911F910F91EF
:100EE000FF90089580E0F7CFFC01848595850895F3
:100EF000FC018489958908952AE832E0FC01318358
:100F00002083FB014089518962897389FC014283F6
:100F10005383648375830895DC01ED91FC91048C07
:100F2000F58DE02D1994089590E080E00895AF923A
:100F3000BF92CF92DF92EF92FF920F931F93CF93C6
:100F4000DF9300D01F92CDB7DEB78C016B017A0121
:100F5000809173048333E9F45B016801C40ED51EEC
:100F6000C016D106A9F10E9498058FE00E94A30542
:100F7000812F0E94A305802F0E94A3050F5F1F4FA2
:100F800080E00E94A305F50181935F010E948E0518
:100F9000E7CF843369F50E94980519830A838F2D62
:100FA0008F778B83EC8264E070E0CE0101960E9423
:100FB0007405A70170E060E0C6010E941E25E114DF
:100FC000F10421F0B701C6010E9474050E948E054C
:100FD000C7010F900F900F900F90DF91CF911F914D
:100FE0000F91FF90EF90DF90CF90BF90AF9008955A
:100FF0000E9498050F3F110509F030F419820A8309
:101000001B8263E070E0D1CF17FD0BC019820A8309
:1010100033E0169507953A95E1F7007E08600B835B
:10102000F0CFC80126E0969587952A95E1F7807E56
:1010300019830A830115104C18F480618B83E1CF6A
:101040008861FCCFCF93DF931F92CDB7DEB720919D
:10105000740430E0322F2227260F371F90E0982F9C
:10106000882741E050E0BE016F5F7F4F820F931FE2
:101070000E94970789810F90DF91CF910895CF93B8
:10108000C82F462F61E070E00E94B60661E070E074
:101090008C2F0E9422088111F9CFCF910895CF9310
:1010A000C82F80E591E00E94C80168E070E08C2FB5
:1010B000CF910C943F08CF93C82F80E591E00E9418
:1010C000C80160E170E08C2FCF910C943F08CF9362
:1010D000DF93EC01888D883020F40E945B0888E063
:1010E000888FDF91CF91089563E070E00C9422081F
:1010F000CF93C82F80E591E00E94C8018C2FCF913B
:101100000C947408EF92FF920F931F93CF93DF9389
:101110007C0180917304D4E0833309F0D8E00FE5BB
:1011200014E0C0E0F801219131918F01F701848131
:1011300095812817390729F0CF5FDC13F3CF80E0C2
:1011400006C08C2F0E9478088431B1F781E0DF91CE
:10115000CF911F910F91FF90EF900895CF93DF9360
:10116000EC018C858830D0F40E947808843189F0B5
:10117000882379F0883169F021E08C3159F4E881D5
:10118000F9810084F185E02DCE01199521E0892BAC
:1011900009F420E0822FDF91CF91089580E0FBCF0A
:1011A000CF92DF92EF92FF92CF93DF93EC018C8589
:1011B000883068F40E944F080E942E036B017C0166
:1011C0008C850E947808811109C088E08C87DF91A6
:1011D000CF91FF90EF90DF90CF90089561E070E0A5
:1011E00080E090E00E94FC020E942E03AB01BC0153
:1011F0004C195D096E097F098D859E85B0E0A0E0E0
:10120000481759076A077B07D8F28C850E945B084C
:10121000DCCFCF93FC01C08D80E591E00E94C80136
:1012200060E270E08C2F0E943F0862E070E08C2F3B
:101230000E94220884FD16C062E070E08C2F0E949C
:10124000220883FF0AC048E162E070E08C2F0E9410
:10125000B60680E090E0CF91089580E591E00E948D
:10126000C801E3CF40E162E070E08C2F0E94B60637
:1012700081E0F0CFCF93DF931F92CDB7DEB741E08F
:1012800050E0BE016F5F7F4F90E080E00E949707C3
:1012900089810F90DF91CF910895CF93DF93C4E1BF
:1012A000D0E00E943A09882361F061E070E080E0BC
:1012B00090E00E94FC022197A1F780E0DF91CF919E
:1012C000089581E0FBCF1F93CF93DF931F92CDB79B
:1012D000DEB7182F80E591E00E94C801812F0E949F
:1012E0006B0627E0129FF0011124E95DFB4F22817C
:1012F0003381377041E050E0BE016F5F7F4F820F56
:10130000931F0E94970789810F90DF91CF911F91C2
:101310000895FC01808D883040F4218D328D232B7F
:1013200021F00E94630990E008958FEF9FEF0895E8
:10133000CF93DF93FC012485283028F08FEF9FEFB7
:10134000DF91CF910895EC010190F081E02D0084B0
:10135000F185E02D1995892B89F38C850E9463090D
:1013600090E0EECFDA01E0917404F0E0FE2FEE277A
:10137000E60FF71F90E0982F8827A901BD018E0F77
:101380009F1F0C9497078F929F92AF92BF92CF921C
:10139000DF92EF92FF920F931F93CF93DF93CDB71E
:1013A000DEB760970FB6F894DEBF0FBECDBF7C01ED
:1013B00090917304911115C018E0812F60960FB6BB
:1013C000F894DEBF0FBECDBFDF91CF911F910F917B
:1013D000FF90EF90DF90CF90BF90AF909F908F9055
:1013E000089508E0933309F404E06B0180E591E08F
:1013F0000E94C8019E012F5F3F4F5901490110E033
:10140000812F0E947408F40181934F018823C1F059
:101410001F5F0113F5CF00E0F50181915F018D3170
:1014200049F0883139F08A51823020F00F5F101373
:10143000F3CFC2CF60E170E0802F0E943F08102FF1
:10144000A12EB12CF501EE0FFF1FE15AFB4F1182C7
:10145000108283EE93E00197F1F742E870E060E0DC
:10146000812F0E94B6064FEF62E070E0812F0E944C
:10147000B606B601C114D10491F480910002909196
:10148000010201968115F0EC9F0708F45CC090936F
:101490000102809300026091000270910102812F8D
:1014A0000E94A00686E0E2E1F2E0DE0119960190DA
:1014B0000D928A95E1F7F70183818F778C8784817C
:1014C0008D8785818E87A7014E5F5F4F24E030E0D6
:1014D0006CE070E0812F0E947906B601812F0E9496
:1014E0008A0626E030E0AE01475F5F4F66E070E0BD
:1014F000812F0E94790661E070E0812F0E943F08F1
:1015000027E02A9DC0012B9D900D11249C01295D8F
:101510003B4F7901F9011182108222E030E0AE01E7
:10152000415F5F4F68E270E0812F0E94B2098F85B2
:101530009889982789279827F701938382831682B1
:10154000158214823ACF80E090ECA1CFCF92DF9247
:10155000EF92FF920F931F93CF93DF9300D000D0B1
:10156000CDB7DEB78C016B017A01FC01808D88302C
:1015700010F40E945B088AE892E09A838983F6015E
:1015800082819381A481B5818B839C83AD83BE834B
:10159000B701CE0101960E94C309F801808F8830FF
:1015A000A0F4F586E486128E118E81E026960FB6A1
:1015B000F894DEBF0FBECDBFDF91CF911F910F9189
:1015C000FF90EF90DF90CF90089580E0EFCF7F9273
:1015D0008F929F92AF92BF92CF92DF92EF92FF9243
:1015E0000F931F93CF93DF931F921F92CDB7DEB758
:1015F000782E8B014A01590122E030E0AE014F5FA5
:101600005F4F64E270E00E94B209E980FA80FE2434
:10161000EF24FE24E00EF11E970137704091730411
:10162000072D10E0433309F042C0085F1F4F102F11
:101630000027110F110F110FC901800F911F4733A0
:10164000C9F1A9014A0D5B1D4130584098F160E095
:1016500078E06B01C21AD30AA601B4010E94AA0560
:10166000A5014C195D09B4016C0D7D1DC8010E94D6
:10167000AA05EA0CFB1CF982EA8222E030E0AE0106
:101680004F5F5F4F64E270E0872D0E9479060F90F4
:101690000F90DF91CF911F910F91FF90EF90DF900E
:1016A000CF90BF90AF909F908F907F900895005FF4
:1016B0001F4FBDCFA501B401DACFEF92FF921F9368
:1016C000CF93DF931F921F92CDB7DEB7182F22E082
:1016D00030E0AE014F5F5F4F60E270E00E94B20900
:1016E000E980FA80FE24EF24FE2422E030E0AE01FF
:1016F0004F5F5F4F60E270E0812F0E94B2098981E5
:101700009A81982789279827E816F90689F487E0AF
:10171000189FF0011124E95DFB4FF582E482C701B7
:101720000F900F90DF91CF911F91FF90EF90089550
:101730007C01DBCF1F93CF93DF93182F80E591E0DF
:101740000E94C801812F0E945D0BEC01812F0E9435
:101750007408873121F08C3111F0D0E0C0E0CE0167
:10176000DF91CF911F910895CF93DF93EC018C858A
:10177000883060F40E947808873111F08C3131F4A0
:101780008C850E949A0B8115984088F3DF91CF9148
:101790000895FC018485883010F40C949A0B90E035
:1017A00080E00895CF92DF92EF92FF921F93CF9344
:1017B000DF93182F7B01EA014130584010F0C0E060
:1017C000D8E080E591E00E94C801812F0E945D0B66
:1017D0006C01812F0E947408873111F08C3121F542
:1017E000CC16DD0670F380E591E00E94C8019E01F1
:1017F000A70170E060E0812F0E94E70A60E270E0DC
:10180000812F0E943F0862E070E0812F0E94220831
:1018100084FD0DC0812F0E9474088823B9F080E5F3
:1018200091E00E94C801EFCFD0E0C0E0DCCF40E102
:1018300062E070E0812F0E94B606CE01DF91CF9169
:101840001F91FF90EF90DF90CF900895D0E0C0E01F
:10185000F4CF0F931F93CF93DF938C01EA01FC0128
:101860008485883048F40E94D20B892B39F481E0BA
:1018700090E0F80193838283D0E0C0E0CE01DF9155
:10188000CF911F910F9108959F92AF92BF92CF92E7
:10189000DF92EF92FF920F931F93CF93DF938C0110
:1018A0005B01942EE52EFC01C688D788F08C80E57C
:1018B00091E00E94C8018F2D0E945D0BC92DDE2D85
:1018C0008C179D0708F4EC019E01A501B6018F2D30
:1018D0000E94E70AF801868997898C0F9D1F978BD4
:1018E000868BCE01DF91CF911F910F91FF90EF90EA
:1018F000DF90CF90BF90AF909F900895FF920F938D
:101900001F93CF93DF931F921F92CDB7DEB7F82EB0
:1019100022E030E0AE014F5F5F4F66E270E00E9470
:10192000B20909811A8110270127102722E030E02F
:10193000AE014F5F5F4F66E270E08F2D0E94B209EB
:1019400089819A819827892798270817190749F4C8
:10195000C8010F900F90DF91CF911F910F91FF90D1
:1019600008958C01E3CF1F93CF93DF93182F87E067
:10197000189FE0011124C95DDB4F88819981009790
:1019800061F480E591E00E94C801812F0E947E0CE5
:101990002E81821B910999838883DF91CF911F91BA
:1019A00008959F92AF92BF92CF92DF92EF92FF92F3
:1019B0000F931F93CF93DF93EC017B01809173040E
:1019C000811121C01B821A8288EE93E0A0E0B0E072
:1019D0008C839D83AE83BF838CE192E0998388835F
:1019E00088E08C8788EE93E09E878D87CE01DF911B
:1019F000CF911F910F91FF90EF90DF90CF90BF900C
:101A0000AF909F90089534E0932E833311F028E037
:101A1000922E8FE5C82E84E0D82E10E098E0B92EE3
:101A2000A12CD6012D913D916D01F7018481958105
:101A30002817390791F4812F0E947808082F8731E1
:101A400011F08C3139F5812F0E94B30C892B59F597
:101A50000C3119F4812F0E944F081F5F9112E1CFC2
:101A6000A11008C0D701ED91FC910084F185E02D13
:101A7000C70119951B821A8288EE93E0A0E0B0E0BE
:101A80008C839D83AE83BF838CE192E099838883AE
:101A9000BC86A8CF843149F08111DFCFF60132979F
:101AA00011821082DACFB12ED8CFAA24A394D5CF39
:101AB0008F929F92AF92BF92CF92DF92EF92FF925E
:101AC0000F931F93CF93DF93CDB7DEB72F970FB64A
:101AD000F894DEBF0FBECDBF5C014B017A0180914F
:101AE00073048823C9F104E0833309F008E0B501E9
:101AF000CE0101960E94D10C8FE5C82E84E0D82E2D
:101B000010E0F601219131916F01F50184819581F9
:101B10002817390751F4812F0E947808873129F45A
:101B2000A701B401812F0E94D20B1F5F0113E9CFDF
:101B3000C7012F960FB6F894DEBF0FBECDBFDF9161
:101B4000CF911F910F91FF90EF90DF90CF90BF90BA
:101B5000AF909F908F900895F12CE12CE9CFFC017C
:101B60008485883010F40C94B30C90E080E00895E4
:101B70004F925F927F928F929F92AF92BF92CF923D
:101B8000DF92EF92FF920F931F93CF93DF931F92F9
:101B90001F92CDB7DEB7782E6B014A01A82EB12C6B
:101BA00027E0829FC0011124FC01E95DFB4F7F010A
:101BB0000081118180E591E00E94C8010815190596
:101BC00054F4872D0E947E0CF70126818C01021BA4
:101BD0001109118300830115110519F5872D0E9444
:101BE0007408843159F0882349F001E010E08C3109
:101BF00011F410E000E0119501951109C8010F9052
:101C00000F90DF91CF911F910F91FF90EF90DF9098
:101C1000CF90BF90AF909F908F907F905F904F90AC
:101C20000895801691060CF4840187E08A9DF001E6
:101C30008B9DF00D1124E95DFB4FE280F380C11410
:101C4000D10451F12701F7E05F22872D0E946B0636
:101C5000840D951D20917304273309F453C0980116
:101C6000240D351D2130384008F44CC020E038E008
:101C7000490184189508A401B6010E94970726011E
:101C8000480C591C6801C818D908872D0E946B069A
:101C9000A601B2010E949707E00EF11E87E08A9D1F
:101CA000F0018B9DF00D1124E95DFB4FF382E28280
:101CB00020813181201B310B318320838681800F6D
:101CC000912F911D8A3F910510F4232BF1F487E0A9
:101CD0008A9DF0018B9DF00D1124E95DFB4F16826A
:101CE000F982EA8222E030E0AE014F5F5F4F68E2A6
:101CF00070E0872D0E94790660E470E0872D0E94D5
:101D00003F087CCFA801B601C5CF868377CFCF939C
:101D1000DF93FC01218D328D2115310529F48FEFE0
:101D20009FEFDF91CF910895EC01808D421753070B
:101D300008F0A9010E94B80D1816190684F7298D1C
:101D40003A8D281B390B3A8F298FEBCF0F931F93B6
:101D5000CF93DF931F92CDB7DEB7FC01218D328D7B
:101D6000232B41F48FEF9FEF0F90DF91CF911F91C5
:101D70000F9108958C0141E050E0BE016F5F7F4FED
:101D8000FC01808D0E94B80D181619065CF7F80149
:101D9000818D928D0197928F818F898190E0E4CF20
:101DA000CF93DF931F92CDB7DEB741E050E0BE0185
:101DB0006F5F7F4FFC0184850E94B80D18161906CD
:101DC00034F4898190E00F90DF91CF9108958FEFE7
:101DD0009FEFF9CFFC018485883010F40C94B80D86
:101DE00090E080E008958F929F92AF92BF92CF9241
:101DF000DF92EF92FF920F931F93CF93DF9300D068
:101E000000D000D01F92CDB7DEB79091730491112E
:101E100015C018E0812F2A960FB6F894DEBF0FBECA
:101E2000CDBFDF91CF911F910F91FF90EF90DF9089
:101E3000CF90BF90AF909F908F90089528E0F22EA2
:101E4000933311F494E0F92E6B01082F80E591E0B3
:101E50000E94C8019E012F5F3F4F5901490110E0C8
:101E6000812F0E947408F40181934F018823C1F0EF
:101E70001F5FF112F5CFF12CF50191915F019D31BA
:101E800049F0983139F09A51923020F0F3941F11B3
:101E9000F3CFBFCF60E170E08F2D0E943F081F2D70
:101EA000E12EF12CF701EE0FFF1FE15AFB4F1182DB
:101EB000108283EE93E00197F1F7402F70E060E02D
:101EC000812F0E94B6064FEF62E070E0812F0E94E2
:101ED000B606B601CD2889F48091000290910102E6
:101EE00001968115F0EC9F0798F190930102809381
:101EF00000026091000270910102812F0E94A006F1
:101F000061E070E0812F0E943F0827E02E9DC00114
:101F10002F9D900D11249C01295D3B4F7901F90102
:101F20001182108222E030E0AE01475F5F4F68E22D
:101F300070E0812F0E94B20989859A8598278927A8
:101F40009827F7019383828316821582148262CFC9
:101F500080E090ECCACF0F931F93CF93DF93EC01F7
:101F60008B01888D883010F40E945B08B80182E0F4
:101F70000E94F30E888F883050F41D870C871A8ECC
:101F8000198E81E0DF91CF911F910F91089580E02C
:101F9000F9CF0F931F93CF938C01FC01648175815E
:101FA00081E20E94F30EC82F8830F8F480E591E0BA
:101FB0000E94C8018C2F0E947408833131F08C2F4D
:101FC000CF911F910F910C944F0862E070E08C2F1D
:101FD0000E943F08F80184819581EC2FF0E0EE0F1C
:101FE000FF1FE15AFB4F91838083CF911F910F9187
:101FF0000895CF92DF92EF92FF921F93CF93DF93DA
:10200000EC017B016A018C85883048F40E947808D5
:10201000882319F08C850E944F0888E08C87F7018F
:1020200082819381A481B5810097A105B10551F406
:1020300090E080E0DF91CF911F91FF90EF90DF90D3
:10204000CF9008958F3F9F4FAF4FBF4F89F370E000
:1020500060E081E20E94F30E182F8C87883040F7F1
:1020600080E591E00E94C801A7014E5F5F4F24E028
:1020700030E06CE070E0812F0E947906B601812F7C
:102080000E948A0664E070E0812F0E943F080E944F
:102090002E036B017C018C850E947808873111F139
:1020A0008C3101F1882321F20E942E03AB01BC0187
:1020B0004C195D096E097F098D859E85B0E0A0E011
:1020C00084179507A607B70738F061E070E080E055
:1020D00090E00E94FC02DFCF8C850E945B0888E0C4
:1020E0008C87A6CF81E090E0A5CF0F931F93CF936D
:1020F000DF931F921F92CDB7DEB7FC0124852830F5
:10210000E0F48C0180E591E00E94C80122E030E01B
:10211000AE014F5F5F4F60E170E0F80184850E947F
:10212000B20989819A819827892798270F900F9063
:10213000DF91CF911F910F91089590E080E0F6CF4D
:102140000F931F93CF93DF931F921F92CDB7DEB7EC
:10215000FC0124852830E0F48C0180E591E00E94A8
:10216000C80122E030E0AE014F5F5F4F64E070E0F5
:10217000F80184850E94B20989819A81982789276C
:1021800098270F900F90DF91CF911F910F91089595
:1021900090E080E0F6CFDC018AE892E08D939D9399
:1021A00084E0FB0101900D928A95E1F70895EF928A
:1021B000FF920F931F93CF93DF9300D01F92CDB761
:1021C000DEB78C017B01FB0184858830A8F08AE8AA
:1021D00092E0F80191838083128213821482158227
:1021E000C8010F900F900F900F90DF91CF911F912A
:1021F0000F91FF90EF90089580E591E00E94C80153
:1022000024E030E0AE014F5F5F4F6CE070E0F7011B
:1022100084850E94B209BE016F5F7F4FC8010E9492
:10222000CB10DECF0F931F93CF93DF9300D000D05E
:102230001F921F92CDB7DEB78C01D80159964D91F0
:102240005C915A974115510551F0ED91FC91048C28
:10225000F58DE02D70E060E0C8011995EECFF80132
:10226000808D0E94B30C892BB1F148E050E0BE0193
:102270006F5F7F4FD80158968C910E94B80D181649
:102280001906F4F4D801509684E0FE0131960190CD
:102290000D928A95E1F78D8190E0982F88272E8105
:1022A000820F911DF801958B848B8F81282F30E050
:1022B000322F22278885820F932F911D928F818F35
:1022C00028960FB6F894DEBF0FBECDBFDF91CF9139
:1022D0001F910F91089590E080E0F2CF4F925F92AE
:1022E0006F927F928F929F92AF92BF92CF92DF9226
:1022F000EF92FF920F931F93CF93DF93CDB7DEB78B
:1023000063970FB6F894DEBF0FBECDBF7C016B01A3
:102310003A01FB0120E090E080E06AE03191332354
:1023200009F461C040ED430F4A3008F04DC0689F8A
:10233000A001699F500D1124CA01C097830F911D00
:1023400037FD9A958F3F910549F340F3F70142819C
:102350005381648175818091A7059091A805A09112
:10236000A905B091AA05481759076A077B0709F420
:102370000DC28701085F1F4F0E942E036F707727E1
:102380007C5FC8010E94AB0F813009F004C28AE86B
:1023900092E09A838983F70182819381A481B58138
:1023A0008B839C83AD83BE8345E350E0BE016F5FAA
:1023B0007F4FC8010E943D07892BA9F5D12CC12C64
:1023C000C8010E94670817C03E3209F0BFCF233012
:1023D00009F4BCCFD301A20FB11D12968C932F5FCD
:1023E00090E080E09BCF233009F0B0CFF3018583EC
:1023F000CC24C394D12CC60163960FB6F894DEBFEB
:102400000FBECDBFDF91CF911F910F91FF90EF9045
:10241000DF90CF90BF90AF909F908F907F906F9004
:102420005F904F9008950E942E03F7017783668393
:1024300042E050E0B7016A5F7F4FC8010E94440C40
:1024400081E090E09A83898342E050E0BE016F5FB3
:102450007F4FC8010E94440C80E091E09A838983F9
:1024600042E050E0BE016F5F7F4FC8010E94440C04
:102470001A82198242E050E0BE016F5F7F4FC801AF
:102480000E94440C42E050E0BE016F5F7F4FC801E4
:102490000E94440C42E050E0BE016F5F7F4FC801D4
:1024A0000E94440C5601F6018081882301F16501E8
:1024B000F60181912F01882311F08E32B1F446018B
:1024C0008A189B081814190474F48D8641E050E0B2
:1024D000BE01635F7F4FC8010E94440CA401B50197
:1024E000C8010E94440C5201DECF6201E1CF1D867B
:1024F00041E050E0BE01635F7F4FC8010E94440C81
:10250000C12CDD24D394DA82C98242E050E0BE01BE
:102510006F5F7F4FC8010E94440CDA82C98242E09B
:1025200050E0BE016F5F7F4FC8010E94440CC8019C
:102530000E940909892B09F441CFF3E0AF2EB12C99
:10254000230122E0420E511CD4C0F7014281538185
:1025500064817581808D918DA28DB38D4817590747
:102560006A077B0709F008C1848D958DC59709F02E
:1025700003C181A192A15DEFC52EDD24DA940C97F1
:102580000CF4ADC04CE050E0BE016F5F7F4FC8015E
:102590000E94870E8B819C819827892798279A8B88
:1025A000898BF7014681578129813A814217530768
:1025B00009F0E7C097FFE5C08F7092703BEFC32E24
:1025C000DD24DA94892B09F08AC06F807884762420
:1025D000672476242AEFC22EDD24DA946114710474
:1025E00009F47DC0D12CC12C8D819E81982789272B
:1025F0009827C816D906F8F441E050E0BE01635FA1
:102600007F4FC8010E94870E4D85442331F050E072
:1026100070E060E0C8010E94870E8D858111ECCFCB
:1026200044E050E070E060E0C8010E94870EFFEFD8
:10263000CF1ADF0AD9CF912C812C41E050E0BE01A6
:102640006D5E7F4FC8010E94870E4B89842F807C6E
:1026500009F06CC0442331F050E070E060E0C80144
:102660000E94870E8B898111E8CF42E050E0BE01C5
:10267000615F7F4FC8010E94870E42E050E0BE01BB
:10268000635F7F4FC8010E94870E44E050E070E016
:1026900060E0C8010E94870E42E050E0BE016F5E1C
:1026A0007F4FC8010E94870E8F85988949895A8972
:1026B0008115914009F043C0CD84DE84DC24CD2413
:1026C000DC2481E0C816D104D1F54115544009F04D
:1026D0004AC044E050E0B201C8010E94870E21E0E8
:1026E000A21AB10809F46CCEFFEFCF16DF0609F08D
:1026F00067CE0E942E033B014C01C8010E941211BB
:10270000181619060CF421CF0E942E0366197709BA
:1027100088099909693873418105910548F562E393
:1027200070E080E090E00E94FC02E7CF41E050E0E2
:1027300070E060E0C8010E94870E1B8A93CF542787
:102740004527542770E060E0C8010E94870EFFEF24
:102750008F1A9F0A6814790409F06FCF96EFC92E7B
:10276000DD24DA94BCCFE7EFCE2EDD24DA94B7CFA8
:10277000CC24CA94DC2CB3CF6EEFC62EDD24DA94C1
:10278000AECF4CEFC42EDD24DA94A9CF8EEFC82E45
:10279000DD24DA9430CED12CC12C2DCECF92DF9215
:1027A000EF92FF920F931F93CF93DF93CDB7DEB7D6
:1027B000AF970FB6F894DEBF0FBECDBF7C016A01A4
:1027C0000AE812E01A8309831C861B8688EE93E0D0
:1027D000A0E0B0E08D879E87AF87B88B8EE492E053
:1027E0009A878987188F0F8B198E1A8E1B8E1C8ED5
:1027F00088E089A31BA70AA71CA61DA61EA61FA6C4
:1028000080919B0590919C05A0919D05B0919E059E
:102810008EA39FA3A8A7B9A78B839C83AD83BE83F8
:1028200018861F82AE01465D5F4FCE0101960E9461
:102830006E1181309105B1F4D701ED91FC910488BE
:10284000F589E02D1DA30CA38CA59DA5AEA5BFA564
:102850008EA39FA3A8A7B9A7A601BE016C5D7F4F59
:10286000C7011995AF960FB6F894DEBF0FBECDBF66
:10287000DF91CF911F910F91FF90EF90DF90CF905C
:102880000895CF92DF92EF92FF920F931F93CF9311
:10289000DF93CDB7DEB7AF970FB6F894DEBF0FBEAC
:1028A000CDBF8C016B017A018AE892E09A8389831B
:1028B0001B821C821D821E821C861B8648EE53E0F2
:1028C00060E070E04D875E876F87788B2EE432E0A2
:1028D0003A872987988F8F8B198E1A8E1B8E1C8EA4
:1028E00028E029A39BA78AA71CA61DA61EA61FA693
:1028F000D8011C968C91883060F40E947808882357
:1029000021F0F80184850E944F0888E0D8011C96C8
:102910008C9380919B0590919C05A0919D05B09111
:102920009E058EA39FA3A8A7B9A78B839C83AD8385
:10293000BE8318861F82AE01465D5F4FB601CE0191
:1029400001960E946E110097C1F0D801ED91FC91A3
:102950000684F785E02D8AE892E09DA38CA38CA5E0
:102960009DA5AEA5BFA58EA39FA3A8A7B9A7A701A4
:10297000BE016C5D7F4FC8011995AF960FB6F894F4
:10298000DEBF0FBECDBFDF91CF911F910F91FF90A2
:10299000EF90DF90CF900895FB0101900020E9F7C0
:1029A0003197AF01461B570BDC01ED91FC91028082
:1029B000F381E02D19948F929F92AF92BF92EF9284
:1029C000FF920F931F93CF93DF93CDB7DEB7A197FD
:1029D0000FB6F894DEBF0FBECDBF7C01FA01CB016C
:1029E00019A2223008F42AE08E010F5D1F4F822EBB
:1029F000912CB12CA12CBF01A50194010E94702142
:102A0000F901CA016A300CF5605DD8016E938D0141
:102A1000232B242B252B79F790E080E0109721F0D1
:102A2000BD01C7010E94CC14A1960FB6F894DEBF79
:102A30000FBECDBFDF91CF911F910F91FF90EF900F
:102A4000BF90AF909F908F900895695CDECF8F927A
:102A50009F92AF92BF92CF92DF92EF92FF920F932D
:102A60001F93CF93DF937C01EB016C0182E0C80ED2
:102A7000D11C4701E5E08E0E911C10E000E0F6014C
:102A800041916F0150E070E060E02AE0CE010E94C9
:102A9000DB145C01E881F9810190F081E02D6EE2A8
:102AA000CE0119958A0D9B1D080F191FC814D90452
:102AB00031F7F701458150E070E060E02AE0CE0197
:102AC0000E94DB14800F911FDF91CF911F910F9116
:102AD000FF90EF90DF90CF90BF90AF909F908F903E
:102AE00008952F923F924F925F926F927F928F92B2
:102AF0009F92AF92BF92CF92DF92EF92FF921F937D
:102B0000CF93DF93EC016A017B01722EAB0196013A
:102B1000CB01B6010E94D8236CE972E0811126C076
:102B200046015701E894B7F82FEF3FEF4FE75FE713
:102B3000C501B4010E94D82381110CC02FEF3FEFD3
:102B40004FE75FE7C501B4010E940E2260EA72E020
:102B5000181664F02FEF3FEF4FE75FE4C701B601AF
:102B60000E9466231816B4F464EA72E0CE01DF9185
:102B7000CF911F91FF90EF90DF90CF90BF90AF90DB
:102B80009F908F907F906F905F904F903F902F908D
:102B90000C94CC142FEF3FEF4FE75FECC701B60169
:102BA0000E940E2287FDE0CF20E030E0A901C7019E
:102BB000B6010E940E22312C212C87FF09C06DE244
:102BC000CE010E940A071C01F7FAF094F7F8F0947E
:102BD00010E060E070E080E09FE3711641F020E0DB
:102BE00030E040E251E40E9413221F5FF6CFA701BC
:102BF00096010E94A2212B013C010E9485224B01DB
:102C00005C012AE0BC01A401CE010E94DB147C011E
:102C1000E20CF31C1123C1F1C501B4010E94B422DE
:102C20009B01AC01C301B2010E94A1214B015C01D7
:102C30006EE2CE010E940A07E80EF91E115020F143
:102C400020E030E040E251E4C501B4010E946B2372
:102C50002B013C010E9485224B01B12CA12C2AE0C2
:102C6000B501A401CE010E94DB14E80EF91EC501D6
:102C7000B4010E94B4229B01AC01C301B2010E94C5
:102C8000A1214B015C01DACFC701DF91CF911F91E8
:102C9000FF90EF90DF90CF90BF90AF909F908F907C
:102CA0007F906F905F904F903F902F9008950F937B
:102CB0001F93CF93DF93EC010E94CC148C0168EA40
:102CC00072E0CE010E94CC14800F911FDF91CF9152
:102CD0001F910F9108950C9488243F924F925F9218
:102CE0006F927F928F929F92AF92BF92CF92DF921C
:102CF000EF92FF920F931F93CF93DF93CDB7DEB781
:102D0000EA970FB6F894DEBF0FBECDBF7C012A0153
:102D10003B0169010E942E034B015C0187010D5BA1
:102D20001F4FC8010E941211181619069CF00E942C
:102D30002E03681979098A099B0946165706680601
:102D4000790608F466C162E370E080E090E00E94DA
:102D5000FC02E7CF42E250E0BE016F5F7F4FC80147
:102D60000E94870E89818230D1F0312C832DEA9622
:102D70000FB6F894DEBF0FBECDBFDF91CF911F918C
:102D80000F91FF90EF90DF90CF90BF90AF909F900A
:102D90008F907F906F905F904F903F900895F801D3
:102DA000848995898334910501F76D817E818F81B6
:102DB00098850E94E5234B015C01F6018082918297
:102DC000A282B38246E050E0B701685F7F4FCE0138
:102DD0004D960E941125892B41F6F7018081918142
:102DE000A281B38188169906AA06BB0608F4BDCF56
:102DF00084819581A681B78188159905AA05BB05AF
:102E000008F4B3CF89899A89AB89BC89868797876B
:102E1000A08BB18B4EEC50E070E060E0C8010E94E6
:102E2000870E312CC701829698AB8FA7F701B69613
:102E3000FAABE9AB08969CAB8BAB67019AE1C90E84
:102E4000D11CBD96FEABEDABC701429698AF8FABE0
:102E5000FD97FAAFE9AF4701FEE18F0E911CF80133
:102E6000818D928D181619060CF080CFC8010E9432
:102E7000A60E8333910509F4B2C014F58130910593
:102E800009F464C044F4892B51F3C8010E94A60ED2
:102E9000AC01552775C08330910509F462C00697CF
:102EA000A1F7C8010E94A60EB82E44E050E0B4017C
:102EB000C8010E94870EEB2DE450FF0BAF0160C0EC
:102EC0008A33910509F45FC084F585339105B1F12A
:102ED000C697D9F6C8010E94A60E5C01B601CE01C4
:102EE00089960E94CB108BA59CA5ADA5BEA5892B6C
:102EF0008A2B8B2BB1F0EDA9FEA940805180628016
:102F00007380B601CE0183960E94CB108DA19EA145
:102F1000AFA1B8A5A501481659066A067B0609F0B7
:102F2000B8CF44E050E0B60118C08B33910509F4E6
:102F300040C08F3F910509F492CFA7CFC8010E94EE
:102F4000A60EC8010E94A60E382E89CFC8010E9485
:102F5000A60E44E050E06FA978ADC8010E94870E2C
:102F60007ECFC8010E94A60EB82E44E050E069ADA5
:102F70007AADC8010E94870E8B2D8450990BAC014D
:102F800070E060E0EACFC8010E94A60E44E050E085
:102F900069A97AA9C8010E94870EF70166A177A1E5
:102FA00080A591A50E94E52366A377A380A791A79A
:102FB00056CFC8010E94A60E44E050E06BA97CA940
:102FC000C8010E94870EF70162A573A584A595A587
:102FD0000E94E52362A773A784A795A740CFC801E5
:102FE0000E94A60E44E050E06FA578A9C8010E9497
:102FF000870EF70162A173A184A195A10E94E52328
:1030000062A373A384A395A366A777A780AB91ABB4
:1030100026CF33243A94AACE7F928F929F92AF927A
:10302000BF92CF92DF92EF92FF920F931F93CF93B5
:10303000DF93CDB7DEB7A6970FB6F894DEBF0FBE0D
:10304000CDBF8C01762E942E852E20E2A22ECE01AD
:1030500001967C01DC01EA2D1D92EA95E9F76801F1
:10306000F3E4CF0ED11C8AE892E09AA389A38FEFF4
:103070008BA38CA38DA38EA343E450E0BE016F5DB0
:103080007F4FC6010E943D07019609F4BFC081E051
:1030900089838A8386E0B82EBB821C82D80114966D
:1030A0006D917D918D919C9117970E94E5236D8381
:1030B0007E838F83988789869A8680E890E09C87B4
:1030C0008B874CE150E0B701C6010E94440CFE0121
:1030D00037968AE1DF011D928A95E9F74801B8E049
:1030E0008B0E911CF401D70101900D92BA94E1F777
:1030F00040E150E0B701C6010E94440CF701119273
:10310000AA94E9F796E0A92EB12C40E250E0B7016D
:10311000C6010E94440CF1E0AF1AB108B1F783E692
:10312000898392E89A8393E59B838C8385E38D83DF
:1031300081E08E837F829DE3988797E099878A87D5
:1031400086E0F401DE011B9601900D928A95E1F76D
:103150008CE0898B8A8B6BEA72E0CE0143960E94E9
:103160002525D8011B966C91CE0149960E94CB0172
:10317000F8016485CE014B960E94CB01D8011D96C3
:103180006C91CE014D960E94CB014EE150E0B7010B
:10319000C6010E94440CB3E07B121EC082E3898307
:1031A00084E08A83F80196859B8397859C83908928
:1031B0009D8391899E8396E39F838887828D8987EB
:1031C000838D8A87848D8B87858D8C874CE050E03A
:1031D000B701C6010E94440C87E3898386E08A8395
:1031E00091E09B8393E09C838D838FE08E838AE3C1
:1031F0008F838BE388878FEF898749E050E0B701A1
:10320000C6010E94440CC6010E940909A6960FB689
:10321000F894DEBF0FBECDBFDF91CF911F910F910C
:10322000FF90EF90DF90CF90BF90AF909F908F90E6
:103230007F9008952F923F924F925F926F927F926C
:103240008F929F92AF92BF92CF92DF92EF92FF92B6
:103250000F931F93CF93DF9300D000D000D01F9225
:10326000CDB7DEB78091D60481112AC01092BE047A
:103270001092BD0488EE93E0A0E0B0E08093BF041C
:103280009093C004A093C104B093C2048EE492E072
:103290009093BC048093BB048AE892E09093CA04A4
:1032A0008093C9041092CB041092CC041092CD04E8
:1032B0001092CE0488E08093D30481E08093D604FA
:1032C00088E794E090937704809376048091750466
:1032D00081119BC060E372E080E090E00E94FC02FC
:1032E0001FB7F89480917204811127C0E1EDF2E0DC
:1032F0008491E7E1F3E09491E82FF0E0EE0FFF1FF7
:10330000EE57FD4FA591B491EC91E92321F461E0D2
:1033100085E30E941A0261E085E30E94A6028CB553
:1033200080618CBD8CB580648CBD61E084E30E94BB
:10333000A60261E083E30E94A602809172048F5F7F
:10334000809372041FBFE6EAF2E0E491F0E0EE0F32
:10335000FF1FE859FD4F85919491909371048093DC
:103360007004ECEEF2E0E491E0936F0461E08AE037
:103370000E94A6020E948E0580E591E00E94C8018D
:1033800084E38093730480E80E9458060E944D09EC
:10339000882309F476C188E00E9458060E943A0901
:1033A000883009F06EC180E10E9458060E943A09F7
:1033B000803109F066C180E00E9458060E943A09F7
:1033C000182F81115EC141E050E0BE016F5F7F4F59
:1033D0008FE190E00E9497078981833009F051C105
:1033E00080E48093740442E06EE170E0812F0E94DB
:1033F000B60642E06FE170E0812F0E94B6061F5FC3
:10340000183089F781E08093750480E591E00E948F
:10341000C80146E050E062E072E089E090E00E947E
:10342000AA058AE892E09A8389831B821C821D8206
:103430001E8244E050E0BE016D5F7F4F8FE090E060
:103440000E94AA050091760410917704D801929603
:103450001D921D921D921C929597F80116A217A21B
:1034600010A611A69A961D921D921D921C929D97D0
:1034700080E69AEEA0E0B0E086AB97ABA0AFB1AF2C
:1034800080EA9FE0A0E0B0E082AF93AFA4AFB5AF19
:103490003E9684E1DF011D928A95E9F786E0E2E03D
:1034A000F2E0D801189601900D928A95E1F7480153
:1034B000B2E48B0E911CF40110820E94E6202FECE6
:1034C00037E040E050E00E943E21DC01CB01019654
:1034D000A11DB11DF80184839583A683B7838083E2
:1034E0009183A283B383C8018D5B9F4F9A8789879D
:1034F0000E94670864E470E089859A850E94AB0F9A
:10350000882309F427C10E942E032B013C0148EEB9
:10351000A42E43E0B42EC12CD12C52E0252EF12C48
:10352000E12CD4018C918330B1F181112FC1F801CC
:1035300084819581A681B7810196A11DB11D8483E7
:103540009583A683B7830E942E03641975098609A3
:103550009709A60195010E947021A90161E0C801A7
:103560000E940C1881E0D4018C93F1E0EF16F10475
:10357000C1F20E942E036419750986099709D801C2
:10358000D6962D913D914D915C91D997261737078D
:103590004807590720F689859A850E946708F8012F
:1035A00084819581A681B7810196A11DB11D848377
:1035B0009583A683B7830E942E03F801FE9660834D
:1035C000718382839383F1E0EF16F10409F0C2C0A6
:1035D00080E591E00E94C801009176041091770483
:1035E000B801625F7F4FCE0101960E94CB1044E08C
:1035F00050E0BE016D5F7F4F8FE090E00E94AA0512
:10360000B8016A5E7F4FCE0101960E94CB1044E064
:1036100050E0BE016D5F7F4F81E090E00E94AA05FF
:10362000B8016E5E7F4FCE0101960E94CB1044E040
:1036300050E0BE016D5F7F4F85E090E00E94AA05DB
:10364000B801625E7F4FCE0101960E94CB108B8144
:103650009C81AD81BE8180939B0590939C05A09336
:103660009D05B0939E050E94D7027F738091000252
:1036700090910102682779277093010260930002FC
:103680006BC087E38093730480E80E9458060E9411
:103690004D09882329F188E00E9458060E943A09C2
:1036A0008830F1F480E10E9458060E943A09182FF0
:1036B0008031B1F480E00E9458060E943A098111DD
:1036C0000FC041E050E0BE016F5F7F4F89E390E0A3
:1036D0000E9497078981843019F41093740492CE64
:1036E00083E38093730480E80E9458060E944D098A
:1036F000882371F180E10E9458060E943A098031C6
:1037000039F582E10E9458060E943A09823101F59A
:1037100080E00E9458060E943A09811119C084E095
:103720008093740415E5188741E050E0BE01685F9E
:103730007F4F8BE190E00E94AA051F8341E050E09B
:10374000BE01695F7F4F8AE190E00E94AA055ACED0
:1037500010927304F12CE12CC7012A960FB6F8944D
:10376000DEBF0FBECDBFDF91CF911F910F91FF90B4
:10377000EF90DF90CF90BF90AF909F908F907F9011
:103780006F905F904F903F902F9008958430F1F4A8
:10379000F80184819581A681B7810196A11DB11D93
:1037A00084839583A683B7830E942E0364197509C9
:1037B00086099709A60195010E947021A90163E07D
:1037C000C8010E940C18D4012C92CFCE813051F543
:1037D000F80142AD53AD64AD75AD9E012F5F3F4F13
:1037E000C8010E946D16382EF2E08F138FC08981B8
:1037F0009A81AB81BC81F80184839583A683B783CA
:103800000E942E036419750986099709A60195017E
:103810000E947021A90163E0C8010E940C18D40124
:103820003C92A3CE823009F0A0CEF80142AD53AD58
:1038300064AD75AD9E012F5F3F4FC8010E946D16AC
:10384000382EF5E08F135CC0E3E0D401EC93F8016F
:1038500082A193A1A4A1B5A1892B8A2B8B2B41F422
:1038600084E893E0A0E0B0E082A393A3A4A3B5A36F
:10387000F80186A197A1A0A5B1A5892B8A2B8B2B36
:1038800061F482A193A1A4A1B5A1B695A79597953E
:10389000879586A397A3A0A7B1A7F80182A593A5B2
:1038A000A4A5B5A5892B8A2B8B2BA9F482A193A162
:1038B000A4A1B5A1AC01BD0123E07695679557950C
:1038C00047952A95D1F7841B950BA60BB70B82A7BA
:1038D00093A7A4A7B5A7F80186A197A1A0A5B1A514
:1038E00086A797A7A0ABB1AB82A593A5A4A5B5A5C4
:1038F00082AB93ABA4ABB5ABEE24E394F12C35CE05
:10390000F6E08F1303C0D4011C922FCEBFEF3B1201
:103910002CCEF401108229CE1F920F920FB60F9277
:1039200011242F933F938F939F93AF93BF938091D5
:103930001F0490912004A0912104B09122043091A1
:103940001E0423E0230F2D3758F50196A11DB11D4C
:1039500020931E0480931F0490932004A0932104BD
:10396000B09322048091230490912404A091250413
:10397000B09126040196A11DB11D8093230490935C
:103980002404A0932504B0932604BF91AF919F9186
:103990008F913F912F910F900FBE0F901F90189510
:1039A00026E8230F0296A11DB11DD2CF1F920F92C0
:1039B0000FB60F9211240BB60F922F933F934F9394
:1039C0005F936F937F938F939F93AF93BF93EF9387
:1039D000FF938EED94E00E94B404FF91EF91BF91AC
:1039E000AF919F918F917F916F915F914F913F9197
:1039F0002F910F900BBE0F900FBE0F901F90189538
:103A00001F920F920FB60F9211240BB60F922F93A5
:103A10008F939F93EF93FF93E091EE04F091EF0467
:103A20008081E091F404F091F50482FD1DC0908145
:103A30008091F7048F5F8F732091F804821741F013
:103A4000E091F704F0E0E252FB4F958F8093F7048A
:103A5000FF91EF919F918F912F910F900BBE0F903F
:103A60000FBE0F901F9018958081F2CFEEEDF4E01D
:103A70001382128288EE93E0A0E0B0E08483958305
:103A8000A683B78388E792E09183808385EC90E0FA
:103A90009587848784EC90E09787868780EC90E018
:103AA000918B808B81EC90E0938B828B82EC90E009
:103AB000958B848B86EC90E0978B868B118E128E83
:103AC000138E148EEBE7F5E08AE892E09183808311
:103AD0001282138214821582E1E8F5E091838083DB
:103AE0001282138214821582E7E8F5E091838083C5
:103AF0001282138214821582EDE8F5E091838083AF
:103B00001282138214821582E3E9F5E091838083A7
:103B10001282138214821582EFE9F5E0918380838B
:103B20001282138214821582E9E9F5E09183808381
:103B30001282138214821582E5EAF5E09183808374
:103B40001282138214821582EBEAF5E0918380835E
:103B50001282138214821582E0EDF5E09183808356
:103B60001282138214821582ADEBB5E022E0159625
:103B70002C9315972BE016962C931697E4EEF2E013
:103B8000E4911796EC931797EEE9F2E0E49118961A
:103B9000EC93189740E85EE360E070E01D964D936B
:103BA0005D936D937C935097E7EBF5E09183808371
:103BB00080EC828388EA838381E0848381EB858340
:103BC000E1EBF5E01382128280E992E09183808339
:103BD00080E590E0958384830895CF93DF93CDB7FC
:103BE000DEB72F970FB6F894DEBF0FBECDBF789427
:103BF00084B5826084BD84B5816084BD85B58260F2
:103C000085BD85B5816085BD80916E0081608093A2
:103C10006E0010928100809181008260809381000B
:103C2000809181008160809381008091800081601B
:103C3000809380008091B10084608093B100809176
:103C4000B00081608093B000809191008260809389
:103C5000910080919100816080939100809190000B
:103C60008160809390008091A10082608093A10088
:103C70008091A10081608093A1008091A00081606B
:103C80008093A00080912101826080932101809126
:103C900021018160809321018091200181608093C6
:103CA000200180917A00846080937A0080917A006C
:103CB000826080937A0080917A00816080937A009C
:103CC00080917A00806880937A001092C100E09120
:103CD000EE04F091EF0482E08083E091EA04F09139
:103CE000EB041082E091EC04F091ED048FEC808302
:103CF0001092F604E091F204F091F30486E08083E0
:103D0000E091F004F091F104808180618083E09182
:103D1000F004F091F104808188608083E091F004E8
:103D2000F091F104808180688083E091F004F0914B
:103D3000F10480818F7D808362E08091C2050E94C2
:103D4000A6020E942E03605D77408109910960936D
:103D5000C6057093C7058093C8059093C90587E38E
:103D60008093CF050E941A19892B41F462EB72E00F
:103D70008EED94E00E9457160E941A1981EB95E08F
:103D80000E94C90F6AED72E08EED94E00E94CC149F
:103D90008AE892E09A8389831B821C821D821E829C
:103DA00080E591E00E94C80144E050E0BE016D5FF3
:103DB0007F4F8FE090E00E9497076EED74E0CE0198
:103DC00001960E94271568EA72E08EED94E00E9449
:103DD000CC1400E461EB75E0CE0101960E94D10C99
:103DE0008D85883008F068C168EE72E08EED94E051
:103DF0000E94571611E0CE0101960E94AE0888235A
:103E000009F44AC1CE0101960E94AF0D892B99F3A6
:103E1000CE0101960E94D00EF82E682F8EED94E010
:103E20000E94D6048AE0F8127FC1112319F30E9480
:103E30003A03882341F08091C3058C3009F462C0B5
:103E400048F48B3001F1C12CD12C90ECE92E9FE786
:103E5000F92E43C085518230B0F71091BF05612F14
:103E600070E0762F662766277F778091C005682BE4
:103E700090E080E00E94B4222DEC3CEC4CEC5DE341
:103E80000E946B235BC06091BF0570E090E080E012
:103E90000E94B4226B017C011091C00517FF0AC07B
:103EA000AC019B0160E070E080E89FEB0E94A121E3
:103EB0006B017C011F70612F70E090E080E00E9438
:103EC000B6222DEC3CEC4CEC5DE30E946B23A70189
:103ED00096010E94A2216B017C010E943A03882373
:103EE00051F08091C3058B3030F08D3080F18551D9
:103EF000823008F4E4C0412C512C80EC682E8FE70E
:103F0000782E43C01091BF05612F70E090E080E0F3
:103F10000E94B4226B017C016091C0056F7070E05B
:103F200090E080E00E94B6222DEC3CEC4CEC5DE38E
:103F30000E946B23A70196010E94A2216B017C01C4
:103F400017FFCBCFF7FAF094F7F8F094C6CF609153
:103F5000BE0570E090E080E00E94B6222DEC3CECC3
:103F60004CEC5DE30E946B232B013C016091BD058D
:103F700070E090E080E00E94B6229B01AC01C3019A
:103F8000B2010E94A2212B013C0180917B00877F1E
:103F900080937B0000937C0080917A008064809302
:103FA0007A0080917A0086FDFCCFA0907800B090D6
:103FB000790063EF72E0CE0101960E94571663E02C
:103FC00073E0CE0101960E9457166BE173E0CE01BB
:103FD00001960E94571668EA72E0CE0101960E948F
:103FE000CC146DE273E0CE0101960E94571664E393
:103FF00073E0CE0101960E94571661E673E0CE0190
:1040000001960E94571668E673E0CE0101960E9461
:104010005716A7019601C701B6010E94D823811146
:1040200009C0A3019201C301B2010E94D8238823D1
:1040300009F457C062E873E0CE0101960E9457165A
:1040400069ED73E0CE0101960E94CC146501BB0CB2
:10405000EE08FF082AE0B701A601F7FE0DC06DE2E9
:10406000CE0101960E940A0744275527BA014C1930
:104070005D096E097F092AE0CE0101960E94DB14DA
:1040800064ED73E0CE0101960E9457166AEF73E06B
:10409000CE0101960E94571661E070E080E090E04A
:1040A0000E94FC02CE0101960E94D00869E074E0F3
:1040B0008EED94E00E9457160E9443058BCE6091CE
:1040C000BD057091BE0576276727762790E080E0D2
:1040D0000E94B4222DEC3CEC4CEC5DE30E946B237F
:1040E00052CF67EA73E0CE0101960E94CC1422E021
:1040F000B701A601CE0101960E94711568EB73E02D
:10410000CE0101960E94571664EC73E0CE01019631
:104110000E94CC1422E0B301A201CE0101960E94BC
:10412000711562ED73E088CF8DE0F81609F463CE67
:1041300010E061CE8F929F92AF92BF92CF92DF92AA
:10414000EF92FF92CF93DF93EC01688179818A81AE
:104150009B81611571058105910521F464E279ED7A
:104160008BE597E02DE133EF41E050E00E943E21E6
:1041700049015A019B01AC01A7EAB1E40E945D210B
:104180006B017C01ACEEB4EFA50194010E946B21A0
:10419000C60ED71EE81EF91EF7FE06C081E0C81A3B
:1041A000D108E10880E8F80AC882D982EA82FB8255
:1041B000C701B6019F77DF91CF91FF90EF90DF901D
:1041C000CF90BF90AF909F908F9008958F929F92C5
:1041D000AF92BF92CF92DF92EF92FF92609108026E
:1041E0007091090280910A0290910B02611571058C
:1041F0008105910521F464E279ED8BE597E02DE1ED
:1042000033EF41E050E00E943E2149015A019B01F9
:10421000AC01A7EAB1E40E945D216B017C01ACEE28
:10422000B4EFA50194010E946B21C60ED71EE81EB3
:10423000F91EF7FE06C081E0C81AD108E10880E83F
:10424000F80AC0920802D0920902E0920A02F092A3
:104250000B02C701B6019F77FF90EF90DF90CF90E0
:10426000BF90AF909F908F900895609308027093D5
:10427000090280930A0290930B020895052E97FB82
:104280001EF400940E94552157FD07D00E94702112
:1042900007FC03D04EF40C94552150954095309571
:1042A00021953F4F4F4F5F4F0895909580957095A2
:1042B00061957F4F8F4F9F4F08950E949221A59F38
:1042C000900DB49F900DA49F800D911D1124089511
:1042D000B7FF0C945D210E945D21821B930B089512
:1042E000A1E21A2EAA1BBB1BFD010DC0AA1FBB1FFA
:1042F000EE1FFF1FA217B307E407F50720F0A21B6C
:10430000B30BE40BF50B661F771F881F991F1A94D8
:1043100069F760957095809590959B01AC01BD0102
:10432000CF010895A29FB001B39FC001A39F700D5C
:10433000811D1124911DB29F700D811D1124911DAD
:1043400008955058BB27AA270E94B9210C942C230A
:104350000E941E2338F00E94252320F039F49F3F4D
:1043600019F426F40C941B230EF4E095E7FB0C944F
:104370001523E92F0E943D2358F3BA1762077307EC
:104380008407950720F079F4A6F50C945F230EF4CA
:10439000E0950B2EBA2FA02D0B01B90190010C0155
:1043A000CA01A0011124FF27591B99F0593F50F46D
:1043B000503E68F11A16F040A22F232F342F4427C5
:1043C000585FF3CF469537952795A795F0405395BD
:1043D000C9F77EF41F16BA0B620B730B840BBAF08D
:1043E0009150A1F0FF0FBB1F661F771F881FC2F7F8
:1043F0000EC0BA0F621F731F841F48F4879577950C
:104400006795B795F7959E3F08F0B0CF9395880FC5
:1044100008F09927EE0F9795879508950E94F1224D
:1044200008F481E008950E9427220C942C230E9416
:10443000252358F00E941E2340F029F45F3F29F005
:104440000C94152351110C9460230C941B230E948F
:104450003D2368F39923B1F3552391F3951B550B35
:10446000BB27AA2762177307840738F09F5F5F4F47
:10447000220F331F441FAA1FA9F335D00E2E3AF086
:10448000E0E832D091505040E695001CCAF72BD09E
:10449000FE2F29D0660F771F881FBB1F26173707EF
:1044A0004807AB07B0E809F0BB0B802DBF01FF2721
:1044B00093585F4F3AF09E3F510578F00C941523C6
:1044C0000C9460235F3FE4F3983ED4F38695779590
:1044D0006795B795F7959F5FC9F7880F911D9695DA
:1044E000879597F90895E1E0660F771F881FBB1F36
:1044F000621773078407BA0720F0621B730B840BE3
:10450000BA0BEE1F88F7E09508950E94452388F0C6
:104510009F5798F0B92F9927B751B0F0E1F0660F87
:10452000771F881F991F1AF0BA95C9F714C0B130C8
:1045300091F00E945F23B1E008950C945F23672FF0
:10454000782F8827B85F39F0B93FCCF386957795F7
:104550006795B395D9F73EF49095809570956195E0
:104560007F4F8F4F9F4F0895E89409C097FB3EF40B
:1045700090958095709561957F4F8F4F9F4F9923B0
:10458000A9F0F92F96E9BB279395F695879577952E
:104590006795B795F111F8CFFAF4BB0F11F460FFEE
:1045A0001BC06F5F7F4F8F4F9F4F16C0882311F046
:1045B00096E911C0772321F09EE8872F762F05C05A
:1045C000662371F096E8862F70E060E02AF09A95F5
:1045D000660F771F881FDAF7880F9695879597F9EA
:1045E0000895990F0008550FAA0BE0E8FEEF161684
:1045F0001706E807F907C0F012161306E407F507D7
:1046000098F0621B730B840B950B39F40A2661F04A
:10461000232B242B252B21F408950A2609F4A140ED
:10462000A6958FEF811D811D089597F99F6780E8FA
:1046300070E060E008959FEF80EC089500240A94F4
:104640001616170618060906089500240A9412166D
:104650001306140605060895092E0394000C11F4A0
:10466000882352F0BB0F40F4BF2B11F460FF04C04D
:104670006F5F7F4F8F4F9F4F089557FD9058440FA6
:10468000551F59F05F3F71F04795880F97FB991FB1
:1046900061F09F3F79F0879508951216130614066E
:1046A000551FF2CF4695F1DF08C0161617061806FB
:1046B000991FF1CF86957105610508940895E894D6
:1046C000BB2766277727CB0197F908950E94F1222F
:1046D00008F48FEF08950E947E230C942C230E94EF
:1046E0001E2338F00E94252320F0952311F00C940E
:1046F00015230C941B2311240C9460230E943D234A
:1047000070F3959FC1F3950F50E0551F629FF00124
:10471000729FBB27F00DB11D639FAA27F00DB11D3D
:10472000AA1F649F6627B00DA11D661F829F2227C6
:10473000B00DA11D621F739FB00DA11D621F839F4D
:10474000A00D611D221F749F3327A00D611D231F23
:10475000849F600D211D822F762F6A2F11249F5771
:1047600050409AF0F1F088234AF0EE0FFF1FBB1F74
:10477000661F771F881F91505040A9F79E3F510533
:1047800080F00C9415230C9460235F3FE4F3983E73
:10479000D4F3869577956795B795F795E7959F5FDD
:1047A000C1F7FE2B880F911D9695879597F908956F
:1047B0000E94F122880B990B0895EE0FFF1F881FAE
:1047C0008BBF0790F691E02D1994692796276927EA
:1047D00078278727782708950F931F93CF93DF9328
:1047E0008230910510F482E090E0E091D805F091DC
:1047F000D90530E020E0B0E0A0E0309799F4211531
:10480000310509F44AC0281B390B24303105D8F58D
:104810008A819B816115710589F1FB0193838283F4
:10482000FE0111C04081518102811381481759074F
:10483000E0F04817590799F4109761F012960C931D
:10484000129713961C933296CF01DF91CF911F914F
:104850000F9108950093D8051093D905F4CF211531
:10486000310551F04217530738F0A901DB019A01D5
:10487000BD01DF01F801C1CFEF01F9CF9093D90558
:104880008093D805CDCFFE01E20FF31F8193919362
:104890002250310939832883D7CF2091D605309112
:1048A000D705232B41F420910E0230910F02309353
:1048B000D7052093D60520910C0230910D022115C9
:1048C000310541F42DB73EB74091100250911102CD
:1048D000241B350BE091D605F091D705E217F307BD
:1048E000A0F42E1B3F0B2817390778F0AC014E5F60
:1048F0005F4F2417350748F04E0F5F1F5093D705C1
:104900004093D605819391939FCFF0E0E0E09CCF58
:10491000CF93DF930097E9F0FC0132971382128264
:10492000A091D805B091D905ED0130E020E01097B5
:10493000A1F420813181820F931F2091D6053091FF
:10494000D7052817390709F061C0F093D705E09320
:10495000D605DF91CF910895EA01CE17DF07E8F57C
:104960004A815B819E0141155105B1F7E901FB8345
:10497000EA8349915991C40FD51FEC17FD0761F4E3
:10498000808191810296840F951FE9019983888324
:10499000828193819B838A83F0E0E0E012968D917F
:1049A0009C9113970097B9F52D913C911197CD01EA
:1049B0000296820F931F2091D6053091D7052817B4
:1049C000390739F6309751F51092D9051092D8056C
:1049D000B093D705A093D605BCCFD383C2834081C3
:1049E0005181840F951FC817D90761F44E5F5F4F3F
:1049F00088819981480F591F518340838A819B8107
:104A0000938382832115310509F0B0CFF093D90546
:104A1000E093D8059ECFFD01DC01C0CF1382128246
:104A2000D7CFFB01DC0104C08D910190801921F4E6
:104A300041505040C8F7881B990B0895DC0101C014
:104A40006D9341505040E0F70895FB01DC01019067
:0C4A50000D920020E1F70895F894FFCFCC
:104A5C0000C0DEADBEEFFEED010000000000DA0587
:104A6C00800001005E000000000000000A07290C15
:104A7C00C90BB40BAF0DD00E9809F90F4114EA0E07
:104A8C00D008AE0833073B076B1630072E07FF061E
:104A9C002407A010D7107510200700000000D306C3
:104AAC00440C940719021502A60E8909AB0FA60A2D
:104ABC0067083D07CE1309091211870E8C077C0776
:104ACC007807740700000000D60440046D04230529
:104ADC009E047C04900400000000271500000000D8
:104AEC00E906580D94079307C90F82086E616E0092
:104AFC00696E66006F7666000D0A0057495A6E653E
:104B0C0074004661696C656420746F20636F6E6617
:104B1C0069677572652045746865726E6574207579
:104B2C0073696E6720444843500053657276657212
:104B3C0020697320617420004E657720636C696571
:104B4C006E7400485454502F312E312032303020A6
:104B5C004F4B00436F6E74656E742D547970653ACB
:104B6C0020746578742F68746D6C00436F6E6E657D
:104B7C006374696F6E3A20636C6F7365003C687484
:104B8C006D6C3E003C686561643E3C7469746C6598
:104B9C003E53656E736F722044617368626F61720D
:104BAC00643C2F7469746C653E3C2F686561643E8F
:104BBC00003C626F64793E003C68313E53656E7315
:104BCC006F722044617368626F6172643C2F68314C
:104BDC003E003C703E4572726F7220726561646972
:104BEC006E672066726F6D204448542073656E7337
:104BFC006F723C2F703E003C703E54656D70657258
:104C0C0061747572653A200020266465673B433CED
:104C1C002F703E003C703E48756D69646974793A3A
:104C2C00200020253C2F703E003C703E4E6F697377
:104C3C0065204C6576656C2028506F74656E7469C0
:104C4C006F6D65746572293A20003C2F626F647930
:104C5C003E3C2F68746D6C3E00436C69656E74202D
:0E4C6C00646973636F6E6E6563746564000047
:00000001FF
