:100000000C9436020C945E020C945E020C945E0218
:100010000C945E020C945E020C945E020C945E02E0
:100020000C945E020C945E020C945E020C945E02D0
:100030000C945E020C945E020C945E020C945E02C0
:100040000C94D7200C945E020C9447210C9421212F
:100050000C945E020C945E020C945E020C945E02A0
:100060000C945E020C945E0200407A10F35A00A0D9
:10007000724E18090010A5D4E80000E87648170071
:1000800000E40B54020000CA9A3B000000E1F505B1
:10009000000080969800000040420F000000A086FB
:1000A00001000000102700000000E803000000002D
:1000B0006400000000000A000000000001000000D1
:1000C00000002C76D888DC674F0823DFC1DFAE59EB
:1000D000E1B1B796E5E3E453C63AE651997696E87E
:1000E000E6C28426EB898C9B62ED407C6FFCEFBC02
:1000F0009C9F40F2BAA56FA5F490055A2AF75C932D
:100100006B6CF9676DC11BFCE0E40D47FEF520E662
:10011000B500D0ED902E0300943577050080841E45
:10012000080000204E0A000000C80C333333330FA0
:10013000986E12831141EF8D2114893BE65516CF3D
:10014000FEE6DB18D1844B381BF77C1D901DA4BB49
:10015000E424203284725E228100C9F124ECA1E5FE
:100160003D275D2000626C6E6B696E66006D637585
:1001700000302E302E300066772D74797065005473
:100180004D504C32786C7256734A47620062756902
:100190006C640044656320203820323032342031D2
:1001A000383A31333A353700626C796E6B00312E54
:1001B000332E3200682D626561740034350062753B
:1001C00066662D696E0032353600646576004172D0
:1001D0006475696E6F20556E6F00637075004154D1
:1001E0006D6567613332385000636F6E005735318B
:1001F0003030000000436F6E6E656374696E672077
:10020000746F2000436F6E6E656374696E6720744F
:100210006F20000D0A202020205F5F5F20205F5F9D
:10022000202020202020202020205F5F0D0A202079
:10023000202F205F20292F202F5F205F5F5F5F5FCF
:1002400020202F202F5F5F0D0A20202F205F2020ED
:100250002F202F202F2F202F205F205C2F202027C2
:100260005F2F0D0A202F5F5F5F5F2F5F2F5C5F2C7A
:10027000202F5F2F2F5F2F5F2F5C5F5C0D0A2020E8
:100280002020202020202F5F5F5F2F2076312E330B
:100290002E32206F6E2041726475696E6F20556E2C
:1002A0006F0D0A0D0A20235374616E6457697468D8
:1002B000556B7261696E65202020206874747073BC
:1002C0003A2F2F6269742E6C792F737775610D0A3E
:1002D0000D0A0049503A0044484350204661696C79
:1002E0006564210047657474696E672049502E2E3D
:1002F0002E0000000000240027002A00000000005B
:10030000250028002B006D73292E00526561647949
:10031000202870696E673A20000000000023002644
:10032000002900000000080002010000030407008B
:1003300000000000000000610261026102610261D0
:100340000261026102610261026102610261026195
:100350000261026102610261026102610261026185
:100360000261026102610261026102610261026175
:10037000026102610261026002600260026002606A
:10038000026002600260026002600260026002605D
:10039000026002600260026002600260026002604D
:1003A000026002600260026002600260026002603D
:1003B00002600260026002496E76616C69642048E6
:1003C0005720636D643A20005365727665723A2057
:1003D000005265646972656374696E6720746F208A
:1003E000005265616479005061636B657420746FBD
:1003F0006F206269673A2000436F6E6E65637420F8
:100400006661696C65642E20636F64653A200049FB
:100410006E76616C6964206175746820746F6B65B9
:100420006E004C6F67696E2074696D656F7574003E
:100430004865617274626561742074696D656F7579
:10044000740004040404040404040202020202020C
:100450000303030303030102040810204080010288
:1004600004081020010204081020082211241FBED5
:10047000CFEFD8E0DEBFCDBF12E0A0E0B1E0E2ED0B
:10048000F1E602C005900D92AA35B107D9F724E034
:10049000AAE5B2E001C01D92A332B207E1F712E073
:1004A000C6E3D2E004C02197FE010E94A530C53307
:1004B000D107C9F70E94FC220C94E7300C9400008D
:1004C000089508958CBD9DBD089520E3FC0120830F
:1004D0003296862F82958F706F706A3030F4605D2F
:1004E0006293682F8111F5CF0895695CF9CFCF929F
:1004F000DF92EF92FF92CF93DF93B091C803A0E019
:100500008111AB2F8091C90390E0880F991FAC0136
:10051000475E5C4FC090CE03D090CF03E090D003F5
:10052000F090D10330E020E0FA01C591D491E88148
:10053000B90190E080E0EB23EA130AC02F5F3F4F40
:100540006C157D058E059F0578F36FEF7FEFCB016E
:10055000DF91CF91FF90EF90DF90CF900895FC0155
:10056000818D928D0895833081F028F4813099F047
:100570008230A9F008958730A9F08830C9F084301E
:10058000B1F4809180008F7D03C0809180008F77CF
:1005900080938000089584B58F7784BD089584B5D5
:1005A0008F7DFBCF8091B0008F778093B00008954E
:1005B0008091B0008F7DF9CF1F93CF93DF93282FC9
:1005C00030E0F901ED5DFC4F8491F901EA5AFB4FEF
:1005D000D491F901EE5BFB4FC491CC23A9F0162F07
:1005E00081110E94B302EC2FF0E0EE0FFF1FE450E8
:1005F000FD4FA591B4918FB7F894EC91111108C0FB
:10060000D095DE23DC938FBFDF91CF911F910895AA
:10061000DE2BF8CFCF93DF9390E0FC01EA5AFB4F3B
:1006200024918E5B9B4FFC0184918823C9F090E05C
:10063000880F991FFC01EE50FD4FA591B491FC016C
:10064000E450FD4FC591D49161110DC09FB7F8944E
:100650008C91209582238C938881282328839FBFA7
:10066000DF91CF910895623051F49FB7F8943C9197
:10067000822F809583238C93E8812E2BEFCF8FB729
:10068000F894EC912E2B2C938FBFEACF8E3008F08C
:100690008E508770806480937C0080917A008064A3
:1006A00080937A0080917A0086FDFCCF809178005B
:1006B0009091790008953FB7F8948091CD02909180
:1006C000CE02A091CF02B091D00226B5A89B05C062
:1006D0002F3F19F00196A11DB11D3FBFBA2FA92FC1
:1006E000982F8827BC01CD01620F711D811D911DBE
:1006F00042E0660F771F881F991F4A95D1F708952A
:100700008F929F92AF92BF92CF92DF92EF92FF9221
:100710006B017C010E945B034B015C01C114D1049D
:10072000E104F104B9F00E945B03681979098A09B0
:100730009B09683E73408105910580F321E0C21A50
:10074000D108E108F10888EE880E83E0981EA11C0C
:10075000B11CE4CFFF90EF90DF90CF90BF90AF90AF
:100760009F908F9008952FB7F8946091C90270916F
:10077000CA028091CB029091CC022FBF0895CF92F4
:10078000DF92EF92FF920F931F93CF93DF93CDB73A
:10079000DEB7C054D1400FB6F894DEBF0FBECDBF58
:1007A0000E94B3030091CA031091CB032091CC03A4
:1007B0003091CD036B017C01C01AD10AE20AF30A21
:1007C00097018601003D17402105310590F4809185
:1007D000D203C05CDE4F0FB6F894DEBF0FBECDBFB4
:1007E000DF91CF911F910F91FF90EF90DF90CF900D
:1007F00008956093CA037093CB038093CC039093C6
:10080000CD031092C5031092C4031092C30310923B
:10081000C2031092C10362E08091C6030E940A03E2
:1008200061E070E080E090E00E94800361E08091F0
:10083000C6030E940A0360E08091C6030E94DC02A6
:100840008091C7038551823020F58BE291E10197B9
:10085000F1F762E08091C6030E940A038091D303FE
:1008600090E08230910538F0880F991F880F991F0A
:1008700005970197F1F7F89480E00E9477026F3FA7
:100880007F4F8F4F9F4F61F41092D203789480E096
:10089000A0CF64E170E080E090E00E948003D9CFB7
:1008A00081E00E9477026F3F7F4F8F4F9F4F61F330
:1008B0008E010F5F1F4F6E012FEBC21A2EEFD20A6F
:1008C000780180E00E947702F70160837183828360
:1008D000938381E00E947702F701648375838683A6
:1008E0009783F8E0EF0EF11CEC14FD0451F77894B7
:1008F00030E020E0F801C080D180E280F3804481C4
:10090000558166817781FFEFCF16DF06EF06FF0680
:1009100031F04F3F8FEF58076807780719F41092AE
:10092000D203B5CFF90183E0F595E7958A95E1F714
:10093000EF53FC4F8081880FC416D506E606F706F4
:1009400010F180832F5F3F4F085F1F4F2832310522
:1009500089F64091C5032091C1038091C203280FFD
:100960003327331F8091C303280F311D8091C403A7
:10097000820F932F911D99274817190681F681E060
:100980008093D20326CF8160DCCF4F925F926F922B
:100990007F92AF92BF92CF92DF92EF92FF920F932E
:1009A0001F93CF93DF93EC016B017B01E40EF51EE7
:1009B0008B015801AC18BD080E151F0511F10E94DE
:1009C000B303688779878A879B87E881F9810284E6
:1009D000F385E02DCE01099597FF23C00E94B30354
:1009E000488459846A847B84641975098609970947
:1009F0004C805D806E807F80641575058605970547
:100A000020F3C501DF91CF911F910F91FF90EF90DF
:100A1000DF90CF90BF90AF907F906F905F904F909E
:100A20000895F80181938F01C4CFDC01ED91FC9111
:100A30000190F081E02D0994AF92BF92CF92DF92A6
:100A4000EF92FF920F931F93CF93DF936C017B0183
:100A50008B01040F151FEB015E01AE18BF08C01714
:100A6000D10759F06991D601ED91FC910190F08187
:100A7000E02DC6010995892B79F7C501DF91CF914A
:100A80001F910F91FF90EF90DF90CF90BF90AF90AC
:100A90000895FC01538D448D252F30E0842F90E084
:100AA000821B930B541710F0CF9608950197089569
:100AB000FC01918D828D981761F0A28DAE0FBF2F32
:100AC000B11D5D968C91928D9F5F9F73928F90E088
:100AD00008958FEF9FEF0895FC01918D828D9817F7
:100AE00031F0828DE80FF11D858D90E008958FEF34
:100AF0009FEF0895FC01918D228D892F90E0805CFD
:100B00009F4F821B91098F73992708958EEE92E073
:100B10000E947A0521E0892B09F420E0822F0895B4
:100B200080E090E0892B29F00E94860581110C94C9
:100B300000000895FC01A48DA80FB92FB11DA35A80
:100B4000BF4F2C91848D90E001968F739927848FED
:100B5000A689B7892C93A089B1898C918370806410
:100B60008C93938D848D981306C00288F389E02DB1
:100B700080818F7D80830895EF92FF920F931F9362
:100B8000CF93DF93EC0181E0888F9B8D8C8D981340
:100B90001AC0E889F989808185FF15C09FB7F8944C
:100BA000EE89FF896083E889F98980818370806498
:100BB00080839FBF81E090E0DF91CF911F910F91E3
:100BC000FF90EF900895F62E0B8D10E00F5F1F4FF2
:100BD0000F731127E02E8C8D8E110CC00FB607FC01
:100BE000FACFE889F989808185FFF5CFCE010E948F
:100BF0009A05F1CFEB8DEC0FFD2FF11DE35AFF4F5E
:100C0000F0829FB7F8940B8FEA89FB89808180621C
:100C1000CFCF0F931F93CF93DF938C01D0E0C0E031
:100C2000F801EC0FFD1F6491662341F08EEE92E017
:100C30000E94BC05892B11F02196F2CFCE01DF91E5
:100C4000CF911F910F910895CF93DF93EC01888D81
:100C50008823B9F0AA89BB89E889F9898C9185FD37
:100C600003C0808186FD0DC00FB607FCF7CF8C91C5
:100C700085FFF2CF808185FFEDCFCE010E949A05DE
:100C8000E9CFDF91CF910895FC0120812EBD9B011A
:100C90002150310941F051810DB407FEFDCF4EB511
:100CA0005EBD4193F5CF61507109860F971F0DB45A
:100CB00007FEFDCF2EB5FC0120830895E0915B0275
:100CC000F0915C02808190915A02892B8083089573
:100CD000E0915B02F0915C02908180915A028095D4
:100CE0008923808308958EBD00000DB407FEFDCFDB
:100CF0008EB50895AF92BF92CF92DF92EF92FF929E
:100D00000F931F93CF93DF93CDB7DEB728970FB61E
:100D1000F894DEBF0FBECDBF8C017B016A018091CC
:100D2000ED028333E1F45801A40EB51EA016B106FE
:100D300009F46FC00E94680680EF0E947306812F3D
:100D40000E947306802F0E9473060F5F1F4FF701EA
:100D500081917F010E9473060E945E06E7CF5B01CE
:100D6000A40EB51E8433C1F40E94680619830A8359
:100D70008D2D80688B83CC8264E070E0CE0101967B
:100D80000E944406AE14BF0409F441C0F7018191EA
:100D90007F010E947306F6CF0E9468060F3F11057F
:100DA00009F028F419820A8384E08B830CC017FDB4
:100DB00017C019820A8333E0169507953A95E1F733
:100DC000007E0C600B8386E0C816D104A0F5F70105
:100DD000DE011496EA15FB0599F081918D93FACF07
:100DE000C80126E0969587952A95E1F7807E1983BC
:100DF0000A830115104C10F48461D7CF8C61D5CFD4
:100E0000B6016D5F7F4FCE0101960E9444060E949D
:100E10005E06C60128960FB6F894DEBF0FBECDBFA2
:100E2000DF91CF911F910F91FF90EF90DF90CF90C6
:100E3000BF90AF90089563E070E0CE0101960E94EC
:100E40004406F70181917F010E947306AE14BF042E
:100E5000C1F7DDCFCF93DF931F92CDB7DEB7898384
:100E600041E050E0BE016F5F7F4F90E080E00E9464
:100E70007A060F90DF91CF91089590E02091ED02D6
:100E8000233339F40C96982F990F990F990F80E01E
:100E900008954896F8CFDA01E0915E02F0E0FE2F67
:100EA000EE27E60FF71F90E0982F8827A901BD01D4
:100EB0008E0F9F1F0C947A06CF93DF9300D0CDB78F
:100EC000DEB779836A8322E030E0AE014F5F5F4F87
:100ED00060E170E00E944B070F900F90DF91CF917F
:100EE0000895CF93DF9300D0CDB7DEB779836A83BF
:100EF00022E030E0AE014F5F5F4F64E070E00E949F
:100F00004B070F900F90DF91CF910895CF93DF9310
:100F10001F92CDB7DEB720915E0230E0322F22273C
:100F2000260F371F90E0982F8827498341E050E033
:100F3000BE016F5F7F4F820F931F0E947A060F9052
:100F4000DF91CF910895CF93DF931F92CDB7DEB796
:100F50006983DC01ED91FC910280F381E02D41E099
:100F600050E0BE016F5F7F4F09950F90DF91CF91E9
:100F70000895FC019485FB018485981303C081E0EA
:100F8000943008F080E00895CF93DF931F92CDB79F
:100F9000DEB76983DC01ED91FC910280F381E02DE5
:100FA00041E050E0BE016F5F7F4F09950F90DF91E8
:100FB000CF9108950895FF920F931F93CF93DF93DE
:100FC000EB01FC01178A168A2A81211109C02B81A5
:100FD000211106C02C81211103C02D81222301F192
:100FE00041155105E9F08A01FC01F08C80E591E0A2
:100FF0000E946202AE014E5F5F4F24E030E06CE081
:1010000070E08F2D0E944B07B8018F2D0E945C0766
:1010100081E090E0DF91CF911F910F91FF900895B3
:1010200080E0F7CFFC01848595850895FC018489D3
:101030009589089525EA31E0FC0131832083FB0185
:101040004089518962897389FC0142835383648397
:1010500075830895DC01ED91FC91048CF58DE02DF4
:10106000099490E080E00895FC019485992369F04B
:1010700080819181DC01ED91FC910688F789E02D5A
:10108000099591E0811101C090E0892F0895DC015C
:101090001C961C921C978D919C91009739F0DC0155
:1010A000ED91FC910488F589E02D09940895FC01E7
:1010B000768765870895DC01ED91FC9102A0F3A18C
:1010C000E02D099591E089270895862F089581E004
:1010D0008627089521E0FC018485843008F020E013
:1010E000822F08950895FB0101900020E9F73197C0
:1010F000AF01461B570BDC01ED91FC910280F3819F
:10110000E02D0994CF93DF930E940906EC0167EA72
:1011100071E08EEE92E00E9473088C0F9D1FDF91AC
:10112000CF9108958F929F92AF92BF92EF92FF92CC
:101130000F931F93CF93DF93CDB7DEB7A1970FB671
:10114000F894DEBF0FBECDBF7C01FA01CB0119A21E
:10115000223008F42AE08E010F5D1F4F822E912C61
:10116000B12CA12CBF01A50194010E94612FF901AE
:10117000CA016A300CF5605DD8016E938D01232B96
:10118000242B252B79F790E080E0109721F0BD010A
:10119000C7010E947308A1960FB6F894DEBF0FBE78
:1011A000CDBFDF91CF911F910F91FF90EF90BF9036
:1011B000AF909F908F900895695CDECFCF93DF93BF
:1011C000AC0170E060E02AE08EEE92E00E949208AE
:1011D000EC0167EA71E08EEE92E00E9473088C0FDA
:1011E0009D1FDF91CF910895462F50E070E060E0A1
:1011F0002AE00C9492088F929F92AF92BF92CF9266
:10120000DF92EF92FF920F931F93CF93DF937C01B6
:101210008B014C0182E0880E911C5701E5E0AE0E77
:10122000B11CD0E0C0E0F40161914F01C8010E94FF
:10123000F4086C016EE2C8010E9415058C0D9D1D1D
:10124000C80FD91F8A149B0471F7F7016581C80183
:101250000E94F4088C0F9D1FDF91CF911F910F9179
:10126000FF90EF90DF90CF90BF90AF909F908F90C6
:1012700008956BE58EEE92E00E9415050E94B3037F
:10128000AB01BC012AE08EEE92E00E94920882E659
:1012900091E00C940906CF93DF93BC018EEE92E0AF
:1012A0000E947308EC0167EA71E08EEE92E00E9402
:1012B00073088C0F9D1FDF91CF910895EF92FF92DD
:1012C0000F931F93CF93DF9300D000D000D0CDB702
:1012D000DEB78C017B01DC0118968D919C91892BE6
:1012E000C9F10E94390985EF91E00E940906F801D1
:1012F000608571856115710521F08EEE92E00E9486
:1013000073086AE38EEE92E00E941505C7010E9401
:10131000DE08D8018D919C91119718966D917C9162
:10132000DC01ED91FC910088F189E02DA701099580
:1013300021E0019709F020E0822F26960FB6F8945D
:10134000DEBF0FBECDBFDF91CF911F910F91FF90F8
:10135000EF9008950E94390984E092E00E94090606
:10136000F80164818EEE92E00E94F4086EE28EEE47
:1013700092E00E941505D80115966C918EEE92E0D0
:101380000E94F4086EE28EEE92E00E941505F801CC
:1013900066818EEE92E00E94F4086EE28EEE92E09C
:1013A0000E941505D80117966C918EEE92E00E946E
:1013B000F40867EA71E08EEE92E00E947308F8018B
:1013C00080819181DC01ED91FC910684F785E02D0F
:1013D00025EA31E03A832983D80114964D915D9135
:1013E0006D917C9117974B835C836D837E83A701FE
:1013F000BE016F5F7F4F9BCFAF92BF92CF92DF92C4
:10140000EF92FF920F931F93CF93DF9300D000D002
:10141000CDB7DEB78C016B017A018091ED02833389
:10142000E9F45B016801C40ED51EC016D106A9F10E
:101430000E9468068FE00E947306812F0E94730647
:10144000802F0E9473060F5F1F4F80E00E9473067B
:10145000F50181935F010E945E06E7CF843369F551
:101460000E94680619830A838F2D8F778B83EC8205
:1014700064E070E0CE0101960E944406A70170E08E
:1014800060E0C6010E94C130E114F10421F0B7010F
:10149000C6010E9444060E945E06C7010F900F908D
:1014A0000F900F90DF91CF911F910F91FF90EF90D0
:1014B000DF90CF90BF90AF9008950E9468060F3FD5
:1014C000110509F030F419820A831B8263E070E091
:1014D000D1CF17FD0BC019820A8333E0169507950B
:1014E0003A95E1F7007E08600B83F0CFC80126E053
:1014F000969587952A95E1F7807E19830A830115D1
:10150000104C18F480618B83E1CF8861FCCFCF93BE
:10151000DF931F92CDB7DEB720915E0230E0322F0D
:101520002227260F371F90E0982F882741E050E0B0
:10153000BE016F5F7F4F820F931F0E94FC0989815C
:101540000F90DF91CF910895CF93C82F462F61E080
:1015500070E00E94860761E070E08C2F0E94870A8D
:101560008111F9CFCF910895CF93C82F80E591E0F5
:101570000E94620268E070E08C2FCF910C94A40A64
:10158000CF93C82F80E591E00E94620260E170E095
:101590008C2FCF910C94A40ACF93DF93EC01888D0C
:1015A000843020F40E94C00A84E0888FDF91CF91BC
:1015B0000895CF93C82F80E591E00E94620263E016
:1015C00070E08C2FCF910C94870ACF93DF93EC01BE
:1015D0008C858430D0F40E94D90A843189F0882324
:1015E00079F0883169F021E08C3159F4E881F98192
:1015F0000084F185E02DCE01099521E0892B09F4C5
:1016000020E0822FDF91CF91089580E0FBCFCF9231
:10161000DF92EF92FF92CF93DF93EC018C858430C1
:1016200068F40E94B40A0E94B3036B017C018C85AC
:101630000E94D90A811109C084E08C87DF91CF9183
:10164000FF90EF90DF90CF90089561E070E080E030
:1016500090E00E9480030E94B303AB01BC014C19CF
:101660005D096E097F098D859E85B0E0A0E0481771
:1016700059076A077B07D8F28C850E94C00ADCCF25
:10168000CF93FC01C08D80E591E00E94620260E290
:1016900070E08C2F0E94A40A62E070E08C2F0E9400
:1016A000870A84FD16C062E070E08C2F0E94870AD2
:1016B00083FF0AC048E162E070E08C2F0E94860739
:1016C00080E090E0CF91089580E591E00E94620271
:1016D000E3CF40E162E070E08C2F0E94860781E05A
:1016E000F0CFCF93DF931F92CDB7DEB741E050E04C
:1016F000BE016F5F7F4F90E080E00E94FC0989810E
:101700000F90DF91CF910895CF93DF93C4E1D0E0A4
:101710000E94710B882361F061E070E080E090E04E
:101720000E9480032197A1F780E0DF91CF91089577
:1017300081E0FBCF1F93CF93DF931F92CDB7DEB72E
:10174000182F80E591E00E946202812F0E943D07E0
:1017500027E0129FF0011124EF52FD4F22813381C7
:10176000377041E050E0BE016F5F7F4F820F931FE3
:101770000E94FC0989810F90DF91CF911F910895FC
:10178000FC01808D843040F4218D328D232B21F09B
:101790000E949A0B90E008958FEF9FEF0895CF93EA
:1017A000DF93FC012485243028F08FEF9FEFDF9139
:1017B000CF910895EC010190F081E02D0084F18536
:1017C000E02D0995892B89F38C850E949A0B90E076
:1017D000EECFDA01E0915E02F0E0FE2FEE27E60F99
:1017E000F71F90E0982F8827A901BD018E0F9F1F3A
:1017F0000C94FC098F929F92AF92BF92CF92DF928E
:10180000EF92FF921F93CF93DF93CDB7DEB72C9764
:101810000FB6F894DEBF0FBECDBF2091ED0214E0ED
:10182000222339F16B017C0180E591E00E94620284
:101830005E0127E0A20EB11C450110E063E070E0FC
:10184000812F0E94870AF40181934F01882349F177
:101850001F5F143099F710E0F50181915F018D3120
:10186000D9F08831C9F08A518230B0F01F5F14304E
:1018700099F7812F2C960FB6F894DEBF0FBECDBF1F
:10188000DF91CF911F91FF90EF90DF90CF90BF90AD
:10189000AF909F908F90089560E170E0812F0E943B
:1018A000A40AA12EB12C83EE93E00197F1F742E850
:1018B00070E060E0812F0E9486074FEF62E070E0E9
:1018C000812F0E948607B601C114D10491F4809142
:1018D00021019091220101968115F0EC9F0708F4F7
:1018E0005CC090932201809321016091210170914D
:1018F0002201812F0E94710786E0EDE2F1E0DE0116
:10190000119601900D928A95E1F7F70183818F7707
:101910008C8384818D8385818E83A7014E5F5F4F89
:1019200024E030E06CE070E0812F0E944B07B601AC
:10193000812F0E945C0726E030E0AE014F5F5F4FD1
:1019400066E070E0812F0E944B0761E070E0812F1C
:101950000E94A40A27E02A9DC0012B9D900D11240E
:101960009C012F523D4F7901F9011182108222E032
:1019700030E0AE01455F5F4F68E270E0812F0E946A
:10198000E90B8B859C85982789279827F7019383F6
:1019900082831682158214826CCF80E090ECA1CFF6
:1019A000CF92DF92EF92FF920F931F93CF93DF932B
:1019B00000D000D000D0CDB7DEB78C016B017A012A
:1019C000FC01808D843010F40E94C00A85EA91E009
:1019D0009A838983F60182819381A481B5818B8367
:1019E0009C83AD83BE83B701CE0101960E94FA0BA2
:1019F000F801808F8430A0F4F586E486128E118E73
:101A000081E026960FB6F894DEBF0FBECDBFDF9102
:101A1000CF911F910F91FF90EF90DF90CF9008959D
:101A200080E0EFCFAF92BF92CF92DF92EF92FF9222
:101A30000F931F93CF93DF9300D000D000D0CDB78A
:101A4000DEB7082F6B0180E591E00E9462029E01E3
:101A50002F5F3F4F7901590110E063E070E0812F63
:101A60000E94870AF50181935F01882341F11F5F7E
:101A7000143099F710E0F70181917F018D31D1F099
:101A80008831C1F08A518230A8F01F5F143099F775
:101A9000812F26960FB6F894DEBF0FBECDBFDF9123
:101AA000CF911F910F91FF90EF90DF90CF90BF905B
:101AB000AF90089560E170E0812F0E94A40AE12EAA
:101AC000F12C83EE93E00197F1F7402F70E060E096
:101AD000812F0E9486074FEF62E070E0812F0E9405
:101AE0008607B601CD2889F48091210190912201C9
:101AF00001968115F0EC9F0798F190932201809355
:101B000021016091210170912201812F0E947107B2
:101B100061E070E0812F0E94A40A27E02E9DC001A1
:101B20002F9D900D11249C012F523D4F7901F901F9
:101B30001182108222E030E0AE014B5F5F4F68E21D
:101B400070E0812F0E94E90B8D819E819827892763
:101B50009827F7019383828316821582148298CF87
:101B600080E090ECCACFCF92DF92EF92FF921F936A
:101B7000CF93DF93EC017B016A018C85843048F4BC
:101B80000E94D90A882319F08C850E94B40A84E047
:101B90008C87F70182819381A481B5810097A1058B
:101BA000B10551F490E080E0DF91CF911F91FF905B
:101BB000EF90DF90CF9008958F3F9F4FAF4FBF4F73
:101BC00089F38091ED02811103C084E08C87EACF14
:101BD00070E060E081E20E94120D182F8C87843043
:101BE00008F780E591E00E946202A7014E5F5F4F17
:101BF00024E030E06CE070E0812F0E944B07B601DA
:101C0000812F0E945C0764E070E0812F0E94A40A8B
:101C10000E94B3036B017C018C850E94D90A873135
:101C200009F18C31F9F0882309F4BCCF0E94B30389
:101C3000AB01BC014C195D096E097F098D859E853C
:101C4000B0E0A0E084179507A607B70738F061E079
:101C500070E080E090E00E948003DECF8C850E94DF
:101C6000C00AB3CF81E090E09FCF0F931F93CF9333
:101C7000DF93EC018B01888D843010F40E94C00A40
:101C80008091ED02811107C094E0988FDF91CF9190
:101C90001F910F910895B80182E00E94120D888F64
:101CA000843030F41D870C871A8E198E81E0EECFB8
:101CB00080E0ECCF7F928F929F92AF92BF92CF92B3
:101CC000DF92EF92FF920F931F93CF93DF9300D099
:101CD000CDB7DEB7782E8B014A01590122E030E002
:101CE000AE014F5F5F4F64E270E00E94E90BE98054
:101CF000FA80FE24EF24FE24E00EF11E97013770D7
:101D00004091ED02072D10E0433309F042C0085F17
:101D10001F4F102F0027110F110F110FC901800F36
:101D2000911F4733C9F1A9014A0D5B1D413058404D
:101D300098F160E078E06B01C21AD30AA601B40101
:101D40000E947A06A5014C195D09B4016C0D7D1D38
:101D5000C8010E947A06EA0CFB1CF982EA8222E0A2
:101D600030E0AE014F5F5F4F64E270E0872D0E946C
:101D70004B070F900F90DF91CF911F910F91FF9024
:101D8000EF90DF90CF90BF90AF909F908F907F901B
:101D90000895005F1F4FBDCFA501B401DACFEF92C8
:101DA000FF921F93CF93DF9300D0CDB7DEB7182FEC
:101DB00022E030E0AE014F5F5F4F60E270E00E94D2
:101DC000E90BE980FA80FE24EF24FE2422E030E0D3
:101DD000AE014F5F5F4F60E270E0812F0E94E90B20
:101DE00089819A81982789279827E816F90689F426
:101DF00087E0189FF0011124EF52FD4FF582E48235
:101E0000C7010F900F90DF91CF911F91FF90EF903E
:101E100008957C01DBCF1F93CF93DF93182F80E5CC
:101E200091E00E946202812F0E94CF0EEC0163E0DC
:101E300070E0812F0E94870A873121F08C3111F0E8
:101E4000D0E0C0E0CE01DF91CF911F910895CF93F4
:101E5000DF93EC018C85843060F40E94D90A8731CD
:101E600011F08C3131F48C850E940B0F8115984054
:101E700088F3DF91CF910895FC018485843010F4BC
:101E80000C940B0F90E080E008959F92AF92BF9268
:101E9000CF92DF92EF92FF920F931F93CF93DF9336
:101EA0008C015B01942EE52EFC01C688D788F08C4E
:101EB00080E591E00E9462028F2D0E94CF0EC92D15
:101EC000DE2D8C179D0708F4EC019E01A501B601DB
:101ED0008F2D0E945A0EF801868997898C0F9D1FBD
:101EE000978B868BCE01DF91CF911F910F91FF9041
:101EF000EF90DF90CF90BF90AF909F9008958F921A
:101F00009F92AF92BF92CF92DF92EF92FF920F9388
:101F10001F93CF936C015B018A01FC01C485C4301F
:101F2000F0F57A014130584018F0E12C88E0F82EA5
:101F300080E591E00E9462028C2F0E94CF0E4C013E
:101F400063E070E08C2F0E94870A873111F08C319A
:101F500049F58E149F0460F380E591E00E946202CF
:101F60009701A50170E060E08C2F0E945A0E60E29C
:101F700070E08C2F0E94A40A62E070E08C2F0E9417
:101F8000870A84FD17C063E070E08C2F0E94870AE7
:101F900081110BC081E090E0F6019383828310E011
:101FA00000E010C0F12CE12CD7CF80E591E00E9439
:101FB0006202E2CF40E162E070E08C2F0E9486076F
:101FC000EF2841F3C801CF911F910F91FF90EF903F
:101FD000DF90CF90BF90AF909F908F900895FF9229
:101FE0000F931F93CF93DF9300D0CDB7DEB7F82EBA
:101FF00022E030E0AE014F5F5F4F66E270E00E948A
:10200000E90B09811A8110270127102722E030E00F
:10201000AE014F5F5F4F66E270E08F2D0E94E90BCB
:1020200089819A819827892798270817190749F4E1
:10203000C8010F900F90DF91CF911F910F91FF90EA
:1020400008958C01E3CF1F93CF93DF93182F87E080
:10205000189FE0011124CF52DD4F888199810097AC
:1020600061F480E591E00E946202812F0E94EF0FEF
:102070002E81821B910999838883DF91CF911F91D3
:102080000895FC018485843010F40C94231090E0B2
:1020900080E008954F925F927F928F929F92AF92CD
:1020A000BF92CF92DF92EF92FF920F931F93CF9345
:1020B000DF9300D0CDB7DEB7782E6B014A01A82E92
:1020C000B12C27E0829FC0011124FC01EF52FD4F8B
:1020D0007F010081118180E591E00E946202081574
:1020E000190554F4872D0E94EF0FF70126818C010A
:1020F000021B1109118300830115110529F563E005
:1021000070E0872D0E94870A843159F0882349F0B6
:1021100001E010E08C3111F410E000E01195019520
:102120001109C8010F900F90DF91CF911F910F916E
:10213000FF90EF90DF90CF90BF90AF909F908F90E7
:102140007F905F904F900895801691060CF4840163
:1021500087E08A9DF0018B9DF00D1124EF52FD4F19
:10216000E280F380C114D10451F12701F7E05F222E
:10217000872D0E943D07840D951D2091ED02273388
:1021800009F453C09801240D351D2130384008F45E
:102190004CC020E038E0490184189508A401B6013C
:1021A0000E94FC092601480C591C6801C818D9086E
:1021B000872D0E943D07A601B2010E94FC09E00E96
:1021C000F11E87E08A9DF0018B9DF00D1124EF52E6
:1021D000FD4FF382E28220813181201B310B31835C
:1021E00020838681800F912F911D8A3F910510F4E5
:1021F000232BF1F487E08A9DF0018B9DF00D1124D3
:10220000EF52FD4F1682F982EA8222E030E0AE0101
:102210004F5F5F4F68E270E0872D0E944B0760E4DC
:1022200070E0872D0E94A40A7CCFA801B601C5CF1B
:10223000868377CFCF93DF93FC01218D328D2115DB
:10224000310529F48FEF9FEFDF91CF910895EC01D5
:10225000808D4217530708F0A9010E944A101816F2
:10226000190684F7298D3A8D281B390B3A8F298F4F
:10227000EBCF0F931F93CF93DF931F92CDB7DEB7B2
:10228000FC01218D328D232B41F48FEF9FEF0F90B6
:10229000DF91CF911F910F9108958C0141E050E0A3
:1022A000BE016F5F7F4FFC01808D0E944A1018169F
:1022B00019065CF7F801818D928D0197928F818FBD
:1022C000898190E0E4CFCF93DF931F92CDB7DEB743
:1022D00041E050E0BE016F5F7F4FFC0184850E94AA
:1022E0004A101816190634F4898190E00F90DF9196
:1022F000CF9108958FEF9FEFF9CFFC018485843053
:1023000010F40C944A1090E080E008950F931F930E
:10231000CF93DF9300D0CDB7DEB7FC012485243006
:10232000E0F48C0180E591E00E94620222E030E05E
:10233000AE014F5F5F4F60E170E0F80184850E945D
:10234000E90B89819A819827892798270F900F9008
:10235000DF91CF911F910F91089590E080E0F6CF2B
:102360000F931F93CF93DF9300D0CDB7DEB7FC015F
:1023700024852430E0F48C0180E591E00E94620223
:1023800022E030E0AE014F5F5F4F64E070E0F801A3
:1023900084850E94E90B89819A819827892798274B
:1023A0000F900F90DF91CF911F910F91089590E0C2
:1023B00080E0F6CFDC0185EA91E08D939D9384E087
:1023C000FB0101900D928A95E1F70895EF92FF923B
:1023D0000F931F93CF93DF9300D000D0CDB7DEB71C
:1023E0008C017B01FB0184858430A8F085EA91E0B3
:1023F000F801918380831282138214821582C801AE
:102400000F900F900F900F90DF91CF911F910F9130
:10241000FF90EF90089580E591E00E94620224E031
:1024200030E0AE014F5F5F4F6CE070E0F7018485F4
:102430000E94E90BBE016F5F7F4FC8010E94DA1155
:10244000DECF0F931F93CF93DF93CDB7DEB72897DF
:102450000FB6F894DEBF0FBECDBF8C01D8015996E0
:102460004D915C915A974115510551F0ED91FC91B8
:10247000048CF58DE02D70E060E0C8010995EECF89
:10248000F801808D0E942310892BB1F148E050E0C3
:10249000BE016F5F7F4FD80158968C910E944A1001
:1024A00018161906F4F4D801509684E0FE0131960E
:1024B00001900D928A95E1F78D8190E0982F882701
:1024C0002E81820F911DF801958B848B8F81282F8F
:1024D00030E0322F22278885820F932F911D928F13
:1024E000818F28960FB6F894DEBF0FBECDBFDF9167
:1024F000CF911F910F91089590E080E0F2CF4F921D
:102500005F926F927F928F929F92AF92BF92CF9283
:10251000DF92EF92FF920F931F93CF93DF93CDB78C
:10252000DEB763970FB6F894DEBF0FBECDBF7C0158
:102530006B013A01FB0120E090E080E06AE031911C
:10254000332309F461C040ED430F4A3008F04DC019
:10255000689FA001699F500D1124CA01C097830F85
:10256000911D37FD9A958F3F910549F340F3F7018F
:1025700042815381648175818091B7039091B80342
:10258000A091B903B091BA03481759076A077B07AE
:1025900009F40DC28701085F1F4F0E94B3036F70DB
:1025A00077277C5FC8010E94350E813009F004C294
:1025B00085EA91E09A838983F70182819381A481DE
:1025C000B5818B839C83AD83BE8345E350E0BE0120
:1025D0006F5F7F4FC8010E94DB07892BA9F5D12CC3
:1025E000C12CC8010E94CC0A17C03E3209F0BFCFEF
:1025F000233009F4BCCFD301A20FB11D12968C93E6
:102600002F5F90E080E09BCF233009F0B0CFF30143
:102610008583CC24C394D12CC60163960FB6F8945D
:10262000DEBF0FBECDBFDF91CF911F910F91FF9005
:10263000EF90DF90CF90BF90AF909F908F907F9062
:102640006F905F904F9008950E94B303F7017783D6
:10265000668342E050E0B7016A5F7F4FC8010E9485
:10266000450F81E090E09A83898342E050E0BE010B
:102670006F5F7F4FC8010E94450F80E091E09A8311
:10268000898342E050E0BE016F5F7F4FC8010E9426
:10269000450F1A82198242E050E0BE016F5F7F4F02
:1026A000C8010E94450F42E050E0BE016F5F7F4FBE
:1026B000C8010E94450F42E050E0BE016F5F7F4FAE
:1026C000C8010E94450F5601F6018081882301F15F
:1026D0006501F60181912F01882311F08E32B1F44A
:1026E00046018A189B081814190474F48D8641E079
:1026F00050E0BE01635F7F4FC8010E94450FA401F7
:10270000B501C8010E94450F5201DECF6201E1CF41
:102710001D8641E050E0BE01635F7F4FC8010E940B
:10272000450FC12CDD24D394DA82C98242E050E007
:10273000BE016F5F7F4FC8010E94450FDA82C982D8
:1027400042E050E0BE016F5F7F4FC8010E94450F1D
:10275000C8010E94400B892B09F441CFF3E0AF2E52
:10276000B12C230122E0420E511CD4C0F70142815A
:10277000538164817581808D918DA28DB38D4817B1
:1027800059076A077B0709F008C1848D958DC597A5
:1027900009F003C181A192A15DEFC52EDD24DA9479
:1027A0000C970CF4ADC04CE050E0BE016F5F7F4F62
:1027B000C8010E941A118B819C819827892798272C
:1027C0009A8B898BF7014681578129813A8142177B
:1027D000530709F0E7C097FFE5C08F7092703BEF99
:1027E000C32EDD24DA94892B09F08AC06F807884A7
:1027F0007624672476242AEFC22EDD24DA9461142D
:10280000710409F47DC0D12CC12C8D819E81982743
:1028100089279827C816D906F8F441E050E0BE0190
:10282000635F7F4FC8010E941A114D85442331F028
:1028300050E070E060E0C8010E941A118D8581119E
:10284000ECCF44E050E070E060E0C8010E941A1153
:10285000FFEFCF1ADF0AD9CF912C812C41E050E055
:10286000BE016D5E7F4FC8010E941A114B89842FF3
:10287000807C09F06CC0442331F050E070E060E0EF
:10288000C8010E941A118B898111E8CF42E050E003
:10289000BE01615F7F4FC8010E941A1142E050E003
:1028A000BE01635F7F4FC8010E941A1144E050E0EF
:1028B00070E060E0C8010E941A1142E050E0BE01E1
:1028C0006F5E7F4FC8010E941A118F8598894989D0
:1028D0005A898115914009F043C0CD84DE84DC24FF
:1028E000CD24DC2481E0C816D104D1F54115544033
:1028F00009F04AC044E050E0B201C8010E941A1138
:1029000021E0A21AB10809F46CCEFFEFCF16DF0662
:1029100009F067CE0E94B3033B014C01C8010E943D
:102920002112181619060CF421CF0E94B303661960
:10293000770988099909693873418105910548F536
:1029400062E370E080E090E00E948003E7CF41E026
:1029500050E070E060E0C8010E941A111B8A93CF1A
:1029600054274527542770E060E0C8010E941A11DF
:10297000FFEF8F1A9F0A6814790409F06FCF96EF62
:10298000C92EDD24DA94BCCFE7EFCE2EDD24DA9415
:10299000B7CFCC24CA94DC2CB3CF6EEFC62EDD2487
:1029A000DA94AECF4CEFC42EDD24DA94A9CF8EEFAB
:1029B000C82EDD24DA9430CED12CC12C2DCECF926E
:1029C000DF92EF92FF920F931F93CF93DF93CDB7D8
:1029D000DEB7AF970FB6F894DEBF0FBECDBF7C0158
:1029E0006A0105EA11E01A8309831C861B8688EEBA
:1029F00093E0A0E0B0E08D879E87AF87B88B87E338
:102A000091E09A878987188F0F8B198E1A8E1B8EEB
:102A10001C8E84E089A31BA70AA71CA61DA61EA6C0
:102A20001FA68091AB039091AC03A091AD03B09130
:102A3000AE038EA39FA3A8A7B9A78B839C83AD8366
:102A4000BE8318861F82AE01465D5F4FCE010196A0
:102A50000E947F1281309105B1F4D701ED91FC9174
:102A60000488F589E02D1DA30CA38CA59DA5AEA51A
:102A7000BFA58EA39FA3A8A7B9A7A601BE016C5DA1
:102A80007F4FC7010995AF960FB6F894DEBF0FBE12
:102A9000CDBFDF91CF911F910F91FF90EF90DF900D
:102AA000CF900895CF92DF92EF92FF920F931F93F2
:102AB000CF93DF93CDB7DEB7AF970FB6F894DEBFF5
:102AC0000FBECDBF8C016B017A0185EA91E09A833C
:102AD00089831B821C821D821E821C861B8648EEF7
:102AE00053E060E070E04D875E876F87788B27E367
:102AF00031E03A872987988F8F8B198E1A8E1B8E1B
:102B00001C8E24E029A39BA78AA71CA61DA61EA68F
:102B10001FA6D8011C968C91843060F40E94D90ABB
:102B2000882321F0F80184850E94B40A84E0D8014A
:102B30001C968C938091AB039091AC03A091AD0354
:102B4000B091AE038EA39FA3A8A7B9A78B839C8344
:102B5000AD83BE8318861F82AE01465D5F4FB6010E
:102B6000CE0101960E947F120097C1F0D801ED912D
:102B7000FC910684F785E02D85EA91E09DA38CA366
:102B80008CA59DA5AEA5BFA58EA39FA3A8A7B9A7F9
:102B9000A701BE016C5D7F4FC8010995AF960FB6C6
:102BA000F894DEBF0FBECDBFDF91CF911F910F9183
:102BB000FF90EF90DF90CF9008950F931F93CF93E6
:102BC000DF93EC01FB0101900020E9F78F01061B68
:102BD000170B8A819B81A801480F591F2C813D81C9
:102BE0002417350768F028813981A801820F931FC7
:102BF0000E94B8304A815B81400F511F5B834A833A
:102C0000DF91CF911F910F9108953F924F925F9264
:102C10006F927F928F929F92AF92BF92CF92DF92EC
:102C2000EF92FF920F931F93CF93DF93CDB7DEB751
:102C3000EA970FB6F894DEBF0FBECDBF7C012A0124
:102C40003B0169010E94B3034B015C0187010D5BED
:102C50001F4FC8010E942112181619069CF00E94ED
:102C6000B303681979098A099B094616570668064D
:102C7000790608F466C162E370E080E090E00E94AB
:102C80008003E7CF42E250E0BE016F5F7F4FC80193
:102C90000E941A1189818230D1F0312C832DEA965D
:102CA0000FB6F894DEBF0FBECDBFDF91CF911F915D
:102CB0000F91FF90EF90DF90CF90BF90AF909F90DB
:102CC0008F907F906F905F904F903F900895F801A4
:102CD000848995898334910501F76D817E818F8187
:102CE00098850E9433304B015C01F601808291820D
:102CF000A282B38246E050E0B701685F7F4FCE0109
:102D00004D960E94AB30892B41F6F701808191816D
:102D1000A281B38188169906AA06BB0608F4BDCF26
:102D200084819581A681B78188159905AA05BB057F
:102D300008F4B3CF89899A89AB89BC89868797873C
:102D4000A08BB18B4EEC50E070E060E0C8010E94B7
:102D50001A11312CC701829698AB8FA7F701B6964E
:102D6000FAABE9AB08969CAB8BAB67019AE1C90E55
:102D7000D11CBD96FEABEDABC701429698AF8FABB1
:102D8000FD97FAAFE9AF4701FEE18F0E911CF80104
:102D9000818D928D181619060CF080CFC8010E9403
:102DA00039118333910509F4B2C014F581309105CE
:102DB00009F464C044F4892B51F3C8010E9439110D
:102DC000AC01552775C08330910509F462C00697A0
:102DD000A1F7C8010E943911B82E44E050E0B401B7
:102DE000C8010E941A11EB2DE450FF0BAF0160C027
:102DF0008A33910509F45FC084F585339105B1F1FB
:102E0000C697D9F6C8010E9439115C01B601CE01FE
:102E100089960E94DA118BA59CA5ADA5BEA5892B2C
:102E20008A2B8B2BB1F0EDA9FEA9408051806280E6
:102E30007380B601CE0183960E94DA118DA19EA106
:102E4000AFA1B8A5A501481659066A067B0609F088
:102E5000B8CF44E050E0B60118C08B33910509F4B7
:102E600040C08F3F910509F492CFA7CFC8010E94BF
:102E70003911C8010E943911382E89CFC8010E942A
:102E8000391144E050E06FA978ADC8010E941A11D1
:102E90007ECFC8010E943911B82E44E050E069ADE0
:102EA0007AADC8010E941A118B2D8450990BAC0188
:102EB00070E060E0EACFC8010E94391144E050E0C0
:102EC00069A97AA9C8010E941A11F70166A177A120
:102ED00080A591A50E94333066A377A380A791A710
:102EE00056CFC8010E94391144E050E06BA97CA97B
:102EF000C8010E941A11F70162A573A584A595A5C2
:102F00000E94333062A773A784A795A740CFC8015A
:102F10000E94391144E050E06FA578A9C8010E94D1
:102F20001A11F70162A173A184A195A10E94333007
:102F300062A373A384A395A366A777A780AB91AB85
:102F400026CF33243A94AACE7F928F929F92AF924B
:102F5000BF92CF92DF92EF92FF920F931F93CF9386
:102F6000DF93CDB7DEB7A6970FB6F894DEBF0FBEDE
:102F7000CDBF8C01762E942E852E20E2A22ECE017E
:102F800001967C01DC01EA2D1D92EA95E9F76801C2
:102F9000F3E4CF0ED11C85EA91E09AA389A38FEFC9
:102FA0008BA38CA38DA38EA343E450E0BE016F5D81
:102FB0007F4FC6010E94DB07019609F4BFC081E084
:102FC00089838A8386E0B82EBB821C82D80114963E
:102FD0006D917D918D919C9117970E9433306D83F7
:102FE0007E838F83988789869A8680E890E09C8785
:102FF0008B874CE150E0B701C6010E94450FFE01EE
:1030000037968AE1DF011D928A95E9F74801B8E019
:103010008B0E911CF401D70101900D92BA94E1F747
:1030200040E150E0B701C6010E94450FF70111923F
:10303000AA94E9F796E0A92EB12C40E250E0B7013E
:10304000C6010E94450FF1E0AF1AB108B1F783E65F
:10305000898392E89A8393E59B838C8385E38D83B0
:1030600081E08E837F829DE3988797E099878A87A6
:1030700086E0F401DE011B9601900D928A95E1F73E
:103080008CE0898B8A8B6AEA71E0CE0143960E94BC
:10309000D130D8011B966C91CE0149960E946502F1
:1030A000F8016485CE014B960E946502D8011D96F9
:1030B0006C91CE014D960E9465024EE150E0B70141
:1030C000C6010E94450FB3E07B121EC082E38983D4
:1030D00084E08A83F80196859B8397859C839089F9
:1030E0009D8391899E8396E39F838887828D8987BC
:1030F000838D8A87848D8B87858D8C874CE050E00B
:10310000B701C6010E94450F87E3898386E08A8361
:1031100091E09B8393E09C838D838FE08E838AE391
:103120008F838BE388878FEF898749E050E0B70171
:10313000C6010E94450FC6010E94400BA6960FB61D
:10314000F894DEBF0FBECDBFDF91CF911F910F91DD
:10315000FF90EF90DF90CF90BF90AF909F908F90B7
:103160007F9008950F931F93CF93DF93CDB7DEB772
:1031700028970FB6F894DEBF0FBECDBF8C01CB01F0
:103180004AE0BE016F5F7F4F0E94502BBE016F5F10
:103190007F4FC8010E94DD1528960FB6F894DEBF58
:1031A0000FBECDBFDF91CF911F910F9108953F9238
:1031B0004F925F926F927F928F929F92AF92BF9247
:1031C000CF92DF92EF92FF920F931F93CF93DF93F3
:1031D000CDB7DEB7A1970FB6F894DEBF0FBECDBF57
:1031E0005C010DB71EB719A308A360E070E0CB0126
:1031F0000E948003D50191968D919C919297912C7C
:10320000029709F41AC490968C9190978F5F9096CC
:103210008C9390975E962D913C91232B19F09924D5
:10322000939404C48330D8F7F501828593850E9476
:103230003408882309F4DAC38E010F5F1F4F380169
:10324000D5011A96ED91FC9180819181DC01ED917F
:10325000FC910084F185E02D0995181619060CF0F3
:10326000C5C3D5011A96ED91FC9145E050E0BE0131
:10327000695E7F4F808191810E94C504009701F3B0
:10328000059709F074C0888D998D9827892798270C
:10329000998F888FEA8CFB8CFE24EF24FE24FB8E12
:1032A000EA8E892B09F463C08F89811174C00E9452
:1032B000B303F501608B718B828B938B21A132A1BB
:1032C0008A8D9B8D232B09F062C0288D398D21308A
:1032D000310509F05CC089309105E1F1883C910528
:1032E00019F0049709F048C00E9439098BE093E077
:1032F0000E940906D50150964D915D916D917C918A
:10330000539758968D919D910D90BC91A02D481B7F
:10331000590B6A0B7B0B2AE08EEE92E00E9492081A
:1033200086E093E00E948208F50180899189A28954
:10333000B389808F918FA28FB38F01E010E012A329
:1033400001A3C5010E949B2160E070E0CB010E94B7
:10335000800376CF0E9439098FE094E00E948208B2
:1033600083E090E0D50192969C938E939197D5013E
:103370001A968D919C9157C30E94390988EF93E06A
:103380000E9409068A8D9B8D0E94DE08F0CF05976A
:1033900009F056CFECCFB1E0EB16FB0690F00E949F
:1033A000390987EE93E00E9409068A8D9B8D0E9461
:1033B000DE08F50112A211A2828593850E944708BA
:1033C0003FCF8DB69EB6C70101960DB71EB7081B3D
:1033D000190B0FB6F8941EBF0FBE0DBF0F5F1F4F26
:1033E000D5011A96ED91FC91A701B80180819181D8
:1033F0000E94C5048E159F0509F064C0EA8DFB8DFF
:10340000E00FF11F10820E94B303F501608B718BF6
:10341000828B938B8F89843109F4CAC0E8F48F3092
:1034200009F4C6C0813109F4B5C2863009F0D6C2AC
:10343000488D598DD12CC12CF12CE12C08EC10E0D9
:1034400030E020E060E0C5010E94261E0FB6F8942F
:103450009EBE0FBE8DBEF4CE8932F1F0873309F4E3
:10346000AEC28D3109F0BAC281A192A1892B01F7B8
:103470000E94390981EE93E00E94820801E010E089
:10348000F50112A301A3C5010E949B2160E070E039
:10349000CB010E948003CCCF86859785892B39F498
:1034A00080E490E00E943929F50197878687EA8CAD
:1034B000FB8CE00EF11E1A830983FC82EB820E1551
:1034C0001F0530F00FB6F8949EBE0FBE8DBE4FCFD5
:1034D00040E450E0B801D5011E968D919C910E9468
:1034E000D830D5011E96ED91FC9117AEC3010E9414
:1034F0007921FC018081918100E510E08E159F0506
:1035000070F489819A81009709F44EC02B813C8127
:103510008217930708F048C00E94202B8B010E945D
:10352000390981ED93E00E940906D5011E966D913F
:103530007C916115710521F08EEE92E00E94730876
:103540006AE38EEE92E00E941505C8010E94DE0833
:10355000F501828593850E944708D5011A96ED9161
:10356000FC911B971E968D919C911F979187808748
:103570001387028792961C921E9291970E94B30322
:10358000DC01CB0188589341A109B109F501848B75
:10359000958BA68BB78B808B918BA28BB38B808FF7
:1035A000918FA28FB38F52CF60E070E0CB01B6CF86
:1035B000888D998DD5015F969C938E935E974A8CEA
:1035C0005B8C6801C40CD51C1D8F0C8FDF8ECE8EDA
:1035D0000C151D0508F05EC1F801E080F180CE01F8
:1035E0004C960E947921DC018D919C918C159D0552
:1035F00008F050C18C8D9D8DFC012081213459F43F
:1036000001960E94022B4EE0342E380E069744F0AD
:1036100033243A9405C0CE014C960E948C21382E5A
:10362000F6E7EF16F2E7FF0609F457C140F531E679
:10363000E31632E7F30609F4EFC044E6E41642E786
:10364000F40609F483C050E7E5165DE6F50609F0D7
:103650008AC18C8D9D8D8C159D0508F01BC1FC01C8
:103660002081213409F03FC001960E94022B3EE0E8
:10367000F32EF80E0697E4F1FF24FA9439C084E69D
:10368000E81687E7F80609F4ACC096E7E91697E76D
:10369000F90609F43AC1A1E6EA16A7E7FA0609F025
:1036A00062C1CE014C960E947921DC018D919C91E2
:1036B0008C159D0508F0EEC061E0832D0E940A0381
:1036C000CE014C960E948C218C0161E0832D0E94DA
:1036D0000A030115110509F49AC00F3F110509F0FD
:1036E000B4C061E095C0CE014C960E948C21F82EAA
:1036F000CE014C960E9479210C8D1D8D61EB71E0FD
:10370000C8010E94C83060E0892B79F064EB71E059
:10371000C8010E94C830892B39F068EB71E0C801FC
:103720000E94C830892B49F461E08F2D0E940A0362
:10373000CE014C960E9479218CCF6CEB71E0C801D0
:103740000E94C830892BA1F762E0EFCF7A8A698A9C
:103750001C8A1B8A00E110E01E8B0D8B6FEB71E061
:10376000CE0141960E94DD15032D10E0B801CE0177
:1037700041960E94B218F801ED5DFC4F8491F8016A
:10378000EA5AFB4FF4900E5B1B4FF801049160E086
:1037900070E0002389F081110E94B302E02FF0E075
:1037A000EE0FFF1FE75EFC4FA591B491EC91FE2256
:1037B00061E070E009F460E0CE0141960E94B21829
:1037C0000B891C890150110929893A89D12CC12CF6
:1037D000F12CE12C50E040E064E1C5010E94261E7E
:1037E00059C0CE014C960E947921DC018D919C91AB
:1037F0008C159D0508F04EC061E0832D0E940A03E0
:10380000CE014C960E948C2161E0892B09F460E086
:10381000832D0E94DC023EC07A8A698A1C8A1B8A38
:10382000E0E1F0E0FE8BED8B62EC71E0CE014196C1
:103830000E94DD15632D70E0CE0141960E94B21802
:10384000832D0E944603BC01B7CFE32DF0E0ED5D70
:10385000FC4FE491E33039F148F4E130B9F0E23063
:10386000E9F0003811050CF03CCFD1CFE73029F159
:10387000E83059F1E430A9F78091800080628093AC
:10388000800010938B0000938A0004C084B5806888
:1038900084BD07BDF501178E168ED8CD84B5806224
:1038A00084BD08BDF7CF8091800080688093800040
:1038B0001093890000938800EDCF8091B00080685C
:1038C0008093B0000093B300E5CF8091B000806298
:1038D0008093B0000093B400DDCFE32DF0E0FA83D5
:1038E000E983BFE1B315B0F2EE0FFF1FE95CFC4FB7
:1038F000259134912115310569F2E2E021363E0728
:1039000049F2C301F9010995C5CFCE014C960E9439
:1039100079218C8D9D8D9C01201B310B421A530AFD
:103920009A8389835C824B825E824D82E32DF0E034
:10393000FA8BE98B0FE1031508F4ACCFEE0FFF1FF4
:10394000E958FC4F259134912115310509F4A2CF96
:1039500012E02036310709F49DCFB301CE01419624
:10396000F901099597CF0E94390987EB93E00E94EE
:103970000906C8010E944B09D5015E964D915C91E4
:10398000D12CC12CF12CE12C02E010E030E020E041
:1039900060E023CF8A8D9B8D800F911F1A8309834E
:1039A0009C838B830817190708F050CDC3010E9430
:1039B0007921D5015F961C921E925E9747CD8A8D24
:1039C0009B8D892B09F442CD0E94390988EC93E044
:1039D0000E940906C8010E944B0938CDF50112A2C8
:1039E00011A2828593850E94470830CD0E94B303BF
:1039F0002B013C01F501828593850E943408D50195
:103A000091962D913C9192972130310509F094C007
:103A1000F501811132C0408E518E628E738E12A2DA
:103A200011A2828593850E944708912CD50190961A
:103A30008C919097815090968C93892DE8A1F9A153
:103A40000FB6F894FEBF0FBEEDBFA1960FB6F89467
:103A5000DEBF0FBECDBFDF91CF911F910F91FF90C1
:103A6000EF90DF90CF90BF90AF909F908F907F901E
:103A70006F905F904F903F90089580899189A289BF
:103A8000B38993018201081B190B2A0B3B0BD90147
:103A9000C801893116EF9107A105B10560F00E94B8
:103AA000390980E394E00E948208D50192961C9225
:103AB0001E9291975DCC893C9F4AA105B10598F46F
:103AC000F50184899589A689B78993018201081B2C
:103AD000190B2A0B3B0BD901C801893C9F4AA10550
:103AE000B10508F49CCBF501808D918DA28DB38D2D
:103AF00093018201081B190B2A0B3B0BD901C8014A
:103B000081379741A105B10508F489CBD12CC12C8F
:103B1000F12CE12C10E000E030E020E050E040E04B
:103B200066E0C5010E94261ED50158964D925D9211
:103B30006D927C925B9773CB232B09F070CBF501D0
:103B4000408D518D628D738D93018201041B150B85
:103B5000260B370BB901A8018823B1F04137574133
:103B60006105710508F45BCB0E94390982E294E09B
:103B70000E948208D5011A968D919C910E94470857
:103B8000F50112A211A251CF4938534161057105C7
:103B900008F445CB1A968D919C910E944708F50137
:103BA00002851385D8011A966D917C91C8010E94F7
:103BB0005E09F801848781110DC082859385803567
:103BC000910599F460E97FE1C8010E945E09D8017E
:103BD0001C968C93D8011C969C90911011C0F501F5
:103BE000408E518E628E738E21CF80399F4191F726
:103BF00060E570E0C8010E945E09F8018487EACFA1
:103C000081E090E0D5015D969C938E935C971C9625
:103C10002D913C91F90101900020E9F731978F0136
:103C2000021B130BD12CC12CF12CE12C41E050E0F4
:103C30006DE1C5010E94261EF50184899589A6893A
:103C4000B789808F918FA28FB38FF0CE2F923F9242
:103C50004F925F926F927F928F929F92AF92BF929C
:103C6000CF92DF92EF92FF920F931F93CF93DF9348
:103C7000CDB7DEB7C854D1090FB6F894DEBF0FBE7A
:103C8000CDBF4C0168AF5AAF49AF27963FAF2EAFBB
:103C9000279721961FAF0EAF21972996FFAEEEAE64
:103CA00029972396DFAECEAE2397DC011A968D912D
:103CB0009C910E943408882309F4B7C1B8ADBB2396
:103CC00051F0B63041F0BD3131F0F40181A192A143
:103CD000019709F0AAC188AD8F508630A0F5D401B4
:103CE00054964D915D916D917C9157975096CD90E2
:103CF000DD90ED90FC905397C416D506E606F706C6
:103D000010F46A017B01B2E4CB0ED11CE11CF11C62
:103D10000E94B303A7019601261B370B480B590BD2
:103D2000DA01C901B7FD9BC1C4010E94D7180E94E6
:103D3000B303A7019601261B370B480B590BDA0179
:103D4000C901B7FFF1CFF40180819181019709F09A
:103D5000B2C082E090E091838083228133814481EC
:103D600055816681778180859185A0E0FE017A96F4
:103D70000E94993009F486C1FBABEAAB1DAA1CAACC
:103D800088E190E09FAB8EAB6FEA71E0CE01C29606
:103D90000E94DD15D40112964C90129713965C90F8
:103DA000139714966C90149715967C901597169609
:103DB000BC91BBAFF401F781FCAFD40118962C90F5
:103DC000189719963C90198E9201A3016BAD7F2F25
:103DD000C101A0E00E94993009F44AC1FE01799620
:103DE0002596FFAFEEAF259727E130E03EAF2DAF30
:103DF0008AE0A82EB12CC12CD12CE12CF12C00E0B2
:103E000010E09201A3016BAD7CADC1010E943A307C
:103E1000F901EB53FE4F80812596AEADBFAD2597DE
:103E20008E932596BFAFAEAF2597EDADFEAD319722
:103E3000FEAFEDAF9AE0A92EB12CC12CD12CE12C14
:103E4000F12C00E010E09201A3016BAD7CADC1014B
:103E50000E943C3029013A016BAF7CAF1C01A0E00D
:103E60000E94993021F04DAD5EAD452B09F66DAD48
:103E70007EAD6C0F7D1F6E5F7F4F09F0FEC0EAA91B
:103E8000FBA98CA99DA99C012F5F3F4F3DAB2CAB9B
:103E9000E80FF91F10820CA91DA9015011092AA9C8
:103EA0003BA9D12CC12CF12CE12C50E040E065E184
:103EB000C4010E94261E29AD3AAD232BB9F4D401CA
:103EC0005E960D90BC91A02DBAAFA9AFAB2B71F44B
:103ED000F401848D958D019609F4E9C0958F848F46
:103EE000F401048CF58DE02DFAAFE9AF27962EADE5
:103EF0003FAD279721960EAD1FAD21970B5F1F4F4A
:103F0000232B11F405E010E029964EAD5FAD299703
:103F100090E080E0452B21F023968EAD9FAD239756
:103F2000080F191F58AD598389AD9AAD9827892775
:103F300098279B838A8321968EAD9FAD21972396E8
:103F4000AEADBFAD23978A0F9B1F9827892798276F
:103F50009D838C83D4011A96ED91FC91808191818F
:103F6000DC01ED91FC910280F381E02D45E050E011
:103F7000BE016F5F7F4F09957C0160E070E0CB016F
:103F80000E948003B8ADBB2309F444C02196EEAD76
:103F9000FFAD2197EF2BE1F0D4011A96ED91FC9142
:103FA00080819181DC01ED91FC910280F381E02D13
:103FB00021964EAD5FAD219727966EAD7FAD2797C9
:103FC0000995E80EF91E60E070E0CB010E948003C5
:103FD0002396EEADFFAD2397EF2BE1F0D4011A96B7
:103FE000ED91FC9180819181DC01ED91FC91028049
:103FF000F381E02D23964EAD5FAD239729966EADEC
:104000007FAD29970995E80EF91E60E070E0CB01BD
:104010000E948003E016F10609F44EC0F40112A2DA
:1040200011A2828593850E944708C85BDF4F0FB6B7
:10403000F894DEBF0FBECDBFDF91CF911F910F91DE
:10404000FF90EF90DF90CF90BF90AF909F908F90B8
:104050007F906F905F904F903F902F900895D40184
:1040600090968C9181116FCEC4010E94D7186BCEAF
:1040700080E3888FBE01685E7F4FCE01C2960E94AA
:10408000DD1509CFFA83E9831C821B8284E090E06E
:104090009E838D8367EE71E0CE0101960E94DD154F
:1040A0000B811C810150110929813A81FACE81E0EE
:1040B00090E0958F848F14CF0E94B303D40154965F
:1040C0006D937D938D939C935797AFCFCF92DF9253
:1040D000EF92FF920F931F93CF93DF93CDB7DEB78D
:1040E000C75AD1090FB6F894DEBF0FBECDBF8C0101
:1040F0006A017B01CE010196CE55DF4F99838883FB
:10410000C25AD040CC55DF4F19821882C45AD040D1
:1041100080E890E0CA55DF4F99838883C65AD04023
:1041200069EE71E0CE018E559F4F0E94DD15B801FA
:10413000CE018E559F4F0E94B2188E010F571F4F10
:1041400023E045E0C701B6010E941B29B801CE015A
:104150008E559F4F0E94DD15CC55DF4F0881198188
:10416000C45AD04001501109CE55DF4F2881398102
:10417000C25AD040D12CC12CF12CE12C50E040E0AF
:1041800064E184ED93E00E94261EC955DF4F0FB60F
:10419000F894DEBF0FBECDBFDF91CF911F910F917D
:1041A000FF90EF90DF90CF9008950C94D5291F9247
:1041B0000F920FB60F9211242F933F938F939F93DB
:1041C000AF93BF938091C9029091CA02A091CB0294
:1041D000B091CC023091C80223E0230F2D3758F55F
:1041E0000196A11DB11D2093C8028093C90290932E
:1041F000CA02A093CB02B093CC028091CD029091E1
:10420000CE02A091CF02B091D0020196A11DB11DA6
:104210008093CD029093CE02A093CF02B093D002B0
:10422000BF91AF919F918F913F912F910F900FBEB2
:104230000F901F90189526E8230F0296A11DB11D1F
:10424000D2CF1F920F920FB60F9211242F933F934C
:104250004F935F936F937F938F939F93AF93BF938E
:10426000EF93FF938EEE92E00E949A05FF91EF91FB
:10427000BF91AF919F918F917F916F915F914F917E
:104280003F912F910F900FBE0F901F9018951F9286
:104290000F920FB60F9211242F938F939F93EF934A
:1042A000FF93E091FE02F091FF028081E091040310
:1042B000F091050382FD1BC09081809107038F5F01
:1042C0008F7320910803821741F0E0910703F0E01B
:1042D000E251FD4F958F80930703FF91EF919F91DE
:1042E0008F912F910F900FBE0F901F901895808186
:1042F000F4CFDC01ED91FC911197309761F01296AB
:104300002D913C911397E217F30728F401900020B8
:10431000E9F7ED93FC930895FC018081918100976A
:1043200039F0228133818217930710F40C94022B09
:1043300090E080E00895AF92BF92CF92DF92EF922B
:10434000FF920F931F93CF93DF93CDB7DEB7CC5C73
:10435000D1090FB6F894DEBF0FBECDBF5C01CE0110
:1043600089579F4FC953DF4F99838883C75CD040DB
:10437000C753DF4F19821882C95CD04080E490E0B7
:10438000C553DF4F99838883CB5CD04066ED71E0E5
:10439000CE0189539F4F0E94DD156BED71E0CE0178
:1043A00089539F4F0E94DD1546E850E06DE671E0AD
:1043B000CE0101960E94472BC753DF4FC880D9809A
:1043C000C95CD04081E0C81AD108C953DF4FE880EA
:1043D000F980C75CD04006E810E09E012F5F3F4F98
:1043E00050E040E061E1C5010E94261EC453DF4F4A
:1043F0000FB6F894DEBF0FBECDBFDF91CF911F91F6
:104400000F91FF90EF90DF90CF90BF90AF90089505
:10441000EEEEF2E01382128288EE93E0A0E0B0E0CC
:1044200084839583A683B78381E691E0918380831B
:1044300085EC90E09587848784EC90E09787868769
:1044400080EC90E0918B808B81EC90E0938B828B61
:1044500082EC90E0958B848B86EC90E0978B868B3A
:10446000118E128E138E148EEBE8F3E085EA91E044
:10447000918380831282138214821582E1E9F3E032
:10448000918380831282138214821582E7E9F3E01C
:10449000918380831282138214821582EDE9F3E006
:1044A000918380831282138214821582E3EAF3E0FF
:1044B000918380831282138214821582EFEAF3E0E3
:1044C000918380831282138214821582E9EAF3E0D9
:1044D000918380831282138214821582E5EBF3E0CC
:1044E000918380831282138214821582EBEBF3E0B6
:1044F000918380831282138214821582E9E1F4E0B1
:10450000918380831282138214821582EAE0F4E0A0
:104510001382128223E731E03183208324E0248751
:1045200028EE33E036872587ADEFB3E013969C93F2
:104530008E93129714961D921D921D921C9217979E
:1045400019961C921E9218971B961C921E921A97EF
:104550001C961C921C971196FC93EE9340E757E132
:1045600060E070E04483558366837783E4EDF3E095
:10457000118210821282138214821582168217828F
:1045800010861186B387A28715861486178616862D
:10459000108A118A128A138A148A158A168A178A2F
:1045A000108E118E128E138E158E148E178E168EFF
:1045B00010A212A211A2A1ECB3E082E015968C9396
:1045C00015978BE016968C931697E8E5F4E0E49146
:1045D0001796EC931797E4E4F4E0E4911896EC93C3
:1045E000189740E85EE360E070E01D964D935D93A0
:1045F0006D937C9350970895CF93DF93CDB7DEB73B
:104600002C970FB6F894DEBF0FBECDBF789484B55B
:10461000826084BD84B5816084BD85B5826085BDBE
:1046200085B5816085BD80916E00816080936E004C
:10463000109281008091810082608093810080913E
:1046400081008160809381008091800081608093EF
:1046500080008091B10084608093B1008091B000AF
:1046600081608093B00080917A00846080937A00AA
:1046700080917A00826080937A0080917A008160D4
:1046800080937A0080917A00806880937A001092FB
:10469000C100E091FE02F091FF0282E08083E09190
:1046A000FA02F091FB021082E091FC02F091FD020F
:1046B0008FEC808310920603E0910203F0910303D4
:1046C00086E08083E0910003F091010380818061A6
:1046D0008083E0910003F0910103808188608083F2
:1046E000E0910003F0910103808180688083E09174
:1046F0000003F091010380818F7D808361E084E07D
:104700000E940A0361E084E00E94DC0262E0809182
:10471000C6030E940A030E94B303605D77408109CB
:1047200091096093CA037093CB038093CC03909359
:10473000CD0387E38093D3030E94390984EE92E08E
:104740000E9482088EEF8093F7039DEE9093F8030A
:104750002AEB2093F9038093FA038093FB03909351
:10476000FC0320E031E0D9010D900020E9F79D0124
:1047700021503140A0E0B1E0E1E0F0E0AD01405077
:1047800051404217530784F4AF014F5F5F4F6D9163
:10479000EC52FC4F83A1862783A34630510514F0C9
:1047A00041E050E0FA01EACF8091C00281112AC0B5
:1047B0001092A8021092A70288EE93E0A0E0B0E069
:1047C0008093A9029093AA02A093AB02B093AC028B
:1047D00087E391E09093A6028093A50285EA91E099
:1047E0009093B4028093B3021092B5021092B60275
:1047F0001092B7021092B80284E08093BD0281E06B
:104800008093C00282E692E09093610280936002FE
:1048100080915F028111ADC060E372E080E090E0C2
:104820000E948003DFB6F8940CE414E0E0E6EE2E7C
:10483000E4E0FE2E80915D02811125C0F801849193
:10484000F7019491E82FF0E0EE0FFF1FEE50FD4FBF
:10485000A591B4918C91982321F461E08AE00E94A3
:10486000DC0261E08AE00E940A038CB580618CBDA5
:104870008CB580648CBD61E08DE00E940A0361E02C
:104880008BE00E940A0380915D028F5F80935D023E
:10489000DFBEF8010491E02FF0E0EE0FFF1FE450BF
:1048A000FD4F8591949190935C0280935B02F70198
:1048B000E490E0925A0261E08AE00E940A030E94BA
:1048C0005E0680E591E00E94620284E38093ED023F
:1048D00080E80E942A070E94840B882309F433C2CF
:1048E00088E00E942A070E94710B883009F02BC2D1
:1048F00080E10E942A070E94710B803109F023C2D7
:1049000080E00E942A070E94710B182F81111BC2A0
:1049100041E050E0BE016F5F7F4F8FE190E00E9469
:10492000FC098981833009F00EC280E480935E0225
:1049300042E06EE170E0812F0E94860742E06FE165
:1049400070E0812F0E9486071F5F143089F740E0D6
:104950006EE170E0812F0E94860740E06FE170E019
:10496000812F0E9486071F5F183089F781E08093AE
:104970005F0280E591E00E94620246E050E067EF4E
:1049800073E089E090E00E947A0685EA91E09A83DC
:1049900089831B821C821D821E8244E050E0BE017E
:1049A0006D5F7F4F8FE090E00E947A060091600279
:1049B00010916102D80192961D921D921D921C9237
:1049C0009597F80116A217A210A611A69A961D9205
:1049D0001D921D921C929D9780E69AEEA0E0B0E099
:1049E00086AB97ABA0AFB1AF80EA9FE0A0E0B0E0AC
:1049F00082AF93AFA4AFB5AFD801189686E0FD01A2
:104A0000282F11922A95E9F79801225F3F4F94E1F0
:104A1000F90111929A95E9F7E7EFF3E001900D9211
:104A20008A95E1F7C8018E5B9F4F9A878987DC01E1
:104A30001C920E94AA2A2FEC37E040E050E00E942E
:104A4000F82EDC01CB010196A11DB11DF801848374
:104A50009583A683B78380839183A283B383580110
:104A6000F3E4AF0EB11CC5010E94CC0A64E470E00F
:104A7000C5010E94350E882309F4CEC10E94B303FC
:104A80002B013C0148EEC42E43E0D42EE12CF12C46
:104A900052E0252E912C812CA985BA858C918330EA
:104AA000B9F18111C9C1F80184819581A681B781CD
:104AB0000196A11DB11D84839583A683B7830E94AF
:104AC000B3036419750986099709A70196010E9425
:104AD000612FA90161E0C8010E94A41781E0A985A6
:104AE000BA858C93F1E08F169104B1F20E94B30362
:104AF0006419750986099709D801D6962D913D91BB
:104B00004D915C91D997261737074807590710F63A
:104B1000C5010E94CC0AF80184819581A681B781E4
:104B20000196A11DB11D84839583A683B7830E943E
:104B3000B303F801FE9660837183828393838A9422
:104B4000892809F069C180E591E00E946202009124
:104B5000600210916102B801625F7F4FCE01019641
:104B60000E94DA1144E050E0BE016D5F7F4F8FE09C
:104B700090E00E947A06B8016A5E7F4FCE010196EE
:104B80000E94DA1144E050E0BE016D5F7F4F81E08A
:104B900090E00E947A06B8016E5E7F4FCE010196CA
:104BA0000E94DA1144E050E0BE016D5F7F4F85E066
:104BB00090E00E947A06B801625E7F4FCE010196B6
:104BC0000E94DA118B819C81AD81BE818093AB0301
:104BD0009093AC03A093AD03B093AE030E945B032C
:104BE0007F7380912101909122016827792770932A
:104BF00022016093210168EE73E080E090E00E9462
:104C0000800385EA91E09A8389831B821C821D823E
:104C10001E8280E591E00E94620244E050E0BE0105
:104C20006D5F7F4F8FE090E00E94FC090E94390980
:104C300083ED92E00E9409066B818EEE92E00E9465
:104C4000F4086EE28EEE92E00E9415056C818EEE05
:104C500092E00E94F4086EE28EEE92E00E9415054A
:104C60006D818EEE92E00E94F4086EE28EEE92E08C
:104C70000E9415056E818EEE92E00E94F40867EAAC
:104C800071E08EEE92E00E94730880E091E09093D4
:104C9000E1038093E0030E94B303DC01CB01885859
:104CA0009341A109B1098093E8039093E903A0938C
:104CB000EA03B093EB038093E4039093E503A0939E
:104CC000E603B093E7038093EC039093ED03A09386
:104CD000EE03B093EF030E94390983E192E00E9452
:104CE0008208E091DE03F091DF038CEE91E0918782
:104CF000808780E590E0938782878091DE039091A2
:104D0000DF030E9447081092F6031092F5030E94F9
:104D1000B3036B017C018091F5039091F603019739
:104D200009F455C10E94B3036C197D098E099F09CE
:104D3000603576448105910508F049C184ED93E022
:104D40000E94D718E8CF87E38093ED0280E80E94A5
:104D50002A070E94840B882329F188E00E942A07F1
:104D60000E94710B8830F1F480E10E942A070E94B2
:104D7000710B182F8031B1F480E00E942A070E9445
:104D8000710B81110FC041E050E0BE016F5F7F4F9A
:104D900089E390E00E94FC098981843019F4109322
:104DA0005E02E4CD83E38093ED0280E80E942A074F
:104DB0000E94840B882371F180E10E942A070E94DF
:104DC000710B803139F582E10E942A070E94710B34
:104DD000823101F580E00E942A070E94710B811147
:104DE00019C084E080935E0215E5188741E050E029
:104DF000BE01685F7F4F8BE190E00E947A061F83BF
:104E000041E050E0BE01695F7F4F8AE190E00E947F
:104E10007A06ACCD1092ED020E94390987ED92E03E
:104E20000E94820860E177E280E090E00E948003C7
:104E3000F0E0E0E00995FFCF8430F9F4F8018481D7
:104E40009581A681B7810196A11DB11D84839583AB
:104E5000A683B7830E94B30364197509860997096D
:104E6000A70196010E94612FA90163E0C8010E9479
:104E7000A417A985BA852C9235CE813059F5F80151
:104E800042AD53AD64AD75AD9E012F5F3F4FC8017C
:104E90000E940516382EF2E08F1392C089819A8104
:104EA000AB81BC81F80184839583A683B7830E947C
:104EB000B3036419750986099709A70196010E9431
:104EC000612FA90163E0C8010E94A417A985BA85D2
:104ED0003C9208CE823009F005CEF80142AD53ADC8
:104EE00064AD75AD9E012F5F3F4FC8010E9405164E
:104EF000382EF5E08F135DC0E3E0A985BA85EC9309
:104F0000F80182A193A1A4A1B5A1892B8A2B8B2B97
:104F100041F484E893E0A0E0B0E082A393A3A4A3CB
:104F2000B5A3F80186A197A1A0A5B1A5892B8A2BCD
:104F30008B2B61F482A193A1A4A1B5A1B695A795ED
:104F40009795879586A397A3A0A7B1A7F80182A5F7
:104F500093A5A4A5B5A5892B8A2B8B2BA9F482A197
:104F600093A1A4A1B5A1AC01BD0123E076956795FD
:104F7000579547952A95D1F7841B950BA60BB70B30
:104F800082A793A7A4A7B5A7F80186A197A1A0A57A
:104F9000B1A586A797A7A0ABB1AB82A593A5A4A501
:104FA000B5A582AB93ABA4ABB5AB88248394912C0D
:104FB00099CDF6E08F1304C0A985BA851C9292CDD5
:104FC000BFEF3B128FCDE985FA8510828BCD8091A2
:104FD000F5039091F603019709F08FCE88EF91E0E9
:104FE0000E944B0900E010E084ED93E00E94D71886
:104FF0000E94BF03882341F08091C7038C3009F4DD
:1050000062C048F48B3001F1C12CD12C90ECE92E18
:105010009FE7F92E43C085518230B0F7B090C303AB
:105020006B2D70E0762F662766277F778091C4030B
:10503000682B90E080E00E94D92D2DEC3CEC4CECEC
:105040005DE30E943A2E5BC06091C30370E090E084
:1050500080E00E94D92D4B015C01F090C403F7FE63
:105060000AC0AC019B0160E070E080E89FEB0E9409
:10507000922F4B015C016F2D6F7070E090E080E02B
:105080000E94DB2D2DEC3CEC4CEC5DE30E943A2EB3
:10509000A50194010E94932F6B017C010E94BF0324
:1050A000882351F08091C7038B3030F08D3080F130
:1050B0008551823008F4A3C0812C912C80ECA82E5D
:1050C0008FE7B82E43C0B090C3036B2D70E090E023
:1050D00080E00E94D92D6B017C016091C4036F7048
:1050E00070E090E080E00E94DB2D2DEC3CEC4CEC7D
:1050F0005DE30E943A2EA70196010E94932F6B0157
:105100007C01B7FECBCFF7FAF094F7F8F094C6CF56
:105110006091C20370E090E080E00E94DB2D2DECF6
:105120003CEC4CEC5DE30E943A2E4B015C0160913B
:10513000C10370E090E080E00E94DB2D9B01AC0198
:10514000C501B4010E94932F4B015C018EE00E94C7
:105150004603BC01990F880B990B0E94DB2D2B0194
:105160003C0160E070E0CB010E94FF2F862F0E947F
:105170004603BC01990F880B990B0E94DB2D6987B0
:105180007A878B879C87A7019601C701B6010E9489
:105190002E30811146C0B701A60181E090E00E9447
:1051A0006620A5019401C501B4010E942E30811131
:1051B0003DC0B501A40182E090E00E946620B301E9
:1051C000A20183E090E00E94662049855A856B85A4
:1051D0007C8584E090E00E94662060ED77E080E0CE
:1051E00090E00E9480030115110509F4FDCE0E9494
:1051F0008605882309F4F8CE0E940000F5CE609160
:10520000C1037091C20376276727762790E080E07C
:105210000E94D92D2DEC3CEC4CEC5DE30E943A2E23
:1052200093CF86E092E00E944B09BBCF81E392E0EE
:105230000E944B09C4CFEF920F931F93CF93DF933C
:10524000E80134E047FD34E1042E000C550B57FF14
:1052500003C0519541955109E32E022F242FAE0131
:105260000E94922BCE01DF91CF911F910F91EF9071
:1052700008950F931F93CF93DF938230910510F41D
:1052800082E090E0E0912104F091220430E020E0FF
:10529000B0E0A0E0309799F42115310509F44AC037
:1052A000281B390B24303105D8F58A819B81611583
:1052B000710589F1FB0193838283FE0111C0408156
:1052C00051810281138148175907E0F048175907A7
:1052D00099F4109761F012960C93129713961C9301
:1052E0003296CF01DF91CF911F910F9108950093D6
:1052F000210410932204F4CF2115310551F04217F7
:10530000530738F0A901DB019A01BD01DF01F80163
:10531000C1CFEF01F9CF9093220480932104CDCF28
:10532000FE01E20FF31F81939193225031093983DB
:105330002883D7CF20911F0430912004232B41F4E0
:1053400020912501309126013093200420931F04E1
:1053500020912301309124012115310541F42DB70D
:105360003EB74091270150912801241B350BE09155
:105370001F04F0912004E217F307A0F42E1B3F0B4B
:105380002817390778F0AC014E5F5F4F24173507B7
:1053900048F04E0F5F1F5093200440931F048193E9
:1053A00091939FCFF0E0E0E09CCFCF93DF93009705
:1053B000E9F0FC01329713821282A0912104B0918E
:1053C0002204ED0130E020E01097A1F4208131812A
:1053D000820F931F20911F04309120042817390752
:1053E00009F061C0F0932004E0931F04DF91CF9196
:1053F0000895EA01CE17DF07E8F54A815B819E0137
:1054000041155105B1F7E901FB83EA8349915991AF
:10541000C40FD51FEC17FD0761F4808191810296BE
:10542000840F951FE90199838883828193819B83EF
:105430008A83F0E0E0E012968D919C91139700979B
:10544000B9F52D913C911197CD010296820F931FD2
:1054500020911F04309120042817390739F630971E
:1054600051F51092220410922104B0932004A093CD
:105470001F04BCCFD383C28340815181840F951F09
:10548000C817D90761F44E5F5F4F88819981480F33
:10549000591F518340838A819B8193838283211585
:1054A000310509F0B0CFF0932204E09321049ECFA0
:1054B000FD01DC01C0CF13821282D7CF8F929F9261
:1054C000AF92BF92CF92DF92EF92FF92CF93DF9392
:1054D000EC01688179818A819B8161157105810563
:1054E000910521F464E279ED8BE597E02DE133EF4E
:1054F00041E050E00E94F82E49015A019B01AC01A5
:10550000A7EAB1E40E94172F6B017C01ACEEB4EF67
:10551000A50194010E94252FC60ED71EE81EF91E74
:10552000F7FE06C081E0C81AD108E10880E8F80A51
:10553000C882D982EA82FB82C701B6019F77DF91D8
:10554000CF91FF90EF90DF90CF90BF90AF909F9062
:105550008F9008958F929F92AF92BF92CF92DF92D9
:10556000EF92FF926091290170912A0180912B01A5
:1055700090912C01611571058105910521F464E27A
:1055800079ED8BE597E02DE133EF41E050E00E94AB
:10559000F82E49015A019B01AC01A7EAB1E40E942F
:1055A000172F6B017C01ACEEB4EFA50194010E94B2
:1055B000252FC60ED71EE81EF91EF7FE06C081E095
:1055C000C81AD108E10880E8F80AC0922901D092EF
:1055D0002A01E0922B01F0922C01C701B6019F77BE
:1055E000FF90EF90DF90CF90BF90AF909F908F9003
:1055F00008956093290170932A0180932B01909361
:105600002C010895FC0188279927E89421912032E4
:10561000E9F3293010F02E30C8F32B3241F02D324F
:1056200039F4689404C00E94702B820F911D21915F
:1056300020532A30C0F31EF4909581959F4F089512
:105640001F93FC0199278827BC01E894119110321F
:10565000E9F3193010F01E30C8F31B3251F01D323F
:1056600049F4689406C00E945B2B610F711D811D77
:10567000911D119110531A30B0F33EF4909580951E
:10568000709561957F4F8F4F9F4F1F910895FB013C
:10569000DC0102C005900D9241505040D8F70895AA
:1056A000BB274A3031F4992322F4BDE290958195CD
:1056B0009F4F0C94792B592F482F372F262F660F89
:1056C000771F881F991F660F771F881F991F620F0A
:1056D000731F841F951F660F771F881F991F0895DA
:1056E0007AE0979F902D879F802D910D112408952A
:1056F000BB27FB015527AA27880F991FAA1FA417AC
:1057000010F0A41B83955051B9F7A05DAA3308F09F
:10571000A95DA193009779F7B111B1931192CB01D3
:105720000C94C92DA9E0B0E0E8E9FBE20C94302F1D
:105730006A01F22EB02E102FFBE3AF2EA01608F454
:105740001BE31F5F012F27E0AE014F5F5F4F0E94F9
:10575000F12CBC018981982F9970913009F43FC0D8
:105760009BE2E1FC04C09E2D9170E0FC3AC05E2DEE
:105770005071E82FE87083FF46C084E0911101C0AA
:1057800083E0EF2DE81B8F1508F0E0E0D6018E2FA7
:1057900020E2552351F1992329F0D6019C93C601AB
:1057A00001966C0196012D5F3F4FE2FE24C08EE40E
:1057B000D6018C9391E411969C93119712968C9339
:1057C000D9018E2F90E281111BC0E20FF32FF11D42
:1057D00010828EEF9FEF2996ECE00C944C2F9DE207
:1057E000C6CF90E2C4CF2D9381508111FCCFCE0E55
:1057F000D11CE0E0D0CF8EE6D6018C9391E6DBCFD2
:105800009D938150E0CF482F447082FF3DC084E0DB
:10581000911101C083E08F1510F4EF2DE81BD60124
:105820008E2F20E2552309F1992329F0D6019C936C
:10583000C60101966C0196012D5F3F4FE2FE1BC031
:1058400089E4D6018C938EE411968C93119786E4AB
:1058500012968C93D9018E2F90E2882309F4B5CF4C
:105860009D938150FACF2D9381508111FCCFCE0EA4
:10587000D11CE0E0D9CF89E6D6018C938EE6119653
:105880008C93119786E6E4CF9B0177FF02C030E04E
:1058900020E0A1E0B0E0911102C0B0E0A0E0F90189
:1058A0003196AE0FBF1F8B2C912CBB2009F461C029
:1058B0005401EFEFAE1ABE0AAA0DBB1DFA161B0665
:1058C00019F014F04F2D4A1B511188C0E3FC59C048
:1058D0007601A42FB0E2A1114FC0C40ED11C9923B0
:1058E00009F45BC040E0D6011196F60190836D018A
:1058F000552309F448C0012F060F9A81582F507183
:1059000084FF03C0913309F4015010160CF047C016
:10591000093008F008E0EEE2FE2E5B01A01AB108A3
:1059200085019194819491082F3F320729F4D60183
:10593000FC92F60131966F016217730794F102171A
:1059400013077CF5DB01A21BB30BAA24A394B12C93
:10595000AC0EBD1EAA0DBB1D11968C9121503109B4
:10596000D601119628153905F4F0F60180836D01F2
:10597000DBCFB12CA12CA0CFF701B1937F01A150B7
:10598000AACF9111B0CFD601942F50E302C05D93FE
:1059900091509111FCCFC40ED11C40E0ACCF01E07E
:1059A000BACF80E3DBCF6217730731F4963388F404
:1059B000953311F4552369F0F6018083FD01842F9E
:1059C00090E2811108C0A40FB11D1C9290E080E00C
:1059D00002CF81E3F1CF91938150F3CF911183CF27
:1059E0008ACF283008F027E03327DA01990F311DDC
:1059F00087FD916000966105710539F432602E5F74
:105A00003D9330E32A95E1F708959F3F30F08038C9
:105A10007105610509F03C5F3C5F3D93913008F0F2
:105A20008068911DDF93CF931F930F93FF92EF92A6
:105A3000192F987F9695E92F96959695E90FFF2750
:105A4000EE53FF4F99273327EE24FF24A701E701E8
:105A500005900894079428F4360FE71EF81E491F96
:105A6000511D660F771F881F991F0694A1F7059097
:105A7000079428F4E70EF81E491F561FC11D770F23
:105A8000881F991F661F0694A1F70590079428F4B4
:105A9000F80E491F561FC71FD11D880F991F661F7B
:105AA000771F0694A1F70590079420F4490F561F1D
:105AB000C71FD81F990F661F771F881F0694A9F765
:105AC00084911095177041F0D695C79557954795D5
:105AD000F794E7941A95C1F7E8E6F0E0689415901A
